{
  "contractName": "RewardContract",
  "abi": [
    {
      "inputs": [
        {
          "internalType": "address",
          "name": "_token",
          "type": "address"
        },
        {
          "internalType": "address",
          "name": "_diamond",
          "type": "address"
        }
      ],
      "stateMutability": "nonpayable",
      "type": "constructor"
    },
    {
      "anonymous": false,
      "inputs": [
        {
          "indexed": true,
          "internalType": "address",
          "name": "previousOwner",
          "type": "address"
        },
        {
          "indexed": true,
          "internalType": "address",
          "name": "newOwner",
          "type": "address"
        }
      ],
      "name": "OwnershipTransferred",
      "type": "event"
    },
    {
      "inputs": [],
      "name": "g_locktime",
      "outputs": [
        {
          "internalType": "uint256",
          "name": "",
          "type": "uint256"
        }
      ],
      "stateMutability": "view",
      "type": "function"
    },
    {
      "inputs": [
        {
          "internalType": "uint256",
          "name": "",
          "type": "uint256"
        }
      ],
      "name": "g_minimumBalance",
      "outputs": [
        {
          "internalType": "uint256",
          "name": "",
          "type": "uint256"
        }
      ],
      "stateMutability": "view",
      "type": "function"
    },
    {
      "inputs": [],
      "name": "g_rewardsFunds",
      "outputs": [
        {
          "internalType": "uint256",
          "name": "",
          "type": "uint256"
        }
      ],
      "stateMutability": "view",
      "type": "function"
    },
    {
      "inputs": [
        {
          "internalType": "uint256",
          "name": "",
          "type": "uint256"
        }
      ],
      "name": "g_rewardsPerDay",
      "outputs": [
        {
          "internalType": "uint256",
          "name": "",
          "type": "uint256"
        }
      ],
      "stateMutability": "view",
      "type": "function"
    },
    {
      "inputs": [
        {
          "internalType": "address",
          "name": "",
          "type": "address"
        }
      ],
      "name": "g_userInfo",
      "outputs": [
        {
          "internalType": "uint256",
          "name": "totalEarned",
          "type": "uint256"
        },
        {
          "internalType": "uint256",
          "name": "lastTime",
          "type": "uint256"
        }
      ],
      "stateMutability": "view",
      "type": "function"
    },
    {
      "inputs": [],
      "name": "owner",
      "outputs": [
        {
          "internalType": "address",
          "name": "",
          "type": "address"
        }
      ],
      "stateMutability": "view",
      "type": "function"
    },
    {
      "inputs": [],
      "name": "renounceOwnership",
      "outputs": [],
      "stateMutability": "nonpayable",
      "type": "function"
    },
    {
      "inputs": [
        {
          "internalType": "address",
          "name": "newOwner",
          "type": "address"
        }
      ],
      "name": "transferOwnership",
      "outputs": [],
      "stateMutability": "nonpayable",
      "type": "function"
    },
    {
      "inputs": [],
      "name": "claimRewards",
      "outputs": [],
      "stateMutability": "nonpayable",
      "type": "function"
    },
    {
      "inputs": [],
      "name": "getMinimumAmount",
      "outputs": [
        {
          "internalType": "uint256",
          "name": "",
          "type": "uint256"
        }
      ],
      "stateMutability": "view",
      "type": "function"
    },
    {
      "inputs": [
        {
          "internalType": "address",
          "name": "_add",
          "type": "address"
        }
      ],
      "name": "getTotalReward",
      "outputs": [
        {
          "internalType": "uint256",
          "name": "",
          "type": "uint256"
        }
      ],
      "stateMutability": "view",
      "type": "function"
    },
    {
      "inputs": [
        {
          "internalType": "address",
          "name": "_add",
          "type": "address"
        }
      ],
      "name": "getLastTime",
      "outputs": [
        {
          "internalType": "uint256",
          "name": "",
          "type": "uint256"
        }
      ],
      "stateMutability": "view",
      "type": "function"
    },
    {
      "inputs": [
        {
          "internalType": "uint256",
          "name": "_type",
          "type": "uint256"
        }
      ],
      "name": "getRewardsPerDay",
      "outputs": [
        {
          "internalType": "uint256",
          "name": "",
          "type": "uint256"
        }
      ],
      "stateMutability": "view",
      "type": "function"
    },
    {
      "inputs": [
        {
          "internalType": "uint256",
          "name": "_type",
          "type": "uint256"
        },
        {
          "internalType": "uint256",
          "name": "_balance",
          "type": "uint256"
        }
      ],
      "name": "setMinimumBalance",
      "outputs": [],
      "stateMutability": "nonpayable",
      "type": "function"
    },
    {
      "inputs": [
        {
          "internalType": "uint256",
          "name": "_type",
          "type": "uint256"
        }
      ],
      "name": "getMinimumBalance",
      "outputs": [
        {
          "internalType": "uint256",
          "name": "",
          "type": "uint256"
        }
      ],
      "stateMutability": "view",
      "type": "function"
    },
    {
      "inputs": [
        {
          "internalType": "address",
          "name": "_add",
          "type": "address"
        }
      ],
      "name": "getCurrentTime",
      "outputs": [
        {
          "internalType": "bool",
          "name": "",
          "type": "bool"
        }
      ],
      "stateMutability": "view",
      "type": "function"
    },
    {
      "inputs": [
        {
          "internalType": "uint256",
          "name": "_type",
          "type": "uint256"
        },
        {
          "internalType": "uint256",
          "name": "_amount",
          "type": "uint256"
        }
      ],
      "name": "setRewardsPerDay",
      "outputs": [],
      "stateMutability": "nonpayable",
      "type": "function"
    },
    {
      "inputs": [
        {
          "internalType": "uint256",
          "name": "_time",
          "type": "uint256"
        }
      ],
      "name": "setLockTime",
      "outputs": [],
      "stateMutability": "nonpayable",
      "type": "function"
    },
    {
      "inputs": [
        {
          "internalType": "address",
          "name": "_token",
          "type": "address"
        }
      ],
      "name": "setTokenAddress",
      "outputs": [],
      "stateMutability": "nonpayable",
      "type": "function"
    },
    {
      "inputs": [
        {
          "internalType": "address",
          "name": "_address",
          "type": "address"
        }
      ],
      "name": "setDiamondAddress",
      "outputs": [],
      "stateMutability": "nonpayable",
      "type": "function"
    },
    {
      "inputs": [
        {
          "internalType": "uint256",
          "name": "_num",
          "type": "uint256"
        }
      ],
      "name": "setCounter",
      "outputs": [],
      "stateMutability": "nonpayable",
      "type": "function"
    },
    {
      "inputs": [
        {
          "internalType": "uint256",
          "name": "_amount",
          "type": "uint256"
        }
      ],
      "name": "fundsRewards",
      "outputs": [],
      "stateMutability": "nonpayable",
      "type": "function"
    },
    {
      "inputs": [],
      "name": "withdrawRewards",
      "outputs": [],
      "stateMutability": "nonpayable",
      "type": "function"
    }
  ],
  "bytecode": "0x60806040523480156200001157600080fd5b506040516200216838038062002168833981810160405281019062000037919062000230565b620000576200004b620000fa60201b60201c565b6200010260201b60201c565b6001808190555081600260006101000a81548173ffffffffffffffffffffffffffffffffffffffff021916908373ffffffffffffffffffffffffffffffffffffffff16021790555080600360006101000a81548173ffffffffffffffffffffffffffffffffffffffff021916908373ffffffffffffffffffffffffffffffffffffffff160217905550600660048190555062015180600581905550505062000277565b600033905090565b60008060009054906101000a900473ffffffffffffffffffffffffffffffffffffffff169050816000806101000a81548173ffffffffffffffffffffffffffffffffffffffff021916908373ffffffffffffffffffffffffffffffffffffffff1602179055508173ffffffffffffffffffffffffffffffffffffffff168173ffffffffffffffffffffffffffffffffffffffff167f8be0079c531659141344cd1fd0a4f28419497f9722a3daafe3b4186f6b6457e060405160405180910390a35050565b600080fd5b600073ffffffffffffffffffffffffffffffffffffffff82169050919050565b6000620001f882620001cb565b9050919050565b6200020a81620001eb565b81146200021657600080fd5b50565b6000815190506200022a81620001ff565b92915050565b600080604083850312156200024a5762000249620001c6565b5b60006200025a8582860162000219565b92505060206200026d8582860162000219565b9150509250929050565b611ee180620002876000396000f3fe608060405234801561001057600080fd5b506004361061014d5760003560e01c8063715018a6116100c3578063a49c3f641161007c578063a49c3f6414610377578063ae04d45d146103a7578063c7b8981c146103c3578063d28f22a3146103cd578063e9836ed8146103fd578063f2fde38b1461042d5761014d565b8063715018a6146102b457806389db19d4146102be5780638bb5d9c3146102ef5780638da5cb5b1461030b5780639e8c7d7f146103295780639fc8f790146103595761014d565b806339c27e801161011557806339c27e80146101e25780634645a517146101fe5780634df6a5d71461022e5780634fa917201461024a578063566837141461026657806362066eb3146102965761014d565b806326a4e8d21461015257806326eb8b061461016e5780632cbba8e11461018a57806334381749146101a8578063372500ab146101d8575b600080fd5b61016c60048036038101906101679190611781565b610449565b005b61018860048036038101906101839190611781565b610509565b005b6101926105c9565b60405161019f91906117c7565b60405180910390f35b6101c260048036038101906101bd9190611781565b6105cf565b6040516101cf91906117c7565b60405180910390f35b6101e061061b565b005b6101fc60048036038101906101f7919061180e565b610c7f565b005b6102186004803603810190610213919061180e565b610dfd565b60405161022591906117c7565b60405180910390f35b6102486004803603810190610243919061183b565b610e1a565b005b610264600480360381019061025f919061183b565b610eb2565b005b610280600480360381019061027b9190611781565b610f4a565b60405161028d9190611896565b60405180910390f35b61029e61100e565b6040516102ab91906117c7565b60405180910390f35b6102bc61111b565b005b6102d860048036038101906102d39190611781565b6111a3565b6040516102e69291906118b1565b60405180910390f35b6103096004803603810190610304919061180e565b6111c7565b005b61031361124d565b60405161032091906118e9565b60405180910390f35b610343600480360381019061033e9190611781565b611276565b60405161035091906117c7565b60405180910390f35b6103616112c2565b60405161036e91906117c7565b60405180910390f35b610391600480360381019061038c919061180e565b6112c8565b60405161039e91906117c7565b60405180910390f35b6103c160048036038101906103bc919061180e565b6112e5565b005b6103cb61136b565b005b6103e760048036038101906103e2919061180e565b61152b565b6040516103f491906117c7565b60405180910390f35b6104176004803603810190610412919061180e565b611543565b60405161042491906117c7565b60405180910390f35b61044760048036038101906104429190611781565b61155b565b005b610451611652565b73ffffffffffffffffffffffffffffffffffffffff1661046f61124d565b73ffffffffffffffffffffffffffffffffffffffff16146104c5576040517f08c379a00000000000000000000000000000000000000000000000000000000081526004016104bc90611961565b60405180910390fd5b80600260006101000a81548173ffffffffffffffffffffffffffffffffffffffff021916908373ffffffffffffffffffffffffffffffffffffffff16021790555050565b610511611652565b73ffffffffffffffffffffffffffffffffffffffff1661052f61124d565b73ffffffffffffffffffffffffffffffffffffffff1614610585576040517f08c379a000000000000000000000000000000000000000000000000000000000815260040161057c90611961565b60405180910390fd5b80600360006101000a81548173ffffffffffffffffffffffffffffffffffffffff021916908373ffffffffffffffffffffffffffffffffffffffff16021790555050565b60055481565b6000600960008373ffffffffffffffffffffffffffffffffffffffff1673ffffffffffffffffffffffffffffffffffffffff168152602001908152602001600020600001549050919050565b600260015403610660576040517f08c379a0000000000000000000000000000000000000000000000000000000008152600401610657906119cd565b60405180910390fd5b60026001819055506000600960003373ffffffffffffffffffffffffffffffffffffffff1673ffffffffffffffffffffffffffffffffffffffff16815260200190815260200160002060010154036109005742600960003373ffffffffffffffffffffffffffffffffffffffff1673ffffffffffffffffffffffffffffffffffffffff16815260200190815260200160002060010181905550600080600190505b60016004546107109190611a1c565b8110156107f8576000600360009054906101000a900473ffffffffffffffffffffffffffffffffffffffff1673ffffffffffffffffffffffffffffffffffffffff1662fdd58e33846040518363ffffffff1660e01b8152600401610775929190611a72565b602060405180830381865afa158015610792573d6000803e3d6000fd5b505050506040513d601f19601f820116820180604052508101906107b69190611ab0565b90506007600083815260200190815260200160002054816107d79190611add565b836107e29190611a1c565b92505080806107f090611b37565b915050610701565b50806006600082825461080b9190611b7f565b92505081905550600260009054906101000a900473ffffffffffffffffffffffffffffffffffffffff1673ffffffffffffffffffffffffffffffffffffffff1663a9059cbb33836040518363ffffffff1660e01b815260040161086f929190611a72565b6020604051808303816000875af115801561088e573d6000803e3d6000fd5b505050506040513d601f19601f820116820180604052508101906108b29190611bdf565b5080600960003373ffffffffffffffffffffffffffffffffffffffff1673ffffffffffffffffffffffffffffffffffffffff1681526020019081526020016000206000018190555050610c76565b600554600960003373ffffffffffffffffffffffffffffffffffffffff1673ffffffffffffffffffffffffffffffffffffffff16815260200190815260200160002060010154426109519190611b7f565b1015610992576040517f08c379a000000000000000000000000000000000000000000000000000000000815260040161098990611c7e565b60405180910390fd5b600080600190505b60016004546109a99190611a1c565b811015610a91576000600360009054906101000a900473ffffffffffffffffffffffffffffffffffffffff1673ffffffffffffffffffffffffffffffffffffffff1662fdd58e33846040518363ffffffff1660e01b8152600401610a0e929190611a72565b602060405180830381865afa158015610a2b573d6000803e3d6000fd5b505050506040513d601f19601f82011682018060405250810190610a4f9190611ab0565b9050600760008381526020019081526020016000205481610a709190611add565b83610a7b9190611a1c565b9250508080610a8990611b37565b91505061099a565b5060008103610ad5576040517f08c379a0000000000000000000000000000000000000000000000000000000008152600401610acc90611cea565b60405180910390fd5b806006541015610b1a576040517f08c379a0000000000000000000000000000000000000000000000000000000008152600401610b1190611d56565b60405180910390fd5b8060066000828254610b2c9190611b7f565b92505081905550600260009054906101000a900473ffffffffffffffffffffffffffffffffffffffff1673ffffffffffffffffffffffffffffffffffffffff1663a9059cbb33836040518363ffffffff1660e01b8152600401610b90929190611a72565b6020604051808303816000875af1158015610baf573d6000803e3d6000fd5b505050506040513d601f19601f82011682018060405250810190610bd39190611bdf565b5042600960003373ffffffffffffffffffffffffffffffffffffffff1673ffffffffffffffffffffffffffffffffffffffff1681526020019081526020016000206001018190555080600960003373ffffffffffffffffffffffffffffffffffffffff1673ffffffffffffffffffffffffffffffffffffffff1681526020019081526020016000206000016000828254610c6d9190611a1c565b92505081905550505b60018081905550565b610c87611652565b73ffffffffffffffffffffffffffffffffffffffff16610ca561124d565b73ffffffffffffffffffffffffffffffffffffffff1614610cfb576040517f08c379a0000000000000000000000000000000000000000000000000000000008152600401610cf290611961565b60405180910390fd5b60008111610d3e576040517f08c379a0000000000000000000000000000000000000000000000000000000008152600401610d3590611dc2565b60405180910390fd5b600260009054906101000a900473ffffffffffffffffffffffffffffffffffffffff1673ffffffffffffffffffffffffffffffffffffffff166323b872dd3330846040518463ffffffff1660e01b8152600401610d9d93929190611de2565b6020604051808303816000875af1158015610dbc573d6000803e3d6000fd5b505050506040513d601f19601f82011682018060405250810190610de09190611bdf565b508060066000828254610df39190611a1c565b9250508190555050565b600060086000838152602001908152602001600020549050919050565b610e22611652565b73ffffffffffffffffffffffffffffffffffffffff16610e4061124d565b73ffffffffffffffffffffffffffffffffffffffff1614610e96576040517f08c379a0000000000000000000000000000000000000000000000000000000008152600401610e8d90611961565b60405180910390fd5b8060086000848152602001908152602001600020819055505050565b610eba611652565b73ffffffffffffffffffffffffffffffffffffffff16610ed861124d565b73ffffffffffffffffffffffffffffffffffffffff1614610f2e576040517f08c379a0000000000000000000000000000000000000000000000000000000008152600401610f2590611961565b60405180910390fd5b8060076000848152602001908152602001600020819055505050565b600080600960008473ffffffffffffffffffffffffffffffffffffffff1673ffffffffffffffffffffffffffffffffffffffff1681526020019081526020016000206001015403610f9e5760019050611009565b6000600960008473ffffffffffffffffffffffffffffffffffffffff1673ffffffffffffffffffffffffffffffffffffffff1681526020019081526020016000206001015442610fee9190611b7f565b90506005548110611003576001915050611009565b60009150505b919050565b600080600090506000600190505b600160045461102b9190611a1c565b811015611113576000600360009054906101000a900473ffffffffffffffffffffffffffffffffffffffff1673ffffffffffffffffffffffffffffffffffffffff1662fdd58e33846040518363ffffffff1660e01b8152600401611090929190611a72565b602060405180830381865afa1580156110ad573d6000803e3d6000fd5b505050506040513d601f19601f820116820180604052508101906110d19190611ab0565b90508060086000848152602001908152602001600020546110f29190611add565b836110fd9190611a1c565b925050808061110b90611b37565b91505061101c565b508091505090565b611123611652565b73ffffffffffffffffffffffffffffffffffffffff1661114161124d565b73ffffffffffffffffffffffffffffffffffffffff1614611197576040517f08c379a000000000000000000000000000000000000000000000000000000000815260040161118e90611961565b60405180910390fd5b6111a1600061165a565b565b60096020528060005260406000206000915090508060000154908060010154905082565b6111cf611652565b73ffffffffffffffffffffffffffffffffffffffff166111ed61124d565b73ffffffffffffffffffffffffffffffffffffffff1614611243576040517f08c379a000000000000000000000000000000000000000000000000000000000815260040161123a90611961565b60405180910390fd5b8060048190555050565b60008060009054906101000a900473ffffffffffffffffffffffffffffffffffffffff16905090565b6000600960008373ffffffffffffffffffffffffffffffffffffffff1673ffffffffffffffffffffffffffffffffffffffff168152602001908152602001600020600101549050919050565b60065481565b600060076000838152602001908152602001600020549050919050565b6112ed611652565b73ffffffffffffffffffffffffffffffffffffffff1661130b61124d565b73ffffffffffffffffffffffffffffffffffffffff1614611361576040517f08c379a000000000000000000000000000000000000000000000000000000000815260040161135890611961565b60405180910390fd5b8060058190555050565b611373611652565b73ffffffffffffffffffffffffffffffffffffffff1661139161124d565b73ffffffffffffffffffffffffffffffffffffffff16146113e7576040517f08c379a00000000000000000000000000000000000000000000000000000000081526004016113de90611961565b60405180910390fd5b6000600260009054906101000a900473ffffffffffffffffffffffffffffffffffffffff1673ffffffffffffffffffffffffffffffffffffffff166370a08231306040518263ffffffff1660e01b815260040161144491906118e9565b602060405180830381865afa158015611461573d6000803e3d6000fd5b505050506040513d601f19601f820116820180604052508101906114859190611ab0565b9050600260009054906101000a900473ffffffffffffffffffffffffffffffffffffffff1673ffffffffffffffffffffffffffffffffffffffff1663a9059cbb33836040518363ffffffff1660e01b81526004016114e4929190611a72565b6020604051808303816000875af1158015611503573d6000803e3d6000fd5b505050506040513d601f19601f820116820180604052508101906115279190611bdf565b5050565b60076020528060005260406000206000915090505481565b60086020528060005260406000206000915090505481565b611563611652565b73ffffffffffffffffffffffffffffffffffffffff1661158161124d565b73ffffffffffffffffffffffffffffffffffffffff16146115d7576040517f08c379a00000000000000000000000000000000000000000000000000000000081526004016115ce90611961565b60405180910390fd5b600073ffffffffffffffffffffffffffffffffffffffff168173ffffffffffffffffffffffffffffffffffffffff1603611646576040517f08c379a000000000000000000000000000000000000000000000000000000000815260040161163d90611e8b565b60405180910390fd5b61164f8161165a565b50565b600033905090565b60008060009054906101000a900473ffffffffffffffffffffffffffffffffffffffff169050816000806101000a81548173ffffffffffffffffffffffffffffffffffffffff021916908373ffffffffffffffffffffffffffffffffffffffff1602179055508173ffffffffffffffffffffffffffffffffffffffff168173ffffffffffffffffffffffffffffffffffffffff167f8be0079c531659141344cd1fd0a4f28419497f9722a3daafe3b4186f6b6457e060405160405180910390a35050565b600080fd5b600073ffffffffffffffffffffffffffffffffffffffff82169050919050565b600061174e82611723565b9050919050565b61175e81611743565b811461176957600080fd5b50565b60008135905061177b81611755565b92915050565b6000602082840312156117975761179661171e565b5b60006117a58482850161176c565b91505092915050565b6000819050919050565b6117c1816117ae565b82525050565b60006020820190506117dc60008301846117b8565b92915050565b6117eb816117ae565b81146117f657600080fd5b50565b600081359050611808816117e2565b92915050565b6000602082840312156118245761182361171e565b5b6000611832848285016117f9565b91505092915050565b600080604083850312156118525761185161171e565b5b6000611860858286016117f9565b9250506020611871858286016117f9565b9150509250929050565b60008115159050919050565b6118908161187b565b82525050565b60006020820190506118ab6000830184611887565b92915050565b60006040820190506118c660008301856117b8565b6118d360208301846117b8565b9392505050565b6118e381611743565b82525050565b60006020820190506118fe60008301846118da565b92915050565b600082825260208201905092915050565b7f4f776e61626c653a2063616c6c6572206973206e6f7420746865206f776e6572600082015250565b600061194b602083611904565b915061195682611915565b602082019050919050565b6000602082019050818103600083015261197a8161193e565b9050919050565b7f5265656e7472616e637947756172643a207265656e7472616e742063616c6c00600082015250565b60006119b7601f83611904565b91506119c282611981565b602082019050919050565b600060208201905081810360008301526119e6816119aa565b9050919050565b7f4e487b7100000000000000000000000000000000000000000000000000000000600052601160045260246000fd5b6000611a27826117ae565b9150611a32836117ae565b9250827fffffffffffffffffffffffffffffffffffffffffffffffffffffffffffffffff03821115611a6757611a666119ed565b5b828201905092915050565b6000604082019050611a8760008301856118da565b611a9460208301846117b8565b9392505050565b600081519050611aaa816117e2565b92915050565b600060208284031215611ac657611ac561171e565b5b6000611ad484828501611a9b565b91505092915050565b6000611ae8826117ae565b9150611af3836117ae565b9250817fffffffffffffffffffffffffffffffffffffffffffffffffffffffffffffffff0483118215151615611b2c57611b2b6119ed565b5b828202905092915050565b6000611b42826117ae565b91507fffffffffffffffffffffffffffffffffffffffffffffffffffffffffffffffff8203611b7457611b736119ed565b5b600182019050919050565b6000611b8a826117ae565b9150611b95836117ae565b925082821015611ba857611ba76119ed565b5b828203905092915050565b611bbc8161187b565b8114611bc757600080fd5b50565b600081519050611bd981611bb3565b92915050565b600060208284031215611bf557611bf461171e565b5b6000611c0384828501611bca565b91505092915050565b7f596f752063616e277420636c61696d207265776172647320626563617573652060008201527f74696d65206973206e6f74207965740000000000000000000000000000000000602082015250565b6000611c68602f83611904565b9150611c7382611c0c565b604082019050919050565b60006020820190508181036000830152611c9781611c5b565b9050919050565b7f4e6f205265776172640000000000000000000000000000000000000000000000600082015250565b6000611cd4600983611904565b9150611cdf82611c9e565b602082019050919050565b60006020820190508181036000830152611d0381611cc7565b9050919050565b7f4e6f7420656e6f7567682066756e647300000000000000000000000000000000600082015250565b6000611d40601083611904565b9150611d4b82611d0a565b602082019050919050565b60006020820190508181036000830152611d6f81611d33565b9050919050565b7f4e6f2066756e6473000000000000000000000000000000000000000000000000600082015250565b6000611dac600883611904565b9150611db782611d76565b602082019050919050565b60006020820190508181036000830152611ddb81611d9f565b9050919050565b6000606082019050611df760008301866118da565b611e0460208301856118da565b611e1160408301846117b8565b949350505050565b7f4f776e61626c653a206e6577206f776e657220697320746865207a65726f206160008201527f6464726573730000000000000000000000000000000000000000000000000000602082015250565b6000611e75602683611904565b9150611e8082611e19565b604082019050919050565b60006020820190508181036000830152611ea481611e68565b905091905056fea264697066735822122006fb802d8db5b70fa6e51ab8cdc8e3658dfa17045e891889c23dc19dc9332c0c64736f6c634300080d0033",
  "immutableReferences": {},
  "source": "// SPDX-License-Identifier: MIT\r\n\r\npragma solidity ^0.8.10;\r\nimport \"@openzeppelin/contracts/token/ERC20/ERC20.sol\";\r\nimport \"@openzeppelin/contracts/access/Ownable.sol\";\r\nimport \"@openzeppelin/contracts/token/ERC20/IERC20.sol\";\r\nimport \"@openzeppelin/contracts/security/ReentrancyGuard.sol\";\r\nimport \"@openzeppelin/contracts/token/ERC1155/ERC1155.sol\";\r\n\r\ncontract RewardContract is Ownable, ReentrancyGuard {\r\n    IERC20 private g_token;\r\n    IERC1155 private g_diamond;\r\n    uint256 private g_diamondCounter;\r\n    uint256 public g_locktime;\r\n    uint256 public g_rewardsFunds;\r\n\r\n    struct UserInfo {\r\n        uint256 totalEarned;\r\n        uint256 lastTime;\r\n    }\r\n    mapping (uint256 => uint256) public g_rewardsPerDay;\r\n    mapping (uint256 => uint256) public g_minimumBalance;\r\n    mapping (address => UserInfo) public g_userInfo;\r\n\r\n    constructor(address _token, address _diamond) {\r\n        g_token = IERC20(_token);\r\n        g_diamond = IERC1155(_diamond);\r\n        g_diamondCounter = 6;\r\n        g_locktime = 86400; // 1day = 86400secs\r\n    }\r\n\r\n    function claimRewards() external nonReentrant {\r\n        if(g_userInfo[msg.sender].lastTime == 0){\r\n            g_userInfo[msg.sender].lastTime = block.timestamp;\r\n            uint256 rewardsAmountInit = 0;\r\n            for(uint i = 1; i < g_diamondCounter + 1; i++)\r\n            {\r\n                uint256 count = g_diamond.balanceOf(msg.sender, i);\r\n                rewardsAmountInit += count * g_rewardsPerDay[i];\r\n            }\r\n            g_rewardsFunds -= rewardsAmountInit;\r\n            g_token.transfer(msg.sender, rewardsAmountInit);\r\n            g_userInfo[msg.sender].totalEarned = rewardsAmountInit;\r\n            return;\r\n        }\r\n\r\n        require(block.timestamp - g_userInfo[msg.sender].lastTime >= g_locktime, \"You can't claim rewards because time is not yet\");\r\n        uint256 rewardsAmount = 0;\r\n        for(uint i = 1; i < g_diamondCounter + 1; i++)\r\n        {\r\n            uint256 count = g_diamond.balanceOf(msg.sender, i);\r\n            rewardsAmount += count * g_rewardsPerDay[i];\r\n        }\r\n        require(rewardsAmount != 0 , \"No Reward\");\r\n        require (g_rewardsFunds >= rewardsAmount, \"Not enough funds\");\r\n        g_rewardsFunds -= rewardsAmount;\r\n        g_token.transfer(msg.sender, rewardsAmount);\r\n        g_userInfo[msg.sender].lastTime = block.timestamp;\r\n        g_userInfo[msg.sender].totalEarned += rewardsAmount;\r\n    }\r\n\r\n\r\n    function getMinimumAmount() external view returns (uint256) {\r\n        uint256 minBalance = 0;\r\n        for(uint i = 1; i < g_diamondCounter + 1; i++)\r\n        {\r\n            uint256 count = g_diamond.balanceOf(msg.sender, i);\r\n            minBalance += g_minimumBalance[i] * count;\r\n        }\r\n        return minBalance;\r\n    }\r\n\r\n    function getTotalReward(address _add) external view returns (uint256) {\r\n        return g_userInfo[_add].totalEarned;\r\n    }\r\n\r\n    function getLastTime(address _add) external view returns (uint256) {\r\n        return g_userInfo[_add].lastTime;\r\n    }\r\n\r\n    function getRewardsPerDay(uint256 _type) external view returns(uint256) {\r\n        return g_rewardsPerDay[_type];\r\n    }\r\n\r\n    function setMinimumBalance(uint256 _type, uint256 _balance) external onlyOwner {\r\n        g_minimumBalance[_type] = _balance;\r\n    }\r\n\r\n    function getMinimumBalance(uint256 _type) external view returns(uint256) {\r\n        return g_minimumBalance[_type];\r\n    }\r\n\r\n    function getCurrentTime(address _add) external view returns(bool) {\r\n        if(g_userInfo[_add].lastTime ==0 ) {\r\n            return true;\r\n        } else {\r\n            uint256 isEnable = block.timestamp - g_userInfo[_add].lastTime ;\r\n            if(isEnable >= g_locktime) {\r\n                return true;\r\n            } else {\r\n                return false;\r\n            }\r\n        }\r\n    }\r\n    function setRewardsPerDay(uint256 _type, uint256 _amount) external onlyOwner {\r\n        g_rewardsPerDay[_type] = _amount;\r\n    }\r\n\r\n    function setLockTime(uint256 _time) external onlyOwner {\r\n        g_locktime = _time;\r\n    }\r\n    function setTokenAddress(address _token) external onlyOwner {\r\n        g_token = IERC20(_token);\r\n    }\r\n\r\n    function setDiamondAddress(address _address)external onlyOwner {\r\n        g_diamond = IERC1155(_address);\r\n    }\r\n\r\n    function setCounter (uint256 _num)external onlyOwner {\r\n        g_diamondCounter = _num;\r\n    }\r\n\r\n    function fundsRewards(uint256 _amount) external onlyOwner {\r\n        require(_amount > 0, \"No funds\");\r\n        g_token.transferFrom(msg.sender, address(this), _amount);\r\n        g_rewardsFunds += _amount;\r\n    }\r\n    \r\n    function withdrawRewards() external onlyOwner {\r\n        uint256 balance = g_token.balanceOf(address(this));\r\n        g_token.transfer(msg.sender, balance);\r\n    }\r\n}",
  "sourcePath": "E:\\git\\contracts\\contracts\\RewardContract.sol",
  "compiler": {
    "name": "solc",
    "version": "0.8.13+commit.abaa5c0e.Emscripten.clang"
  },
  "schemaVersion": "3.4.4",
  "updatedAt": "2022-05-09T17:27:59.246Z",
  "devdoc": {
    "kind": "dev",
    "methods": {
      "owner()": {
        "details": "Returns the address of the current owner."
      },
      "renounceOwnership()": {
        "details": "Leaves the contract without owner. It will not be possible to call `onlyOwner` functions anymore. Can only be called by the current owner. NOTE: Renouncing ownership will leave the contract without an owner, thereby removing any functionality that is only available to the owner."
      },
      "transferOwnership(address)": {
        "details": "Transfers ownership of the contract to a new account (`newOwner`). Can only be called by the current owner."
      }
    },
    "version": 1
  },
  "userdoc": {
    "kind": "user",
    "methods": {},
    "version": 1
  }
}