{
  "contractName": "Sugarland",
  "abi": [
    {
      "inputs": [],
      "stateMutability": "nonpayable",
      "type": "constructor"
    },
    {
      "anonymous": false,
      "inputs": [
        {
          "indexed": true,
          "internalType": "address",
          "name": "owner",
          "type": "address"
        },
        {
          "indexed": true,
          "internalType": "address",
          "name": "spender",
          "type": "address"
        },
        {
          "indexed": false,
          "internalType": "uint256",
          "name": "value",
          "type": "uint256"
        }
      ],
      "name": "Approval",
      "type": "event"
    },
    {
      "anonymous": false,
      "inputs": [
        {
          "indexed": true,
          "internalType": "address",
          "name": "previousOwner",
          "type": "address"
        },
        {
          "indexed": true,
          "internalType": "address",
          "name": "newOwner",
          "type": "address"
        }
      ],
      "name": "OwnershipTransferred",
      "type": "event"
    },
    {
      "anonymous": false,
      "inputs": [
        {
          "indexed": true,
          "internalType": "address",
          "name": "from",
          "type": "address"
        },
        {
          "indexed": true,
          "internalType": "address",
          "name": "to",
          "type": "address"
        },
        {
          "indexed": false,
          "internalType": "uint256",
          "name": "value",
          "type": "uint256"
        }
      ],
      "name": "Transfer",
      "type": "event"
    },
    {
      "inputs": [],
      "name": "buyTaxes",
      "outputs": [
        {
          "internalType": "uint256",
          "name": "rfi",
          "type": "uint256"
        },
        {
          "internalType": "uint256",
          "name": "marketing",
          "type": "uint256"
        },
        {
          "internalType": "uint256",
          "name": "liquidity",
          "type": "uint256"
        }
      ],
      "stateMutability": "view",
      "type": "function"
    },
    {
      "inputs": [
        {
          "internalType": "address",
          "name": "",
          "type": "address"
        }
      ],
      "name": "isBot",
      "outputs": [
        {
          "internalType": "bool",
          "name": "",
          "type": "bool"
        }
      ],
      "stateMutability": "view",
      "type": "function"
    },
    {
      "inputs": [],
      "name": "marketingWallet",
      "outputs": [
        {
          "internalType": "address",
          "name": "",
          "type": "address"
        }
      ],
      "stateMutability": "view",
      "type": "function"
    },
    {
      "inputs": [],
      "name": "maxTxAmount",
      "outputs": [
        {
          "internalType": "uint256",
          "name": "",
          "type": "uint256"
        }
      ],
      "stateMutability": "view",
      "type": "function"
    },
    {
      "inputs": [],
      "name": "maxWalletAmount",
      "outputs": [
        {
          "internalType": "uint256",
          "name": "",
          "type": "uint256"
        }
      ],
      "stateMutability": "view",
      "type": "function"
    },
    {
      "inputs": [],
      "name": "owner",
      "outputs": [
        {
          "internalType": "address",
          "name": "",
          "type": "address"
        }
      ],
      "stateMutability": "view",
      "type": "function"
    },
    {
      "inputs": [],
      "name": "pair",
      "outputs": [
        {
          "internalType": "address",
          "name": "",
          "type": "address"
        }
      ],
      "stateMutability": "view",
      "type": "function"
    },
    {
      "inputs": [],
      "name": "renounceOwnership",
      "outputs": [],
      "stateMutability": "nonpayable",
      "type": "function"
    },
    {
      "inputs": [],
      "name": "router",
      "outputs": [
        {
          "internalType": "contract IRouter",
          "name": "",
          "type": "address"
        }
      ],
      "stateMutability": "view",
      "type": "function"
    },
    {
      "inputs": [],
      "name": "sellTaxes",
      "outputs": [
        {
          "internalType": "uint256",
          "name": "rfi",
          "type": "uint256"
        },
        {
          "internalType": "uint256",
          "name": "marketing",
          "type": "uint256"
        },
        {
          "internalType": "uint256",
          "name": "liquidity",
          "type": "uint256"
        }
      ],
      "stateMutability": "view",
      "type": "function"
    },
    {
      "inputs": [],
      "name": "swapEnabled",
      "outputs": [
        {
          "internalType": "bool",
          "name": "",
          "type": "bool"
        }
      ],
      "stateMutability": "view",
      "type": "function"
    },
    {
      "inputs": [],
      "name": "swapTokensAtAmount",
      "outputs": [
        {
          "internalType": "uint256",
          "name": "",
          "type": "uint256"
        }
      ],
      "stateMutability": "view",
      "type": "function"
    },
    {
      "inputs": [],
      "name": "totFeesPaid",
      "outputs": [
        {
          "internalType": "uint256",
          "name": "rfi",
          "type": "uint256"
        },
        {
          "internalType": "uint256",
          "name": "marketing",
          "type": "uint256"
        },
        {
          "internalType": "uint256",
          "name": "liquidity",
          "type": "uint256"
        }
      ],
      "stateMutability": "view",
      "type": "function"
    },
    {
      "inputs": [],
      "name": "tradingActive",
      "outputs": [
        {
          "internalType": "bool",
          "name": "",
          "type": "bool"
        }
      ],
      "stateMutability": "view",
      "type": "function"
    },
    {
      "inputs": [
        {
          "internalType": "address",
          "name": "newOwner",
          "type": "address"
        }
      ],
      "name": "transferOwnership",
      "outputs": [],
      "stateMutability": "nonpayable",
      "type": "function"
    },
    {
      "inputs": [],
      "name": "transferTaxes",
      "outputs": [
        {
          "internalType": "uint256",
          "name": "rfi",
          "type": "uint256"
        },
        {
          "internalType": "uint256",
          "name": "marketing",
          "type": "uint256"
        },
        {
          "internalType": "uint256",
          "name": "liquidity",
          "type": "uint256"
        }
      ],
      "stateMutability": "view",
      "type": "function"
    },
    {
      "stateMutability": "payable",
      "type": "receive"
    },
    {
      "inputs": [],
      "name": "name",
      "outputs": [
        {
          "internalType": "string",
          "name": "",
          "type": "string"
        }
      ],
      "stateMutability": "pure",
      "type": "function"
    },
    {
      "inputs": [],
      "name": "symbol",
      "outputs": [
        {
          "internalType": "string",
          "name": "",
          "type": "string"
        }
      ],
      "stateMutability": "pure",
      "type": "function"
    },
    {
      "inputs": [],
      "name": "decimals",
      "outputs": [
        {
          "internalType": "uint8",
          "name": "",
          "type": "uint8"
        }
      ],
      "stateMutability": "pure",
      "type": "function"
    },
    {
      "inputs": [],
      "name": "totalSupply",
      "outputs": [
        {
          "internalType": "uint256",
          "name": "",
          "type": "uint256"
        }
      ],
      "stateMutability": "view",
      "type": "function"
    },
    {
      "inputs": [
        {
          "internalType": "address",
          "name": "account",
          "type": "address"
        }
      ],
      "name": "balanceOf",
      "outputs": [
        {
          "internalType": "uint256",
          "name": "",
          "type": "uint256"
        }
      ],
      "stateMutability": "view",
      "type": "function"
    },
    {
      "inputs": [
        {
          "internalType": "address",
          "name": "recipient",
          "type": "address"
        },
        {
          "internalType": "uint256",
          "name": "amount",
          "type": "uint256"
        }
      ],
      "name": "transfer",
      "outputs": [
        {
          "internalType": "bool",
          "name": "",
          "type": "bool"
        }
      ],
      "stateMutability": "nonpayable",
      "type": "function"
    },
    {
      "inputs": [
        {
          "internalType": "address",
          "name": "owner",
          "type": "address"
        },
        {
          "internalType": "address",
          "name": "spender",
          "type": "address"
        }
      ],
      "name": "allowance",
      "outputs": [
        {
          "internalType": "uint256",
          "name": "",
          "type": "uint256"
        }
      ],
      "stateMutability": "view",
      "type": "function"
    },
    {
      "inputs": [
        {
          "internalType": "address",
          "name": "spender",
          "type": "address"
        },
        {
          "internalType": "uint256",
          "name": "amount",
          "type": "uint256"
        }
      ],
      "name": "approve",
      "outputs": [
        {
          "internalType": "bool",
          "name": "",
          "type": "bool"
        }
      ],
      "stateMutability": "nonpayable",
      "type": "function"
    },
    {
      "inputs": [
        {
          "internalType": "address",
          "name": "sender",
          "type": "address"
        },
        {
          "internalType": "address",
          "name": "recipient",
          "type": "address"
        },
        {
          "internalType": "uint256",
          "name": "amount",
          "type": "uint256"
        }
      ],
      "name": "transferFrom",
      "outputs": [
        {
          "internalType": "bool",
          "name": "",
          "type": "bool"
        }
      ],
      "stateMutability": "nonpayable",
      "type": "function"
    },
    {
      "inputs": [
        {
          "internalType": "address",
          "name": "spender",
          "type": "address"
        },
        {
          "internalType": "uint256",
          "name": "addedValue",
          "type": "uint256"
        }
      ],
      "name": "increaseAllowance",
      "outputs": [
        {
          "internalType": "bool",
          "name": "",
          "type": "bool"
        }
      ],
      "stateMutability": "nonpayable",
      "type": "function"
    },
    {
      "inputs": [
        {
          "internalType": "address",
          "name": "spender",
          "type": "address"
        },
        {
          "internalType": "uint256",
          "name": "subtractedValue",
          "type": "uint256"
        }
      ],
      "name": "decreaseAllowance",
      "outputs": [
        {
          "internalType": "bool",
          "name": "",
          "type": "bool"
        }
      ],
      "stateMutability": "nonpayable",
      "type": "function"
    },
    {
      "inputs": [
        {
          "internalType": "address",
          "name": "account",
          "type": "address"
        }
      ],
      "name": "isExcludedFromReward",
      "outputs": [
        {
          "internalType": "bool",
          "name": "",
          "type": "bool"
        }
      ],
      "stateMutability": "view",
      "type": "function"
    },
    {
      "inputs": [
        {
          "internalType": "uint256",
          "name": "tAmount",
          "type": "uint256"
        },
        {
          "internalType": "bool",
          "name": "deductTransferRfi",
          "type": "bool"
        },
        {
          "internalType": "uint8",
          "name": "code",
          "type": "uint8"
        }
      ],
      "name": "reflectionFromToken",
      "outputs": [
        {
          "internalType": "uint256",
          "name": "",
          "type": "uint256"
        }
      ],
      "stateMutability": "view",
      "type": "function"
    },
    {
      "inputs": [
        {
          "internalType": "uint256",
          "name": "rAmount",
          "type": "uint256"
        }
      ],
      "name": "tokenFromReflection",
      "outputs": [
        {
          "internalType": "uint256",
          "name": "",
          "type": "uint256"
        }
      ],
      "stateMutability": "view",
      "type": "function"
    },
    {
      "inputs": [
        {
          "internalType": "address",
          "name": "account",
          "type": "address"
        }
      ],
      "name": "excludeFromReward",
      "outputs": [],
      "stateMutability": "nonpayable",
      "type": "function"
    },
    {
      "inputs": [
        {
          "internalType": "address",
          "name": "account",
          "type": "address"
        }
      ],
      "name": "includeInReward",
      "outputs": [],
      "stateMutability": "nonpayable",
      "type": "function"
    },
    {
      "inputs": [
        {
          "internalType": "address",
          "name": "account",
          "type": "address"
        }
      ],
      "name": "excludeFromFee",
      "outputs": [],
      "stateMutability": "nonpayable",
      "type": "function"
    },
    {
      "inputs": [
        {
          "internalType": "address",
          "name": "account",
          "type": "address"
        }
      ],
      "name": "includeInFee",
      "outputs": [],
      "stateMutability": "nonpayable",
      "type": "function"
    },
    {
      "inputs": [
        {
          "internalType": "address",
          "name": "account",
          "type": "address"
        }
      ],
      "name": "isExcludedFromFee",
      "outputs": [
        {
          "internalType": "bool",
          "name": "",
          "type": "bool"
        }
      ],
      "stateMutability": "view",
      "type": "function"
    },
    {
      "inputs": [
        {
          "internalType": "uint256",
          "name": "_rfi",
          "type": "uint256"
        },
        {
          "internalType": "uint256",
          "name": "_marketing",
          "type": "uint256"
        },
        {
          "internalType": "uint256",
          "name": "_liquidity",
          "type": "uint256"
        }
      ],
      "name": "setTransferTaxes",
      "outputs": [],
      "stateMutability": "nonpayable",
      "type": "function"
    },
    {
      "inputs": [
        {
          "internalType": "uint256",
          "name": "_rfi",
          "type": "uint256"
        },
        {
          "internalType": "uint256",
          "name": "_marketing",
          "type": "uint256"
        },
        {
          "internalType": "uint256",
          "name": "_liquidity",
          "type": "uint256"
        }
      ],
      "name": "setBuyTaxes",
      "outputs": [],
      "stateMutability": "nonpayable",
      "type": "function"
    },
    {
      "inputs": [
        {
          "internalType": "uint256",
          "name": "_rfi",
          "type": "uint256"
        },
        {
          "internalType": "uint256",
          "name": "_marketing",
          "type": "uint256"
        },
        {
          "internalType": "uint256",
          "name": "_liquidity",
          "type": "uint256"
        }
      ],
      "name": "setSellTaxes",
      "outputs": [],
      "stateMutability": "nonpayable",
      "type": "function"
    },
    {
      "inputs": [],
      "name": "startTrading",
      "outputs": [],
      "stateMutability": "nonpayable",
      "type": "function"
    },
    {
      "inputs": [
        {
          "internalType": "address",
          "name": "_marketingWallet",
          "type": "address"
        }
      ],
      "name": "updateMarketingWallet",
      "outputs": [],
      "stateMutability": "nonpayable",
      "type": "function"
    },
    {
      "inputs": [
        {
          "internalType": "uint256",
          "name": "amount",
          "type": "uint256"
        }
      ],
      "name": "updateMaxTxAmount",
      "outputs": [],
      "stateMutability": "nonpayable",
      "type": "function"
    },
    {
      "inputs": [
        {
          "internalType": "uint256",
          "name": "amount",
          "type": "uint256"
        }
      ],
      "name": "updateMaxWalletBalance",
      "outputs": [],
      "stateMutability": "nonpayable",
      "type": "function"
    },
    {
      "inputs": [
        {
          "internalType": "uint256",
          "name": "amount",
          "type": "uint256"
        }
      ],
      "name": "updateSwapTokensAtAmount",
      "outputs": [],
      "stateMutability": "nonpayable",
      "type": "function"
    },
    {
      "inputs": [
        {
          "internalType": "bool",
          "name": "_enabled",
          "type": "bool"
        }
      ],
      "name": "updateSwapEnabled",
      "outputs": [],
      "stateMutability": "nonpayable",
      "type": "function"
    },
    {
      "inputs": [
        {
          "internalType": "address",
          "name": "newRouter",
          "type": "address"
        },
        {
          "internalType": "address",
          "name": "newPair",
          "type": "address"
        }
      ],
      "name": "updateRouterAndPair",
      "outputs": [],
      "stateMutability": "nonpayable",
      "type": "function"
    },
    {
      "inputs": [
        {
          "internalType": "address",
          "name": "user",
          "type": "address"
        },
        {
          "internalType": "bool",
          "name": "state",
          "type": "bool"
        }
      ],
      "name": "setIsBot",
      "outputs": [],
      "stateMutability": "nonpayable",
      "type": "function"
    },
    {
      "inputs": [
        {
          "internalType": "uint256",
          "name": "weiAmount",
          "type": "uint256"
        }
      ],
      "name": "rescueBNB",
      "outputs": [],
      "stateMutability": "nonpayable",
      "type": "function"
    },
    {
      "inputs": [
        {
          "internalType": "address",
          "name": "_tokenAddr",
          "type": "address"
        },
        {
          "internalType": "address",
          "name": "_to",
          "type": "address"
        },
        {
          "internalType": "uint256",
          "name": "_amount",
          "type": "uint256"
        }
      ],
      "name": "rescueAnyBEP20Tokens",
      "outputs": [],
      "stateMutability": "nonpayable",
      "type": "function"
    }
  ],
  "bytecode": "0x60806040526009600a62000014919062000d2a565b633b9aca0062000025919062000d7b565b600a55600a546000196200003a919062000e0b565b60001962000049919062000e43565b600b556009600a6200005c919062000d2a565b6207a1206200006c919062000d7b565b600c556009600a6200007f919062000d2a565b629896806200008f919062000d7b565b600d556009600a620000a2919062000d2a565b6301312d00620000b3919062000d7b565b600e556040518060600160405280600381526020016005815260200160048152506010600082015181600001556020820151816001015560408201518160020155505060405180606001604052806003815260200160058152602001600481525060136000820151816000015560208201518160010155604082015181600201555050604051806060016040528060038152602001600581526020016004815250601660008201518160000155602082015181600101556040820151816002015550503480156200018357600080fd5b50620001a4620001986200048660201b60201c565b6200048e60201b60201c565b60007310ed43c718714eb63d5aa57b78b54704e256024e9050600030905081600860036101000a81548173ffffffffffffffffffffffffffffffffffffffff021916908373ffffffffffffffffffffffffffffffffffffffff16021790555080600960006101000a81548173ffffffffffffffffffffffffffffffffffffffff021916908373ffffffffffffffffffffffffffffffffffffffff16021790555062000277600960009054906101000a900473ffffffffffffffffffffffffffffffffffffffff166200055260201b60201c565b600b54600160006200028e6200080c60201b60201c565b73ffffffffffffffffffffffffffffffffffffffff1673ffffffffffffffffffffffffffffffffffffffff16815260200190815260200160002081905550600160046000620002e26200080c60201b60201c565b73ffffffffffffffffffffffffffffffffffffffff1673ffffffffffffffffffffffffffffffffffffffff16815260200190815260200160002060006101000a81548160ff0219169083151502179055506001600460003073ffffffffffffffffffffffffffffffffffffffff1673ffffffffffffffffffffffffffffffffffffffff16815260200190815260200160002060006101000a81548160ff021916908315150217905550600160046000600f60009054906101000a900473ffffffffffffffffffffffffffffffffffffffff1673ffffffffffffffffffffffffffffffffffffffff1673ffffffffffffffffffffffffffffffffffffffff16815260200190815260200160002060006101000a81548160ff021916908315150217905550620004156200080c60201b60201c565b73ffffffffffffffffffffffffffffffffffffffff16600073ffffffffffffffffffffffffffffffffffffffff167fddf252ad1be2c89b69c2b068fc378daa952ba7f163c4a11628f55a4df523b3ef600a5460405162000476919062000e8f565b60405180910390a35050620010ed565b600033905090565b60008060009054906101000a900473ffffffffffffffffffffffffffffffffffffffff169050816000806101000a81548173ffffffffffffffffffffffffffffffffffffffff021916908373ffffffffffffffffffffffffffffffffffffffff1602179055508173ffffffffffffffffffffffffffffffffffffffff168173ffffffffffffffffffffffffffffffffffffffff167f8be0079c531659141344cd1fd0a4f28419497f9722a3daafe3b4186f6b6457e060405160405180910390a35050565b620005626200048660201b60201c565b73ffffffffffffffffffffffffffffffffffffffff16620005886200080c60201b60201c565b73ffffffffffffffffffffffffffffffffffffffff1614620005e1576040517f08c379a0000000000000000000000000000000000000000000000000000000008152600401620005d89062000f0d565b60405180910390fd5b600560008273ffffffffffffffffffffffffffffffffffffffff1673ffffffffffffffffffffffffffffffffffffffff16815260200190815260200160002060009054906101000a900460ff161562000671576040517f08c379a0000000000000000000000000000000000000000000000000000000008152600401620006689062000f7f565b60405180910390fd5b6000600160008373ffffffffffffffffffffffffffffffffffffffff1673ffffffffffffffffffffffffffffffffffffffff1681526020019081526020016000205411156200074e576200070a600160008373ffffffffffffffffffffffffffffffffffffffff1673ffffffffffffffffffffffffffffffffffffffff168152602001908152602001600020546200083560201b60201c565b600260008373ffffffffffffffffffffffffffffffffffffffff1673ffffffffffffffffffffffffffffffffffffffff168152602001908152602001600020819055505b6001600560008373ffffffffffffffffffffffffffffffffffffffff1673ffffffffffffffffffffffffffffffffffffffff16815260200190815260200160002060006101000a81548160ff0219169083151502179055506007819080600181540180825580915050600190039060005260206000200160009091909190916101000a81548173ffffffffffffffffffffffffffffffffffffffff021916908373ffffffffffffffffffffffffffffffffffffffff16021790555050565b60008060009054906101000a900473ffffffffffffffffffffffffffffffffffffffff16905090565b6000600b548211156200087f576040517f08c379a0000000000000000000000000000000000000000000000000000000008152600401620008769062001017565b60405180910390fd5b600062000891620008a960201b60201c565b90508083620008a1919062001039565b915050919050565b6000806000620008be620008d760201b60201c565b915091508082620008d0919062001039565b9250505090565b6000806000600b5490506000600a54905060005b60078054905081101562000b565782600160006007848154811062000915576200091462001071565b5b9060005260206000200160009054906101000a900473ffffffffffffffffffffffffffffffffffffffff1673ffffffffffffffffffffffffffffffffffffffff1673ffffffffffffffffffffffffffffffffffffffff16815260200190815260200160002054118062000a0757508160026000600784815481106200099f576200099e62001071565b5b9060005260206000200160009054906101000a900473ffffffffffffffffffffffffffffffffffffffff1673ffffffffffffffffffffffffffffffffffffffff1673ffffffffffffffffffffffffffffffffffffffff16815260200190815260200160002054115b1562000a2057600b54600a549450945050505062000b8c565b600160006007838154811062000a3b5762000a3a62001071565b5b9060005260206000200160009054906101000a900473ffffffffffffffffffffffffffffffffffffffff1673ffffffffffffffffffffffffffffffffffffffff1673ffffffffffffffffffffffffffffffffffffffff168152602001908152602001600020548362000aae919062000e43565b9250600260006007838154811062000acb5762000aca62001071565b5b9060005260206000200160009054906101000a900473ffffffffffffffffffffffffffffffffffffffff1673ffffffffffffffffffffffffffffffffffffffff1673ffffffffffffffffffffffffffffffffffffffff168152602001908152602001600020548262000b3e919062000e43565b9150808062000b4d90620010a0565b915050620008eb565b50600a54600b5462000b69919062001039565b82101562000b8357600b54600a5493509350505062000b8c565b81819350935050505b9091565b7f4e487b7100000000000000000000000000000000000000000000000000000000600052601160045260246000fd5b60008160011c9050919050565b6000808291508390505b600185111562000c1e5780860481111562000bf65762000bf562000b90565b5b600185161562000c065780820291505b808102905062000c168562000bbf565b945062000bd6565b94509492505050565b60008262000c39576001905062000d0c565b8162000c49576000905062000d0c565b816001811462000c62576002811462000c6d5762000ca3565b600191505062000d0c565b60ff84111562000c825762000c8162000b90565b5b8360020a91508482111562000c9c5762000c9b62000b90565b5b5062000d0c565b5060208310610133831016604e8410600b841016171562000cdd5782820a90508381111562000cd75762000cd662000b90565b5b62000d0c565b62000cec848484600162000bcc565b9250905081840481111562000d065762000d0562000b90565b5b81810290505b9392505050565b6000819050919050565b600060ff82169050919050565b600062000d378262000d13565b915062000d448362000d1d565b925062000d737fffffffffffffffffffffffffffffffffffffffffffffffffffffffffffffffff848462000c27565b905092915050565b600062000d888262000d13565b915062000d958362000d13565b9250817fffffffffffffffffffffffffffffffffffffffffffffffffffffffffffffffff048311821515161562000dd15762000dd062000b90565b5b828202905092915050565b7f4e487b7100000000000000000000000000000000000000000000000000000000600052601260045260246000fd5b600062000e188262000d13565b915062000e258362000d13565b92508262000e385762000e3762000ddc565b5b828206905092915050565b600062000e508262000d13565b915062000e5d8362000d13565b92508282101562000e735762000e7262000b90565b5b828203905092915050565b62000e898162000d13565b82525050565b600060208201905062000ea6600083018462000e7e565b92915050565b600082825260208201905092915050565b7f4f776e61626c653a2063616c6c6572206973206e6f7420746865206f776e6572600082015250565b600062000ef560208362000eac565b915062000f028262000ebd565b602082019050919050565b6000602082019050818103600083015262000f288162000ee6565b9050919050565b7f4163636f756e7420697320616c7265616479206578636c756465640000000000600082015250565b600062000f67601b8362000eac565b915062000f748262000f2f565b602082019050919050565b6000602082019050818103600083015262000f9a8162000f58565b9050919050565b7f416d6f756e74206d757374206265206c657373207468616e20746f74616c207260008201527f65666c656374696f6e7300000000000000000000000000000000000000000000602082015250565b600062000fff602a8362000eac565b91506200100c8262000fa1565b604082019050919050565b60006020820190508181036000830152620010328162000ff0565b9050919050565b6000620010468262000d13565b9150620010538362000d13565b92508262001066576200106562000ddc565b5b828204905092915050565b7f4e487b7100000000000000000000000000000000000000000000000000000000600052603260045260246000fd5b6000620010ad8262000d13565b91507fffffffffffffffffffffffffffffffffffffffffffffffffffffffffffffffff8203620010e257620010e162000b90565b5b600182019050919050565b615a5f80620010fd6000396000f3fe6080604052600436106102975760003560e01c8063715018a61161015a578063a9059cbb116100c1578063dd62ed3e1161007a578063dd62ed3e14610a37578063e2f4560514610a74578063ea2f0b3714610a9f578063f2fde38b14610ac8578063f66895a314610af1578063f887ea4014610b1e5761029e565b8063a9059cbb14610915578063aa4bde2814610952578063aacebbe31461097d578063bbc0c742146109a6578063beb09140146109d1578063d257b34f14610a0e5761029e565b80638da5cb5b116101135780638da5cb5b14610801578063924de9b71461082c57806395d89b41146108555780639ba5e4d514610880578063a457c2d7146108ad578063a8aa1b31146108ea5761029e565b8063715018a61461070157806375f0a874146107185780637f13fe2f14610743578063864701a51461076c57806388f82020146107995780638c0b5e22146107d65761029e565b806339509351116101fe57806352390c02116101b757806352390c02146105dd5780635331803c146106065780635342acb4146106335780636256d181146106705780636ddd17131461069957806370a08231146106c45761029e565b806339509351146104bf5780633bbac579146104fc57806340b28c2f14610539578063437823ec14610562578063441b1d301461058b57806347c23092146105b45761029e565b8063188b1bf111610250578063188b1bf1146103b157806323b872dd146103da578063293230b8146104175780632d8381191461042e578063313ce5671461046b5780633685d419146104965761029e565b806303c0f5d4146102a357806306fdde03146102cc57806308733214146102f7578063095ea7b31461032057806318160ddd1461035d5780631870517a146103885761029e565b3661029e57005b600080fd5b3480156102af57600080fd5b506102ca60048036038101906102c59190614381565b610b49565b005b3480156102d857600080fd5b506102e1610c20565b6040516102ee919061445a565b60405180910390f35b34801561030357600080fd5b5061031e600480360381019061031991906144b2565b610c5d565b005b34801561032c57600080fd5b5061034760048036038101906103429190614505565b610d1c565b6040516103549190614554565b60405180910390f35b34801561036957600080fd5b50610372610d3a565b60405161037f919061457e565b60405180910390f35b34801561039457600080fd5b506103af60048036038101906103aa91906144b2565b610d44565b005b3480156103bd57600080fd5b506103d860048036038101906103d39190614599565b610e03565b005b3480156103e657600080fd5b5061040160048036038101906103fc91906145c6565b610ea1565b60405161040e9190614554565b60405180910390f35b34801561042357600080fd5b5061042c610fa2565b005b34801561043a57600080fd5b5061045560048036038101906104509190614599565b6110a6565b604051610462919061457e565b60405180910390f35b34801561047757600080fd5b5061048061110d565b60405161048d9190614635565b60405180910390f35b3480156104a257600080fd5b506104bd60048036038101906104b89190614650565b611116565b005b3480156104cb57600080fd5b506104e660048036038101906104e19190614505565b61144b565b6040516104f39190614554565b60405180910390f35b34801561050857600080fd5b50610523600480360381019061051e9190614650565b6114f7565b6040516105309190614554565b60405180910390f35b34801561054557600080fd5b50610560600480360381019061055b919061467d565b611517565b005b34801561056e57600080fd5b5061058960048036038101906105849190614650565b611619565b005b34801561059757600080fd5b506105b260048036038101906105ad9190614599565b6116f0565b005b3480156105c057600080fd5b506105db60048036038101906105d691906145c6565b6117f9565b005b3480156105e957600080fd5b5061060460048036038101906105ff9190614650565b6118f9565b005b34801561061257600080fd5b5061061b611b94565b60405161062a939291906146bd565b60405180910390f35b34801561063f57600080fd5b5061065a60048036038101906106559190614650565b611bac565b6040516106679190614554565b60405180910390f35b34801561067c57600080fd5b5061069760048036038101906106929190614599565b611c02565b005b3480156106a557600080fd5b506106ae611ca0565b6040516106bb9190614554565b60405180910390f35b3480156106d057600080fd5b506106eb60048036038101906106e69190614650565b611cb3565b6040516106f8919061457e565b60405180910390f35b34801561070d57600080fd5b50610716611d9e565b005b34801561072457600080fd5b5061072d611e26565b60405161073a9190614703565b60405180910390f35b34801561074f57600080fd5b5061076a600480360381019061076591906144b2565b611e4c565b005b34801561077857600080fd5b50610781611f0b565b604051610790939291906146bd565b60405180910390f35b3480156107a557600080fd5b506107c060048036038101906107bb9190614650565b611f23565b6040516107cd9190614554565b60405180910390f35b3480156107e257600080fd5b506107eb611f79565b6040516107f8919061457e565b60405180910390f35b34801561080d57600080fd5b50610816611f7f565b6040516108239190614703565b60405180910390f35b34801561083857600080fd5b50610853600480360381019061084e919061471e565b611fa8565b005b34801561086157600080fd5b5061086a612041565b604051610877919061445a565b60405180910390f35b34801561088c57600080fd5b5061089561207e565b6040516108a4939291906146bd565b60405180910390f35b3480156108b957600080fd5b506108d460048036038101906108cf9190614505565b612096565b6040516108e19190614554565b60405180910390f35b3480156108f657600080fd5b506108ff61218a565b60405161090c9190614703565b60405180910390f35b34801561092157600080fd5b5061093c60048036038101906109379190614505565b6121b0565b6040516109499190614554565b60405180910390f35b34801561095e57600080fd5b506109676121ce565b604051610974919061457e565b60405180910390f35b34801561098957600080fd5b506109a4600480360381019061099f9190614650565b6121d4565b005b3480156109b257600080fd5b506109bb612294565b6040516109c89190614554565b60405180910390f35b3480156109dd57600080fd5b506109f860048036038101906109f39190614777565b6122a7565b604051610a05919061457e565b60405180910390f35b348015610a1a57600080fd5b50610a356004803603810190610a309190614599565b612330565b005b348015610a4357600080fd5b50610a5e6004803603810190610a59919061467d565b6123ce565b604051610a6b919061457e565b60405180910390f35b348015610a8057600080fd5b50610a89612455565b604051610a96919061457e565b60405180910390f35b348015610aab57600080fd5b50610ac66004803603810190610ac19190614650565b61245b565b005b348015610ad457600080fd5b50610aef6004803603810190610aea9190614650565b612532565b005b348015610afd57600080fd5b50610b06612629565b604051610b15939291906146bd565b60405180910390f35b348015610b2a57600080fd5b50610b33612641565b604051610b409190614829565b60405180910390f35b610b51612667565b73ffffffffffffffffffffffffffffffffffffffff16610b6f611f7f565b73ffffffffffffffffffffffffffffffffffffffff1614610bc5576040517f08c379a0000000000000000000000000000000000000000000000000000000008152600401610bbc90614890565b60405180910390fd5b80600660008473ffffffffffffffffffffffffffffffffffffffff1673ffffffffffffffffffffffffffffffffffffffff16815260200190815260200160002060006101000a81548160ff0219169083151502179055505050565b60606040518060400160405280600981526020017f53756761726c616e640000000000000000000000000000000000000000000000815250905090565b610c65612667565b73ffffffffffffffffffffffffffffffffffffffff16610c83611f7f565b73ffffffffffffffffffffffffffffffffffffffff1614610cd9576040517f08c379a0000000000000000000000000000000000000000000000000000000008152600401610cd090614890565b60405180910390fd5b6040518060600160405280848152602001838152602001828152506016600082015181600001556020820151816001015560408201518160020155905050505050565b6000610d30610d29612667565b848461266f565b6001905092915050565b6000600a54905090565b610d4c612667565b73ffffffffffffffffffffffffffffffffffffffff16610d6a611f7f565b73ffffffffffffffffffffffffffffffffffffffff1614610dc0576040517f08c379a0000000000000000000000000000000000000000000000000000000008152600401610db790614890565b60405180910390fd5b6040518060600160405280848152602001838152602001828152506013600082015181600001556020820151816001015560408201518160020155905050505050565b610e0b612667565b73ffffffffffffffffffffffffffffffffffffffff16610e29611f7f565b73ffffffffffffffffffffffffffffffffffffffff1614610e7f576040517f08c379a0000000000000000000000000000000000000000000000000000000008152600401610e7690614890565b60405180910390fd5b6009600a610e8d9190614a12565b81610e989190614a5d565b600e8190555050565b6000610eae848484612838565b6000600360008673ffffffffffffffffffffffffffffffffffffffff1673ffffffffffffffffffffffffffffffffffffffff1681526020019081526020016000206000610ef9612667565b73ffffffffffffffffffffffffffffffffffffffff1673ffffffffffffffffffffffffffffffffffffffff16815260200190815260200160002054905082811015610f79576040517f08c379a0000000000000000000000000000000000000000000000000000000008152600401610f7090614b29565b60405180910390fd5b610f9685610f85612667565b8584610f919190614b49565b61266f565b60019150509392505050565b610faa612667565b73ffffffffffffffffffffffffffffffffffffffff16610fc8611f7f565b73ffffffffffffffffffffffffffffffffffffffff161461101e576040517f08c379a000000000000000000000000000000000000000000000000000000000815260040161101590614890565b60405180910390fd5b600860019054906101000a900460ff161561106e576040517f08c379a000000000000000000000000000000000000000000000000000000000815260040161106590614bc9565b60405180910390fd5b6001600860016101000a81548160ff0219169083151502179055506001600860006101000a81548160ff021916908315150217905550565b6000600b548211156110ed576040517f08c379a00000000000000000000000000000000000000000000000000000000081526004016110e490614c5b565b60405180910390fd5b60006110f7612f2f565b905080836111059190614caa565b915050919050565b60006009905090565b61111e612667565b73ffffffffffffffffffffffffffffffffffffffff1661113c611f7f565b73ffffffffffffffffffffffffffffffffffffffff1614611192576040517f08c379a000000000000000000000000000000000000000000000000000000000815260040161118990614890565b60405180910390fd5b600560008273ffffffffffffffffffffffffffffffffffffffff1673ffffffffffffffffffffffffffffffffffffffff16815260200190815260200160002060009054906101000a900460ff1661121e576040517f08c379a000000000000000000000000000000000000000000000000000000000815260040161121590614d27565b60405180910390fd5b60005b600780549050811015611447578173ffffffffffffffffffffffffffffffffffffffff166007828154811061125957611258614d47565b5b9060005260206000200160009054906101000a900473ffffffffffffffffffffffffffffffffffffffff1673ffffffffffffffffffffffffffffffffffffffff160361143457600760016007805490506112b39190614b49565b815481106112c4576112c3614d47565b5b9060005260206000200160009054906101000a900473ffffffffffffffffffffffffffffffffffffffff166007828154811061130357611302614d47565b5b9060005260206000200160006101000a81548173ffffffffffffffffffffffffffffffffffffffff021916908373ffffffffffffffffffffffffffffffffffffffff1602179055506000600260008473ffffffffffffffffffffffffffffffffffffffff1673ffffffffffffffffffffffffffffffffffffffff168152602001908152602001600020819055506000600560008473ffffffffffffffffffffffffffffffffffffffff1673ffffffffffffffffffffffffffffffffffffffff16815260200190815260200160002060006101000a81548160ff02191690831515021790555060078054806113fa576113f9614d76565b5b6001900381819060005260206000200160006101000a81549073ffffffffffffffffffffffffffffffffffffffff02191690559055611447565b808061143f90614da5565b915050611221565b5050565b60006114ed611458612667565b848460036000611466612667565b73ffffffffffffffffffffffffffffffffffffffff1673ffffffffffffffffffffffffffffffffffffffff16815260200190815260200160002060008873ffffffffffffffffffffffffffffffffffffffff1673ffffffffffffffffffffffffffffffffffffffff168152602001908152602001600020546114e89190614ded565b61266f565b6001905092915050565b60066020528060005260406000206000915054906101000a900460ff1681565b61151f612667565b73ffffffffffffffffffffffffffffffffffffffff1661153d611f7f565b73ffffffffffffffffffffffffffffffffffffffff1614611593576040517f08c379a000000000000000000000000000000000000000000000000000000000815260040161158a90614890565b60405180910390fd5b81600860036101000a81548173ffffffffffffffffffffffffffffffffffffffff021916908373ffffffffffffffffffffffffffffffffffffffff16021790555080600960006101000a81548173ffffffffffffffffffffffffffffffffffffffff021916908373ffffffffffffffffffffffffffffffffffffffff1602179055505050565b611621612667565b73ffffffffffffffffffffffffffffffffffffffff1661163f611f7f565b73ffffffffffffffffffffffffffffffffffffffff1614611695576040517f08c379a000000000000000000000000000000000000000000000000000000000815260040161168c90614890565b60405180910390fd5b6001600460008373ffffffffffffffffffffffffffffffffffffffff1673ffffffffffffffffffffffffffffffffffffffff16815260200190815260200160002060006101000a81548160ff02191690831515021790555050565b6116f8612667565b73ffffffffffffffffffffffffffffffffffffffff16611716611f7f565b73ffffffffffffffffffffffffffffffffffffffff161461176c576040517f08c379a000000000000000000000000000000000000000000000000000000000815260040161176390614890565b60405180910390fd5b804710156117af576040517f08c379a00000000000000000000000000000000000000000000000000000000081526004016117a690614e8f565b60405180910390fd5b3373ffffffffffffffffffffffffffffffffffffffff166108fc829081150290604051600060405180830381858888f193505050501580156117f5573d6000803e3d6000fd5b5050565b611801612667565b73ffffffffffffffffffffffffffffffffffffffff1661181f611f7f565b73ffffffffffffffffffffffffffffffffffffffff1614611875576040517f08c379a000000000000000000000000000000000000000000000000000000000815260040161186c90614890565b60405180910390fd5b8273ffffffffffffffffffffffffffffffffffffffff1663a9059cbb83836040518363ffffffff1660e01b81526004016118b0929190614eaf565b6020604051808303816000875af11580156118cf573d6000803e3d6000fd5b505050506040513d601f19601f820116820180604052508101906118f39190614eed565b50505050565b611901612667565b73ffffffffffffffffffffffffffffffffffffffff1661191f611f7f565b73ffffffffffffffffffffffffffffffffffffffff1614611975576040517f08c379a000000000000000000000000000000000000000000000000000000000815260040161196c90614890565b60405180910390fd5b600560008273ffffffffffffffffffffffffffffffffffffffff1673ffffffffffffffffffffffffffffffffffffffff16815260200190815260200160002060009054906101000a900460ff1615611a02576040517f08c379a00000000000000000000000000000000000000000000000000000000081526004016119f990614f66565b60405180910390fd5b6000600160008373ffffffffffffffffffffffffffffffffffffffff1673ffffffffffffffffffffffffffffffffffffffff168152602001908152602001600020541115611ad657611a92600160008373ffffffffffffffffffffffffffffffffffffffff1673ffffffffffffffffffffffffffffffffffffffff168152602001908152602001600020546110a6565b600260008373ffffffffffffffffffffffffffffffffffffffff1673ffffffffffffffffffffffffffffffffffffffff168152602001908152602001600020819055505b6001600560008373ffffffffffffffffffffffffffffffffffffffff1673ffffffffffffffffffffffffffffffffffffffff16815260200190815260200160002060006101000a81548160ff0219169083151502179055506007819080600181540180825580915050600190039060005260206000200160009091909190916101000a81548173ffffffffffffffffffffffffffffffffffffffff021916908373ffffffffffffffffffffffffffffffffffffffff16021790555050565b60108060000154908060010154908060020154905083565b6000600460008373ffffffffffffffffffffffffffffffffffffffff1673ffffffffffffffffffffffffffffffffffffffff16815260200190815260200160002060009054906101000a900460ff169050919050565b611c0a612667565b73ffffffffffffffffffffffffffffffffffffffff16611c28611f7f565b73ffffffffffffffffffffffffffffffffffffffff1614611c7e576040517f08c379a0000000000000000000000000000000000000000000000000000000008152600401611c7590614890565b60405180910390fd5b6009600a611c8c9190614a12565b81611c979190614a5d565b600d8190555050565b600860009054906101000a900460ff1681565b6000600560008373ffffffffffffffffffffffffffffffffffffffff1673ffffffffffffffffffffffffffffffffffffffff16815260200190815260200160002060009054906101000a900460ff1615611d4e57600260008373ffffffffffffffffffffffffffffffffffffffff1673ffffffffffffffffffffffffffffffffffffffff168152602001908152602001600020549050611d99565b611d96600160008473ffffffffffffffffffffffffffffffffffffffff1673ffffffffffffffffffffffffffffffffffffffff168152602001908152602001600020546110a6565b90505b919050565b611da6612667565b73ffffffffffffffffffffffffffffffffffffffff16611dc4611f7f565b73ffffffffffffffffffffffffffffffffffffffff1614611e1a576040517f08c379a0000000000000000000000000000000000000000000000000000000008152600401611e1190614890565b60405180910390fd5b611e246000612f53565b565b600f60009054906101000a900473ffffffffffffffffffffffffffffffffffffffff1681565b611e54612667565b73ffffffffffffffffffffffffffffffffffffffff16611e72611f7f565b73ffffffffffffffffffffffffffffffffffffffff1614611ec8576040517f08c379a0000000000000000000000000000000000000000000000000000000008152600401611ebf90614890565b60405180910390fd5b6040518060600160405280848152602001838152602001828152506010600082015181600001556020820151816001015560408201518160020155905050505050565b60138060000154908060010154908060020154905083565b6000600560008373ffffffffffffffffffffffffffffffffffffffff1673ffffffffffffffffffffffffffffffffffffffff16815260200190815260200160002060009054906101000a900460ff169050919050565b600d5481565b60008060009054906101000a900473ffffffffffffffffffffffffffffffffffffffff16905090565b611fb0612667565b73ffffffffffffffffffffffffffffffffffffffff16611fce611f7f565b73ffffffffffffffffffffffffffffffffffffffff1614612024576040517f08c379a000000000000000000000000000000000000000000000000000000000815260040161201b90614890565b60405180910390fd5b80600860006101000a81548160ff02191690831515021790555050565b60606040518060400160405280600581526020017f5375676172000000000000000000000000000000000000000000000000000000815250905090565b60198060000154908060010154908060020154905083565b600080600360006120a5612667565b73ffffffffffffffffffffffffffffffffffffffff1673ffffffffffffffffffffffffffffffffffffffff16815260200190815260200160002060008573ffffffffffffffffffffffffffffffffffffffff1673ffffffffffffffffffffffffffffffffffffffff16815260200190815260200160002054905082811015612162576040517f08c379a000000000000000000000000000000000000000000000000000000000815260040161215990614ff8565b60405180910390fd5b61217f61216d612667565b85858461217a9190614b49565b61266f565b600191505092915050565b600960009054906101000a900473ffffffffffffffffffffffffffffffffffffffff1681565b60006121c46121bd612667565b8484612838565b6001905092915050565b600e5481565b6121dc612667565b73ffffffffffffffffffffffffffffffffffffffff166121fa611f7f565b73ffffffffffffffffffffffffffffffffffffffff1614612250576040517f08c379a000000000000000000000000000000000000000000000000000000000815260040161224790614890565b60405180910390fd5b80600f60006101000a81548173ffffffffffffffffffffffffffffffffffffffff021916908373ffffffffffffffffffffffffffffffffffffffff16021790555050565b600860019054906101000a900460ff1681565b6000600a548411156122ee576040517f08c379a00000000000000000000000000000000000000000000000000000000081526004016122e590615064565b60405180910390fd5b8261231057600061230185600185613017565b90508060000151915050612329565b600061231e85600185613017565b905080602001519150505b9392505050565b612338612667565b73ffffffffffffffffffffffffffffffffffffffff16612356611f7f565b73ffffffffffffffffffffffffffffffffffffffff16146123ac576040517f08c379a00000000000000000000000000000000000000000000000000000000081526004016123a390614890565b60405180910390fd5b6009600a6123ba9190614a12565b816123c59190614a5d565b600c8190555050565b6000600360008473ffffffffffffffffffffffffffffffffffffffff1673ffffffffffffffffffffffffffffffffffffffff16815260200190815260200160002060008373ffffffffffffffffffffffffffffffffffffffff1673ffffffffffffffffffffffffffffffffffffffff16815260200190815260200160002054905092915050565b600c5481565b612463612667565b73ffffffffffffffffffffffffffffffffffffffff16612481611f7f565b73ffffffffffffffffffffffffffffffffffffffff16146124d7576040517f08c379a00000000000000000000000000000000000000000000000000000000081526004016124ce90614890565b60405180910390fd5b6000600460008373ffffffffffffffffffffffffffffffffffffffff1673ffffffffffffffffffffffffffffffffffffffff16815260200190815260200160002060006101000a81548160ff02191690831515021790555050565b61253a612667565b73ffffffffffffffffffffffffffffffffffffffff16612558611f7f565b73ffffffffffffffffffffffffffffffffffffffff16146125ae576040517f08c379a00000000000000000000000000000000000000000000000000000000081526004016125a590614890565b60405180910390fd5b600073ffffffffffffffffffffffffffffffffffffffff168173ffffffffffffffffffffffffffffffffffffffff160361261d576040517f08c379a0000000000000000000000000000000000000000000000000000000008152600401612614906150f6565b60405180910390fd5b61262681612f53565b50565b60168060000154908060010154908060020154905083565b600860039054906101000a900473ffffffffffffffffffffffffffffffffffffffff1681565b600033905090565b600073ffffffffffffffffffffffffffffffffffffffff168373ffffffffffffffffffffffffffffffffffffffff16036126de576040517f08c379a00000000000000000000000000000000000000000000000000000000081526004016126d590615188565b60405180910390fd5b600073ffffffffffffffffffffffffffffffffffffffff168273ffffffffffffffffffffffffffffffffffffffff160361274d576040517f08c379a00000000000000000000000000000000000000000000000000000000081526004016127449061521a565b60405180910390fd5b80600360008573ffffffffffffffffffffffffffffffffffffffff1673ffffffffffffffffffffffffffffffffffffffff16815260200190815260200160002060008473ffffffffffffffffffffffffffffffffffffffff1673ffffffffffffffffffffffffffffffffffffffff168152602001908152602001600020819055508173ffffffffffffffffffffffffffffffffffffffff168373ffffffffffffffffffffffffffffffffffffffff167f8c5be1e5ebec7d5bd14f71427d1e84f3dd0314c0f7b2291e5b200ac8c7c3b9258360405161282b919061457e565b60405180910390a3505050565b600073ffffffffffffffffffffffffffffffffffffffff168373ffffffffffffffffffffffffffffffffffffffff16036128a7576040517f08c379a000000000000000000000000000000000000000000000000000000000815260040161289e906152ac565b60405180910390fd5b600073ffffffffffffffffffffffffffffffffffffffff168273ffffffffffffffffffffffffffffffffffffffff1603612916576040517f08c379a000000000000000000000000000000000000000000000000000000000815260040161290d9061533e565b60405180910390fd5b60008111612959576040517f08c379a0000000000000000000000000000000000000000000000000000000008152600401612950906153d0565b60405180910390fd5b61296283611cb3565b8111156129a4576040517f08c379a000000000000000000000000000000000000000000000000000000000815260040161299b90615462565b60405180910390fd5b600660008473ffffffffffffffffffffffffffffffffffffffff1673ffffffffffffffffffffffffffffffffffffffff16815260200190815260200160002060009054906101000a900460ff16158015612a485750600660008373ffffffffffffffffffffffffffffffffffffffff1673ffffffffffffffffffffffffffffffffffffffff16815260200190815260200160002060009054906101000a900460ff16155b612a87576040517f08c379a0000000000000000000000000000000000000000000000000000000008152600401612a7e906154ce565b60405180910390fd5b600460008473ffffffffffffffffffffffffffffffffffffffff1673ffffffffffffffffffffffffffffffffffffffff16815260200190815260200160002060009054906101000a900460ff16158015612b2b5750600460008373ffffffffffffffffffffffffffffffffffffffff1673ffffffffffffffffffffffffffffffffffffffff16815260200190815260200160002060009054906101000a900460ff16155b15612bc557600860019054906101000a900460ff16612b7f576040517f08c379a0000000000000000000000000000000000000000000000000000000008152600401612b769061553a565b60405180910390fd5b600d54811115612bc4576040517f08c379a0000000000000000000000000000000000000000000000000000000008152600401612bbb906155a6565b60405180910390fd5b5b600460008473ffffffffffffffffffffffffffffffffffffffff1673ffffffffffffffffffffffffffffffffffffffff16815260200190815260200160002060009054906101000a900460ff16158015612c695750600460008373ffffffffffffffffffffffffffffffffffffffff1673ffffffffffffffffffffffffffffffffffffffff16815260200190815260200160002060009054906101000a900460ff16155b8015612cc35750600960009054906101000a900473ffffffffffffffffffffffffffffffffffffffff1673ffffffffffffffffffffffffffffffffffffffff168273ffffffffffffffffffffffffffffffffffffffff1614155b15612d2157600e5481612cd584611cb3565b612cdf9190614ded565b1115612d20576040517f08c379a0000000000000000000000000000000000000000000000000000000008152600401612d1790615638565b60405180910390fd5b5b6000600c54612d2f30611cb3565b10159050600860029054906101000a900460ff16158015612d5c5750600860009054906101000a900460ff165b8015612d655750805b8015612dbf5750600960009054906101000a900473ffffffffffffffffffffffffffffffffffffffff1673ffffffffffffffffffffffffffffffffffffffff168473ffffffffffffffffffffffffffffffffffffffff1614155b8015612e155750600460008573ffffffffffffffffffffffffffffffffffffffff1673ffffffffffffffffffffffffffffffffffffffff16815260200190815260200160002060009054906101000a900460ff16155b8015612e6b5750600460008473ffffffffffffffffffffffffffffffffffffffff1673ffffffffffffffffffffffffffffffffffffffff16815260200190815260200160002060009054906101000a900460ff16155b15612e7c57612e7b600c54613073565b5b612f29848484600460008973ffffffffffffffffffffffffffffffffffffffff1673ffffffffffffffffffffffffffffffffffffffff16815260200190815260200160002060009054906101000a900460ff1680612f235750600460008873ffffffffffffffffffffffffffffffffffffffff1673ffffffffffffffffffffffffffffffffffffffff16815260200190815260200160002060009054906101000a900460ff165b156131e7565b50505050565b6000806000612f3c613732565b915091508082612f4c9190614caa565b9250505090565b60008060009054906101000a900473ffffffffffffffffffffffffffffffffffffffff169050816000806101000a81548173ffffffffffffffffffffffffffffffffffffffff021916908373ffffffffffffffffffffffffffffffffffffffff1602179055508173ffffffffffffffffffffffffffffffffffffffff168173ffffffffffffffffffffffffffffffffffffffff167f8be0079c531659141344cd1fd0a4f28419497f9722a3daafe3b4186f6b6457e060405160405180910390a35050565b61301f614279565b61302a8484846139d0565b905061303f81858561303a612f2f565b613b4e565b8560000186602001876040018860600189608001858152508581525085815250858152508581525050505050509392505050565b6001600860026101000a81548160ff021916908315150217905550600060026016600101546016600201546130a89190614ded565b6130b29190614a5d565b9050600081601660020154846130c89190614a5d565b6130d29190614caa565b9050600081846130e29190614b49565b905060004790506130f282613be6565b600081476131009190614b49565b90506000601660020154866131159190614b49565b826131209190614caa565b90506000601660020154826131359190614a5d565b9050600081111561314b5761314a8682613e29565b5b60006016600101546002846131609190614a5d565b61316a9190614a5d565b905060008111156131c1576131c081600f60009054906101000a900473ffffffffffffffffffffffffffffffffffffffff1673ffffffffffffffffffffffffffffffffffffffff16613f0e90919063ffffffff16565b5b50505050505050506000600860026101000a81548160ff02191690831515021790555050565b6000600960009054906101000a900473ffffffffffffffffffffffffffffffffffffffff1673ffffffffffffffffffffffffffffffffffffffff168573ffffffffffffffffffffffffffffffffffffffff160361324757600190506132a2565b600960009054906101000a900473ffffffffffffffffffffffffffffffffffffffff1673ffffffffffffffffffffffffffffffffffffffff168473ffffffffffffffffffffffffffffffffffffffff16036132a157600290505b5b60006132af848484613017565b9050600560008773ffffffffffffffffffffffffffffffffffffffff1673ffffffffffffffffffffffffffffffffffffffff16815260200190815260200160002060009054906101000a900460ff16156133925783600260008873ffffffffffffffffffffffffffffffffffffffff1673ffffffffffffffffffffffffffffffffffffffff1681526020019081526020016000205461334e9190614b49565b600260008873ffffffffffffffffffffffffffffffffffffffff1673ffffffffffffffffffffffffffffffffffffffff168152602001908152602001600020819055505b600560008673ffffffffffffffffffffffffffffffffffffffff1673ffffffffffffffffffffffffffffffffffffffff16815260200190815260200160002060009054906101000a900460ff1615613477578060a00151600260008773ffffffffffffffffffffffffffffffffffffffff1673ffffffffffffffffffffffffffffffffffffffff168152602001908152602001600020546134339190614ded565b600260008773ffffffffffffffffffffffffffffffffffffffff1673ffffffffffffffffffffffffffffffffffffffff168152602001908152602001600020819055505b8060000151600160008873ffffffffffffffffffffffffffffffffffffffff1673ffffffffffffffffffffffffffffffffffffffff168152602001908152602001600020546134c69190614b49565b600160008873ffffffffffffffffffffffffffffffffffffffff1673ffffffffffffffffffffffffffffffffffffffff168152602001908152602001600020819055508060200151600160008773ffffffffffffffffffffffffffffffffffffffff1673ffffffffffffffffffffffffffffffffffffffff168152602001908152602001600020546135589190614ded565b600160008773ffffffffffffffffffffffffffffffffffffffff1673ffffffffffffffffffffffffffffffffffffffff168152602001908152602001600020819055506000816040015111806135b2575060008160c00151115b156135ca576135c981604001518260c00151614002565b5b6000816080015111806135e257506000816101000151115b156135fb576135fa816080015182610100015161403b565b5b600081606001511180613612575060008160e00151115b1561362a5761362981606001518260e0015161415a565b5b8473ffffffffffffffffffffffffffffffffffffffff168673ffffffffffffffffffffffffffffffffffffffff167fddf252ad1be2c89b69c2b068fc378daa952ba7f163c4a11628f55a4df523b3ef8360a0015160405161368b919061457e565b60405180910390a360008160e001518261010001516136aa9190614ded565b111561372a573073ffffffffffffffffffffffffffffffffffffffff168673ffffffffffffffffffffffffffffffffffffffff167fddf252ad1be2c89b69c2b068fc378daa952ba7f163c4a11628f55a4df523b3ef8360e001518461010001516137149190614ded565b604051613721919061457e565b60405180910390a35b505050505050565b6000806000600b5490506000600a54905060005b60078054905081101561399a5782600160006007848154811061376c5761376b614d47565b5b9060005260206000200160009054906101000a900473ffffffffffffffffffffffffffffffffffffffff1673ffffffffffffffffffffffffffffffffffffffff1673ffffffffffffffffffffffffffffffffffffffff16815260200190815260200160002054118061385a57508160026000600784815481106137f2576137f1614d47565b5b9060005260206000200160009054906101000a900473ffffffffffffffffffffffffffffffffffffffff1673ffffffffffffffffffffffffffffffffffffffff1673ffffffffffffffffffffffffffffffffffffffff16815260200190815260200160002054115b1561387157600b54600a54945094505050506139cc565b600160006007838154811061388957613888614d47565b5b9060005260206000200160009054906101000a900473ffffffffffffffffffffffffffffffffffffffff1673ffffffffffffffffffffffffffffffffffffffff1673ffffffffffffffffffffffffffffffffffffffff16815260200190815260200160002054836138fa9190614b49565b9250600260006007838154811061391457613913614d47565b5b9060005260206000200160009054906101000a900473ffffffffffffffffffffffffffffffffffffffff1673ffffffffffffffffffffffffffffffffffffffff1673ffffffffffffffffffffffffffffffffffffffff16815260200190815260200160002054826139859190614b49565b9150808061399290614da5565b915050613746565b50600a54600b546139ab9190614caa565b8210156139c357600b54600a549350935050506139cc565b81819350935050505b9091565b6139d8614279565b826139ec57838160a0018181525050613b47565b6139f46142c5565b60008360ff1603613a3157601060405180606001604052908160008201548152602001600182015481526020016002820154815250509050613a9d565b60018360ff1603613a6e57601360405180606001604052908160008201548152602001600182015481526020016002820154815250509050613a9c565b6016604051806060016040529081600082015481526020016001820154815260200160028201548152505090505b5b6064816000015186613aaf9190614a5d565b613ab99190614caa565b8260c00181815250506064816020015186613ad49190614a5d565b613ade9190614caa565b8260e00181815250506064816040015186613af99190614a5d565b613b039190614caa565b826101000181815250508161010001518260e001518360c0015187613b289190614b49565b613b329190614b49565b613b3c9190614b49565b8260a0018181525050505b9392505050565b60008060008060008588613b629190614a5d565b945086613b7f578485600080600094509450945094509450613bdb565b858960c00151613b8f9190614a5d565b9250858960e00151613ba19190614a5d565b915085896101000151613bb49190614a5d565b905080828487613bc49190614b49565b613bce9190614b49565b613bd89190614b49565b93505b945094509450945094565b6000600267ffffffffffffffff811115613c0357613c02615658565b5b604051908082528060200260200182016040528015613c315781602001602082028036833780820191505090505b5090503081600081518110613c4957613c48614d47565b5b602002602001019073ffffffffffffffffffffffffffffffffffffffff16908173ffffffffffffffffffffffffffffffffffffffff1681525050600860039054906101000a900473ffffffffffffffffffffffffffffffffffffffff1673ffffffffffffffffffffffffffffffffffffffff1663ad5c46486040518163ffffffff1660e01b8152600401602060405180830381865afa158015613cf0573d6000803e3d6000fd5b505050506040513d601f19601f82011682018060405250810190613d14919061569c565b81600181518110613d2857613d27614d47565b5b602002602001019073ffffffffffffffffffffffffffffffffffffffff16908173ffffffffffffffffffffffffffffffffffffffff1681525050613d8f30600860039054906101000a900473ffffffffffffffffffffffffffffffffffffffff168461266f565b600860039054906101000a900473ffffffffffffffffffffffffffffffffffffffff1673ffffffffffffffffffffffffffffffffffffffff1663791ac9478360008430426040518663ffffffff1660e01b8152600401613df39594939291906157c2565b600060405180830381600087803b158015613e0d57600080fd5b505af1158015613e21573d6000803e3d6000fd5b505050505050565b613e5630600860039054906101000a900473ffffffffffffffffffffffffffffffffffffffff168461266f565b600860039054906101000a900473ffffffffffffffffffffffffffffffffffffffff1673ffffffffffffffffffffffffffffffffffffffff1663f305d719823085600080613ea2611f7f565b426040518863ffffffff1660e01b8152600401613ec49695949392919061581c565b60606040518083038185885af1158015613ee2573d6000803e3d6000fd5b50505050506040513d601f19601f82011682018060405250810190613f079190615892565b5050505050565b80471015613f51576040517f08c379a0000000000000000000000000000000000000000000000000000000008152600401613f4890615931565b60405180910390fd5b60008273ffffffffffffffffffffffffffffffffffffffff1682604051613f7790615982565b60006040518083038185875af1925050503d8060008114613fb4576040519150601f19603f3d011682016040523d82523d6000602084013e613fb9565b606091505b5050905080613ffd576040517f08c379a0000000000000000000000000000000000000000000000000000000008152600401613ff490615a09565b60405180910390fd5b505050565b81600b60008282546140149190614b49565b9250508190555080601960000160008282546140309190614ded565b925050819055505050565b80601960020160008282546140509190614ded565b92505081905550600560003073ffffffffffffffffffffffffffffffffffffffff1673ffffffffffffffffffffffffffffffffffffffff16815260200190815260200160002060009054906101000a900460ff16156141005780600260003073ffffffffffffffffffffffffffffffffffffffff1673ffffffffffffffffffffffffffffffffffffffff16815260200190815260200160002060008282546140f89190614ded565b925050819055505b81600160003073ffffffffffffffffffffffffffffffffffffffff1673ffffffffffffffffffffffffffffffffffffffff168152602001908152602001600020600082825461414f9190614ded565b925050819055505050565b806019600101600082825461416f9190614ded565b92505081905550600560003073ffffffffffffffffffffffffffffffffffffffff1673ffffffffffffffffffffffffffffffffffffffff16815260200190815260200160002060009054906101000a900460ff161561421f5780600260003073ffffffffffffffffffffffffffffffffffffffff1673ffffffffffffffffffffffffffffffffffffffff16815260200190815260200160002060008282546142179190614ded565b925050819055505b81600160003073ffffffffffffffffffffffffffffffffffffffff1673ffffffffffffffffffffffffffffffffffffffff168152602001908152602001600020600082825461426e9190614ded565b925050819055505050565b6040518061012001604052806000815260200160008152602001600081526020016000815260200160008152602001600081526020016000815260200160008152602001600081525090565b60405180606001604052806000815260200160008152602001600081525090565b600080fd5b600073ffffffffffffffffffffffffffffffffffffffff82169050919050565b6000614316826142eb565b9050919050565b6143268161430b565b811461433157600080fd5b50565b6000813590506143438161431d565b92915050565b60008115159050919050565b61435e81614349565b811461436957600080fd5b50565b60008135905061437b81614355565b92915050565b60008060408385031215614398576143976142e6565b5b60006143a685828601614334565b92505060206143b78582860161436c565b9150509250929050565b600081519050919050565b600082825260208201905092915050565b60005b838110156143fb5780820151818401526020810190506143e0565b8381111561440a576000848401525b50505050565b6000601f19601f8301169050919050565b600061442c826143c1565b61443681856143cc565b93506144468185602086016143dd565b61444f81614410565b840191505092915050565b600060208201905081810360008301526144748184614421565b905092915050565b6000819050919050565b61448f8161447c565b811461449a57600080fd5b50565b6000813590506144ac81614486565b92915050565b6000806000606084860312156144cb576144ca6142e6565b5b60006144d98682870161449d565b93505060206144ea8682870161449d565b92505060406144fb8682870161449d565b9150509250925092565b6000806040838503121561451c5761451b6142e6565b5b600061452a85828601614334565b925050602061453b8582860161449d565b9150509250929050565b61454e81614349565b82525050565b60006020820190506145696000830184614545565b92915050565b6145788161447c565b82525050565b6000602082019050614593600083018461456f565b92915050565b6000602082840312156145af576145ae6142e6565b5b60006145bd8482850161449d565b91505092915050565b6000806000606084860312156145df576145de6142e6565b5b60006145ed86828701614334565b93505060206145fe86828701614334565b925050604061460f8682870161449d565b9150509250925092565b600060ff82169050919050565b61462f81614619565b82525050565b600060208201905061464a6000830184614626565b92915050565b600060208284031215614666576146656142e6565b5b600061467484828501614334565b91505092915050565b60008060408385031215614694576146936142e6565b5b60006146a285828601614334565b92505060206146b385828601614334565b9150509250929050565b60006060820190506146d2600083018661456f565b6146df602083018561456f565b6146ec604083018461456f565b949350505050565b6146fd8161430b565b82525050565b600060208201905061471860008301846146f4565b92915050565b600060208284031215614734576147336142e6565b5b60006147428482850161436c565b91505092915050565b61475481614619565b811461475f57600080fd5b50565b6000813590506147718161474b565b92915050565b6000806000606084860312156147905761478f6142e6565b5b600061479e8682870161449d565b93505060206147af8682870161436c565b92505060406147c086828701614762565b9150509250925092565b6000819050919050565b60006147ef6147ea6147e5846142eb565b6147ca565b6142eb565b9050919050565b6000614801826147d4565b9050919050565b6000614813826147f6565b9050919050565b61482381614808565b82525050565b600060208201905061483e600083018461481a565b92915050565b7f4f776e61626c653a2063616c6c6572206973206e6f7420746865206f776e6572600082015250565b600061487a6020836143cc565b915061488582614844565b602082019050919050565b600060208201905081810360008301526148a98161486d565b9050919050565b7f4e487b7100000000000000000000000000000000000000000000000000000000600052601160045260246000fd5b60008160011c9050919050565b6000808291508390505b600185111561493657808604811115614912576149116148b0565b5b60018516156149215780820291505b808102905061492f856148df565b94506148f6565b94509492505050565b60008261494f5760019050614a0b565b8161495d5760009050614a0b565b8160018114614973576002811461497d576149ac565b6001915050614a0b565b60ff84111561498f5761498e6148b0565b5b8360020a9150848211156149a6576149a56148b0565b5b50614a0b565b5060208310610133831016604e8410600b84101617156149e15782820a9050838111156149dc576149db6148b0565b5b614a0b565b6149ee84848460016148ec565b92509050818404811115614a0557614a046148b0565b5b81810290505b9392505050565b6000614a1d8261447c565b9150614a2883614619565b9250614a557fffffffffffffffffffffffffffffffffffffffffffffffffffffffffffffffff848461493f565b905092915050565b6000614a688261447c565b9150614a738361447c565b9250817fffffffffffffffffffffffffffffffffffffffffffffffffffffffffffffffff0483118215151615614aac57614aab6148b0565b5b828202905092915050565b7f45524332303a207472616e7366657220616d6f756e742065786365656473206160008201527f6c6c6f77616e6365000000000000000000000000000000000000000000000000602082015250565b6000614b136028836143cc565b9150614b1e82614ab7565b604082019050919050565b60006020820190508181036000830152614b4281614b06565b9050919050565b6000614b548261447c565b9150614b5f8361447c565b925082821015614b7257614b716148b0565b5b828203905092915050565b7f54726164696e6720616c72656164792061637469766500000000000000000000600082015250565b6000614bb36016836143cc565b9150614bbe82614b7d565b602082019050919050565b60006020820190508181036000830152614be281614ba6565b9050919050565b7f416d6f756e74206d757374206265206c657373207468616e20746f74616c207260008201527f65666c656374696f6e7300000000000000000000000000000000000000000000602082015250565b6000614c45602a836143cc565b9150614c5082614be9565b604082019050919050565b60006020820190508181036000830152614c7481614c38565b9050919050565b7f4e487b7100000000000000000000000000000000000000000000000000000000600052601260045260246000fd5b6000614cb58261447c565b9150614cc08361447c565b925082614cd057614ccf614c7b565b5b828204905092915050565b7f4163636f756e74206973206e6f74206578636c75646564000000000000000000600082015250565b6000614d116017836143cc565b9150614d1c82614cdb565b602082019050919050565b60006020820190508181036000830152614d4081614d04565b9050919050565b7f4e487b7100000000000000000000000000000000000000000000000000000000600052603260045260246000fd5b7f4e487b7100000000000000000000000000000000000000000000000000000000600052603160045260246000fd5b6000614db08261447c565b91507fffffffffffffffffffffffffffffffffffffffffffffffffffffffffffffffff8203614de257614de16148b0565b5b600182019050919050565b6000614df88261447c565b9150614e038361447c565b9250827fffffffffffffffffffffffffffffffffffffffffffffffffffffffffffffffff03821115614e3857614e376148b0565b5b828201905092915050565b7f696e73756666696369656e7420424e422062616c616e63650000000000000000600082015250565b6000614e796018836143cc565b9150614e8482614e43565b602082019050919050565b60006020820190508181036000830152614ea881614e6c565b9050919050565b6000604082019050614ec460008301856146f4565b614ed1602083018461456f565b9392505050565b600081519050614ee781614355565b92915050565b600060208284031215614f0357614f026142e6565b5b6000614f1184828501614ed8565b91505092915050565b7f4163636f756e7420697320616c7265616479206578636c756465640000000000600082015250565b6000614f50601b836143cc565b9150614f5b82614f1a565b602082019050919050565b60006020820190508181036000830152614f7f81614f43565b9050919050565b7f45524332303a2064656372656173656420616c6c6f77616e63652062656c6f7760008201527f207a65726f000000000000000000000000000000000000000000000000000000602082015250565b6000614fe26025836143cc565b9150614fed82614f86565b604082019050919050565b6000602082019050818103600083015261501181614fd5565b9050919050565b7f416d6f756e74206d757374206265206c657373207468616e20737570706c7900600082015250565b600061504e601f836143cc565b915061505982615018565b602082019050919050565b6000602082019050818103600083015261507d81615041565b9050919050565b7f4f776e61626c653a206e6577206f776e657220697320746865207a65726f206160008201527f6464726573730000000000000000000000000000000000000000000000000000602082015250565b60006150e06026836143cc565b91506150eb82615084565b604082019050919050565b6000602082019050818103600083015261510f816150d3565b9050919050565b7f45524332303a20617070726f76652066726f6d20746865207a65726f2061646460008201527f7265737300000000000000000000000000000000000000000000000000000000602082015250565b60006151726024836143cc565b915061517d82615116565b604082019050919050565b600060208201905081810360008301526151a181615165565b9050919050565b7f45524332303a20617070726f766520746f20746865207a65726f20616464726560008201527f7373000000000000000000000000000000000000000000000000000000000000602082015250565b60006152046022836143cc565b915061520f826151a8565b604082019050919050565b60006020820190508181036000830152615233816151f7565b9050919050565b7f45524332303a207472616e736665722066726f6d20746865207a65726f20616460008201527f6472657373000000000000000000000000000000000000000000000000000000602082015250565b60006152966025836143cc565b91506152a18261523a565b604082019050919050565b600060208201905081810360008301526152c581615289565b9050919050565b7f45524332303a207472616e7366657220746f20746865207a65726f206164647260008201527f6573730000000000000000000000000000000000000000000000000000000000602082015250565b60006153286023836143cc565b9150615333826152cc565b604082019050919050565b600060208201905081810360008301526153578161531b565b9050919050565b7f5472616e7366657220616d6f756e74206d75737420626520677265617465722060008201527f7468616e207a65726f0000000000000000000000000000000000000000000000602082015250565b60006153ba6029836143cc565b91506153c58261535e565b604082019050919050565b600060208201905081810360008301526153e9816153ad565b9050919050565b7f596f752061726520747279696e6720746f207472616e73666572206d6f72652060008201527f7468616e20796f75722062616c616e6365000000000000000000000000000000602082015250565b600061544c6031836143cc565b9150615457826153f0565b604082019050919050565b6000602082019050818103600083015261547b8161543f565b9050919050565b7f596f752061726520626c61636b6c697374656400000000000000000000000000600082015250565b60006154b86013836143cc565b91506154c382615482565b602082019050919050565b600060208201905081810360008301526154e7816154ab565b9050919050565b7f54726164696e67206e6f74206163746976650000000000000000000000000000600082015250565b60006155246012836143cc565b915061552f826154ee565b602082019050919050565b6000602082019050818103600083015261555381615517565b9050919050565b7f416d6f756e7420697320657863656564696e67206d61785478416d6f756e7400600082015250565b6000615590601f836143cc565b915061559b8261555a565b602082019050919050565b600060208201905081810360008301526155bf81615583565b9050919050565b7f596f752061726520657863656564696e67206d617857616c6c6574416d6f756e60008201527f7400000000000000000000000000000000000000000000000000000000000000602082015250565b60006156226021836143cc565b915061562d826155c6565b604082019050919050565b6000602082019050818103600083015261565181615615565b9050919050565b7f4e487b7100000000000000000000000000000000000000000000000000000000600052604160045260246000fd5b6000815190506156968161431d565b92915050565b6000602082840312156156b2576156b16142e6565b5b60006156c084828501615687565b91505092915050565b6000819050919050565b60006156ee6156e96156e4846156c9565b6147ca565b61447c565b9050919050565b6156fe816156d3565b82525050565b600081519050919050565b600082825260208201905092915050565b6000819050602082019050919050565b6157398161430b565b82525050565b600061574b8383615730565b60208301905092915050565b6000602082019050919050565b600061576f82615704565b615779818561570f565b935061578483615720565b8060005b838110156157b557815161579c888261573f565b97506157a783615757565b925050600181019050615788565b5085935050505092915050565b600060a0820190506157d7600083018861456f565b6157e460208301876156f5565b81810360408301526157f68186615764565b905061580560608301856146f4565b615812608083018461456f565b9695505050505050565b600060c08201905061583160008301896146f4565b61583e602083018861456f565b61584b60408301876156f5565b61585860608301866156f5565b61586560808301856146f4565b61587260a083018461456f565b979650505050505050565b60008151905061588c81614486565b92915050565b6000806000606084860312156158ab576158aa6142e6565b5b60006158b98682870161587d565b93505060206158ca8682870161587d565b92505060406158db8682870161587d565b9150509250925092565b7f416464726573733a20696e73756666696369656e742062616c616e6365000000600082015250565b600061591b601d836143cc565b9150615926826158e5565b602082019050919050565b6000602082019050818103600083015261594a8161590e565b9050919050565b600081905092915050565b50565b600061596c600083615951565b91506159778261595c565b600082019050919050565b600061598d8261595f565b9150819050919050565b7f416464726573733a20756e61626c6520746f2073656e642076616c75652c207260008201527f6563697069656e74206d61792068617665207265766572746564000000000000602082015250565b60006159f3603a836143cc565b91506159fe82615997565b604082019050919050565b60006020820190508181036000830152615a22816159e6565b905091905056fea2646970667358221220ad7a983020de3f798b4ee946e82c947e6d30016540d2a0090a9cd0f143ee1ed364736f6c634300080d0033",
  "immutableReferences": {},
  "source": "// SPDX-License-Identifier: MIT\r\npragma solidity ^0.8.10;\r\n\r\nimport \"@openzeppelin/contracts/token/ERC20/IERC20.sol\";\r\nimport \"@openzeppelin/contracts/access/Ownable.sol\";\r\nimport \"@openzeppelin/contracts/utils/Address.sol\";\r\n\r\ninterface IFactory{\r\n        function createPair(address tokenA, address tokenB) external returns (address pair);\r\n}\r\n\r\ninterface IRouter {\r\n    function factory() external pure returns (address);\r\n    function WETH() external pure returns (address);\r\n    function addLiquidityETH(\r\n        address token,\r\n        uint amountTokenDesired,\r\n        uint amountTokenMin,\r\n        uint amountETHMin,\r\n        address to,\r\n        uint deadline\r\n    ) external payable returns (uint amountToken, uint amountETH, uint liquidity);\r\n\r\n    function swapExactTokensForETHSupportingFeeOnTransferTokens(\r\n        uint amountIn,\r\n        uint amountOutMin,\r\n        address[] calldata path,\r\n        address to,\r\n        uint deadline) external;\r\n}\r\n\r\ncontract Sugarland is Context, IERC20, Ownable {\r\n    using Address for address payable;\r\n\r\n    mapping (address => uint256) private _rOwned;\r\n    mapping (address => uint256) private _tOwned;\r\n    mapping (address => mapping (address => uint256)) private _allowances;\r\n    mapping (address => bool) private _isExcludedFromFee;\r\n    mapping (address => bool) private _isExcluded;\r\n    mapping (address => bool) public isBot;\r\n\r\n    address[] private _excluded;\r\n    \r\n    bool public swapEnabled;\r\n    bool public tradingActive;\r\n    bool private swapping;\r\n\r\n    IRouter public router;\r\n    address public pair;\r\n\r\n    uint8 private constant _decimals = 9;\r\n    uint256 private constant MAX = ~uint256(0);\r\n\r\n    uint256 private _tTotal = 1_000_000_000 * 10**_decimals;\r\n    uint256 private _rTotal = (MAX - (MAX % _tTotal));\r\n    \r\n    uint256 public swapTokensAtAmount = 500_000 * 10**_decimals;\r\n    uint256 public maxTxAmount = 10_000_000 * 10**_decimals;\r\n    uint256 public maxWalletAmount = 20_000_000 * 10**_decimals;\r\n    \r\n    address public marketingWallet;\r\n\r\n    string private constant _name = \"Sugarland\";\r\n    string private constant _symbol = \"Sugar\";\r\n\r\n    struct Taxes {\r\n      uint256 rfi;\r\n      uint256 marketing;\r\n      uint256 liquidity;\r\n    }\r\n    Taxes public transferTaxes = Taxes(3,5,4);\r\n    Taxes public buyTaxes = Taxes(3,5,4);\r\n    Taxes public sellTaxes = Taxes(3,5,4);\r\n\r\n    struct TotFeesPaidStruct{\r\n        uint256 rfi;\r\n        uint256 marketing;\r\n        uint256 liquidity;\r\n    }\r\n    TotFeesPaidStruct public totFeesPaid;\r\n\r\n    struct valuesFromGetValues{\r\n      uint256 rAmount;\r\n      uint256 rTransferAmount;\r\n      uint256 rRfi;\r\n      uint256 rMarketing;\r\n      uint256 rLiquidity;\r\n      uint256 tTransferAmount;\r\n      uint256 tRfi;\r\n      uint256 tMarketing;\r\n      uint256 tLiquidity;\r\n    }\r\n\r\n    modifier lockTheSwap {\r\n        swapping = true;\r\n        _;\r\n        swapping = false;\r\n    }\r\n\r\n    constructor() {\r\n        IRouter _router = IRouter(0x10ED43C718714eb63d5aA57B78B54704E256024E);\r\n        address _pair = address(this);\r\n\r\n        router = _router;\r\n        pair = _pair;\r\n        \r\n        excludeFromReward(pair);\r\n\r\n        _rOwned[owner()] = _rTotal;\r\n        _isExcludedFromFee[owner()] = true;\r\n        _isExcludedFromFee[address(this)] = true;\r\n        _isExcludedFromFee[marketingWallet]=true;\r\n\r\n        emit Transfer(address(0), owner(), _tTotal);\r\n    }\r\n\r\n    function name() public pure returns (string memory) {\r\n        return _name;\r\n    }\r\n    function symbol() public pure returns (string memory) {\r\n        return _symbol;\r\n    }\r\n    function decimals() public pure returns (uint8) {\r\n        return _decimals;\r\n    }\r\n\r\n    function totalSupply() public view override returns (uint256) {\r\n        return _tTotal;\r\n    }\r\n\r\n    function balanceOf(address account) public view override returns (uint256) {\r\n        if (_isExcluded[account]) return _tOwned[account];\r\n        return tokenFromReflection(_rOwned[account]);\r\n    }\r\n\r\n    function transfer(address recipient, uint256 amount) public override returns (bool) {\r\n        _transfer(_msgSender(), recipient, amount);\r\n        return true;\r\n    }\r\n\r\n    function allowance(address owner, address spender) public view override returns (uint256) {\r\n        return _allowances[owner][spender];\r\n    }\r\n\r\n    function approve(address spender, uint256 amount) public override returns (bool) {\r\n        _approve(_msgSender(), spender, amount);\r\n        return true;\r\n    }\r\n\r\n    function transferFrom(address sender, address recipient, uint256 amount) public virtual override returns (bool) {\r\n        _transfer(sender, recipient, amount);\r\n\r\n        uint256 currentAllowance = _allowances[sender][_msgSender()];\r\n        require(currentAllowance >= amount, \"ERC20: transfer amount exceeds allowance\");\r\n        _approve(sender, _msgSender(), currentAllowance - amount);\r\n\r\n        return true;\r\n    }\r\n\r\n    function increaseAllowance(address spender, uint256 addedValue) public virtual returns (bool) {\r\n        _approve(_msgSender(), spender, _allowances[_msgSender()][spender] + addedValue);\r\n        return true;\r\n    }\r\n\r\n    function decreaseAllowance(address spender, uint256 subtractedValue) public virtual returns (bool) {\r\n        uint256 currentAllowance = _allowances[_msgSender()][spender];\r\n        require(currentAllowance >= subtractedValue, \"ERC20: decreased allowance below zero\");\r\n        _approve(_msgSender(), spender, currentAllowance - subtractedValue);\r\n\r\n        return true;\r\n    }\r\n\r\n    function isExcludedFromReward(address account) public view returns (bool) {\r\n        return _isExcluded[account];\r\n    }\r\n\r\n    function reflectionFromToken(uint256 tAmount, bool deductTransferRfi, uint8 code) public view returns(uint256) {\r\n        require(tAmount <= _tTotal, \"Amount must be less than supply\");\r\n        if (!deductTransferRfi) {\r\n            valuesFromGetValues memory s = _getValues(tAmount, true, code);\r\n            return s.rAmount;\r\n        } else {\r\n            valuesFromGetValues memory s = _getValues(tAmount, true, code);\r\n            return s.rTransferAmount;\r\n        }\r\n    }\r\n\r\n    function tokenFromReflection(uint256 rAmount) public view returns(uint256) {\r\n        require(rAmount <= _rTotal, \"Amount must be less than total reflections\");\r\n        uint256 currentRate =  _getRate();\r\n        return rAmount/currentRate;\r\n    }\r\n\r\n    function excludeFromReward(address account) public onlyOwner() {\r\n        require(!_isExcluded[account], \"Account is already excluded\");\r\n        if(_rOwned[account] > 0) {\r\n            _tOwned[account] = tokenFromReflection(_rOwned[account]);\r\n        }\r\n        _isExcluded[account] = true;\r\n        _excluded.push(account);\r\n    }\r\n\r\n    function includeInReward(address account) external onlyOwner() {\r\n        require(_isExcluded[account], \"Account is not excluded\");\r\n        for (uint256 i = 0; i < _excluded.length; i++) {\r\n            if (_excluded[i] == account) {\r\n                _excluded[i] = _excluded[_excluded.length - 1];\r\n                _tOwned[account] = 0;\r\n                _isExcluded[account] = false;\r\n                _excluded.pop();\r\n                break;\r\n            }\r\n        }\r\n    }\r\n\r\n\r\n    function excludeFromFee(address account) public onlyOwner {\r\n        _isExcludedFromFee[account] = true;\r\n    }\r\n\r\n    function includeInFee(address account) public onlyOwner {\r\n        _isExcludedFromFee[account] = false;\r\n    }\r\n\r\n\r\n    function isExcludedFromFee(address account) public view returns(bool) {\r\n        return _isExcludedFromFee[account];\r\n    }\r\n\r\n    function setTransferTaxes(uint256 _rfi, uint256 _marketing, uint256 _liquidity) public onlyOwner {\r\n        transferTaxes = Taxes(_rfi, _marketing, _liquidity);\r\n    }\r\n    function setBuyTaxes(uint256 _rfi, uint256 _marketing, uint256 _liquidity) public onlyOwner {\r\n        buyTaxes = Taxes(_rfi, _marketing, _liquidity);\r\n    }\r\n    function setSellTaxes(uint256 _rfi, uint256 _marketing, uint256 _liquidity) public onlyOwner {\r\n        sellTaxes = Taxes(_rfi, _marketing, _liquidity);\r\n    }\r\n\r\n    function _reflectRfi(uint256 rRfi, uint256 tRfi) private {\r\n        _rTotal -=rRfi;\r\n        totFeesPaid.rfi +=tRfi;\r\n    }\r\n\r\n    function _takeLiquidity(uint256 rLiquidity, uint256 tLiquidity) private {\r\n        totFeesPaid.liquidity +=tLiquidity;\r\n\r\n        if(_isExcluded[address(this)])\r\n        {\r\n            _tOwned[address(this)]+=tLiquidity;\r\n        }\r\n        _rOwned[address(this)] +=rLiquidity;\r\n    }\r\n\r\n    function _takeMarketing(uint256 rMarketing, uint256 tMarketing) private {\r\n        totFeesPaid.marketing +=tMarketing;\r\n\r\n        if(_isExcluded[address(this)])\r\n        {\r\n            _tOwned[address(this)]+=tMarketing;\r\n        }\r\n        _rOwned[address(this)] +=rMarketing;\r\n    }\r\n    \r\n    function _getValues(uint256 tAmount, bool takeFee, uint8 code) private view returns (valuesFromGetValues memory to_return) {\r\n        to_return = _getTValues(tAmount, takeFee, code);\r\n        (to_return.rAmount, to_return.rTransferAmount, to_return.rRfi, to_return.rMarketing, to_return.rLiquidity) = _getRValues(to_return, tAmount, takeFee, _getRate());\r\n        return to_return;\r\n    }\r\n\r\n    function _getTValues(uint256 tAmount, bool takeFee, uint8 code) private view returns (valuesFromGetValues memory s) {\r\n\r\n        if(!takeFee) {\r\n          s.tTransferAmount = tAmount;\r\n          return s;\r\n        }\r\n        Taxes memory temp;\r\n        if(code == 0) temp = transferTaxes;\r\n        else if(code == 1) temp = buyTaxes;\r\n        else temp = sellTaxes;\r\n        s.tRfi = tAmount*temp.rfi/100;\r\n        s.tMarketing = tAmount*temp.marketing/100;\r\n        s.tLiquidity = tAmount*temp.liquidity/100;\r\n        s.tTransferAmount = tAmount-s.tRfi-s.tMarketing-s.tLiquidity;\r\n        return s;\r\n    }\r\n\r\n    function _getRValues(valuesFromGetValues memory s, uint256 tAmount, bool takeFee, uint256 currentRate) private pure returns (uint256 rAmount, uint256 rTransferAmount, uint256 rRfi, uint256 rMarketing, uint256 rLiquidity) {\r\n        rAmount = tAmount*currentRate;\r\n\r\n        if(!takeFee) {\r\n          return(rAmount, rAmount, 0,0,0);\r\n        }\r\n\r\n        rRfi = s.tRfi*currentRate;\r\n        rMarketing = s.tMarketing*currentRate;\r\n        rLiquidity = s.tLiquidity*currentRate;\r\n        rTransferAmount =  rAmount-rRfi-rMarketing-rLiquidity;\r\n        return (rAmount, rTransferAmount, rRfi,rMarketing,rLiquidity);\r\n    }\r\n\r\n    function _getRate() private view returns(uint256) {\r\n        (uint256 rSupply, uint256 tSupply) = _getCurrentSupply();\r\n        return rSupply/tSupply;\r\n    }\r\n\r\n    function _getCurrentSupply() private view returns(uint256, uint256) {\r\n        uint256 rSupply = _rTotal;\r\n        uint256 tSupply = _tTotal;\r\n        for (uint256 i = 0; i < _excluded.length; i++) {\r\n            if (_rOwned[_excluded[i]] > rSupply || _tOwned[_excluded[i]] > tSupply) return (_rTotal, _tTotal);\r\n            rSupply = rSupply-_rOwned[_excluded[i]];\r\n            tSupply = tSupply-_tOwned[_excluded[i]];\r\n        }\r\n        if (rSupply < _rTotal/_tTotal) return (_rTotal, _tTotal);\r\n        return (rSupply, tSupply);\r\n    }\r\n\r\n    function _approve(address owner, address spender, uint256 amount) private {\r\n        require(owner != address(0), \"ERC20: approve from the zero address\");\r\n        require(spender != address(0), \"ERC20: approve to the zero address\");\r\n        _allowances[owner][spender] = amount;\r\n        emit Approval(owner, spender, amount);\r\n    }\r\n\r\n\r\n    function _transfer(address from, address to, uint256 amount) private {\r\n        require(from != address(0), \"ERC20: transfer from the zero address\");\r\n        require(to != address(0), \"ERC20: transfer to the zero address\");\r\n        require(amount > 0, \"Transfer amount must be greater than zero\");\r\n        require(amount <= balanceOf(from),\"You are trying to transfer more than your balance\");\r\n        require(!isBot[from] && !isBot[to], \"You are blacklisted\");\r\n\r\n        if(!_isExcludedFromFee[from] && !_isExcludedFromFee[to]){\r\n            require(tradingActive, \"Trading not active\");\r\n            require(amount <= maxTxAmount ,\"Amount is exceeding maxTxAmount\");\r\n        }\r\n\r\n        if(!_isExcludedFromFee[from] && !_isExcludedFromFee[to] && to != pair){\r\n            require(balanceOf(to) + amount <= maxWalletAmount, \"You are exceeding maxWalletAmount\");\r\n        }\r\n\r\n        bool canSwap = balanceOf(address(this)) >= swapTokensAtAmount;\r\n        if(!swapping && swapEnabled && canSwap && from != pair && !_isExcludedFromFee[from] && !_isExcludedFromFee[to]){\r\n            swapAndLiquify(swapTokensAtAmount);\r\n        }\r\n\r\n        _tokenTransfer(from, to, amount, !(_isExcludedFromFee[from] || _isExcludedFromFee[to]));\r\n    }\r\n\r\n\r\n    //this method is responsible for taking all fee, if takeFee is true\r\n    function _tokenTransfer(address sender, address recipient, uint256 tAmount, bool takeFee) private {\r\n        uint8 code = 0;\r\n        if(sender == pair) code = 1;\r\n        else if(recipient == pair) code = 2;\r\n        valuesFromGetValues memory s = _getValues(tAmount, takeFee, code);\r\n\r\n        if (_isExcluded[sender] ) {  //from excluded\r\n                _tOwned[sender] = _tOwned[sender]-tAmount;\r\n        }\r\n        if (_isExcluded[recipient]) { //to excluded\r\n                _tOwned[recipient] = _tOwned[recipient]+s.tTransferAmount;\r\n        }\r\n\r\n        _rOwned[sender] = _rOwned[sender]-s.rAmount;\r\n        _rOwned[recipient] = _rOwned[recipient]+s.rTransferAmount;\r\n        \r\n        if(s.rRfi > 0 || s.tRfi > 0) _reflectRfi(s.rRfi, s.tRfi);\r\n        if(s.rLiquidity > 0 || s.tLiquidity > 0) _takeLiquidity(s.rLiquidity,s.tLiquidity);\r\n        if(s.rMarketing > 0 || s.tMarketing > 0) _takeMarketing(s.rMarketing, s.tMarketing);\r\n        \r\n        emit Transfer(sender, recipient, s.tTransferAmount);\r\n        if(s.tLiquidity + s.tMarketing > 0) emit Transfer(sender, address(this), s.tLiquidity + s.tMarketing);\r\n        \r\n    }\r\n\r\n    function swapAndLiquify(uint256 tokens) private lockTheSwap{\r\n       // Split the contract balance into halves\r\n        uint256 denominator = (sellTaxes.liquidity + sellTaxes.marketing ) * 2;\r\n        uint256 tokensToAddLiquidityWith = tokens * sellTaxes.liquidity / denominator;\r\n        uint256 toSwap = tokens - tokensToAddLiquidityWith;\r\n\r\n        uint256 initialBalance = address(this).balance;\r\n\r\n        swapTokensForBNB(toSwap);\r\n\r\n        uint256 deltaBalance = address(this).balance - initialBalance;\r\n        uint256 unitBalance= deltaBalance / (denominator - sellTaxes.liquidity);\r\n        uint256 bnbToAddLiquidityWith = unitBalance * sellTaxes.liquidity;\r\n\r\n        if(bnbToAddLiquidityWith > 0){\r\n            // Add liquidity to pancake\r\n            addLiquidity(tokensToAddLiquidityWith, bnbToAddLiquidityWith);\r\n        }\r\n\r\n        uint256 marketingAmt = unitBalance * 2 * sellTaxes.marketing;\r\n        if(marketingAmt > 0){\r\n            payable(marketingWallet).sendValue(marketingAmt);\r\n        }\r\n\r\n    }\r\n\r\n    function addLiquidity(uint256 tokenAmount, uint256 bnbAmount) private {\r\n        // approve token transfer to cover all possible scenarios\r\n        _approve(address(this), address(router), tokenAmount);\r\n\r\n        // add the liquidity\r\n        router.addLiquidityETH{value: bnbAmount}(\r\n            address(this),\r\n            tokenAmount,\r\n            0, // slippage is unavoidable\r\n            0, // slippage is unavoidable\r\n            owner(),\r\n            block.timestamp\r\n        );\r\n    }\r\n\r\n    function swapTokensForBNB(uint256 tokenAmount) private {\r\n        // generate the uniswap pair path of token -> weth\r\n        address[] memory path = new address[](2);\r\n        path[0] = address(this);\r\n        path[1] = router.WETH();\r\n\r\n        _approve(address(this), address(router), tokenAmount);\r\n\r\n        // make the swap\r\n        router.swapExactTokensForETHSupportingFeeOnTransferTokens(\r\n            tokenAmount,\r\n            0, // accept any amount of ETH\r\n            path,\r\n            address(this),\r\n            block.timestamp\r\n        );\r\n    }\r\n\r\n    function startTrading() external onlyOwner{\r\n        require(!tradingActive, \"Trading already active\");\r\n        tradingActive = true;\r\n        swapEnabled = true;\r\n    }\r\n\r\n    function updateMarketingWallet(address _marketingWallet) external onlyOwner{\r\n        marketingWallet = _marketingWallet;\r\n    }\r\n\r\n    function updateMaxTxAmount(uint256 amount) external onlyOwner{\r\n        maxTxAmount = amount * 10**_decimals;\r\n    }\r\n\r\n    function updateMaxWalletBalance(uint256 amount) external onlyOwner{\r\n        maxWalletAmount = amount * 10**_decimals;\r\n    }\r\n\r\n    function updateSwapTokensAtAmount(uint256 amount) external onlyOwner{\r\n        swapTokensAtAmount = amount * 10**_decimals;\r\n    }\r\n\r\n    function updateSwapEnabled(bool _enabled) external onlyOwner{\r\n        swapEnabled = _enabled;\r\n    }\r\n    \r\n    function updateRouterAndPair(address newRouter, address newPair) external onlyOwner{\r\n        \r\n        router = IRouter(newRouter);\r\n        pair = newPair;\r\n    }\r\n\r\n    function setIsBot(address user, bool state) external onlyOwner{\r\n        isBot[user] = state;\r\n    }\r\n\r\n    //Use this in case BNB are sent to the contract by mistake\r\n    function rescueBNB(uint256 weiAmount) external onlyOwner{\r\n        require(address(this).balance >= weiAmount, \"insufficient BNB balance\");\r\n        payable(msg.sender).transfer(weiAmount);\r\n    }\r\n    \r\n    // Function to allow admin to claim *other* BEP20 tokens sent to this contract (by mistake)\r\n    function rescueAnyBEP20Tokens(address _tokenAddr, address _to, uint _amount) public onlyOwner {\r\n        IERC20(_tokenAddr).transfer(_to, _amount);\r\n    }\r\n\r\n    receive() external payable{\r\n    }\r\n}",
  "sourcePath": "E:\\git\\contracts\\contracts\\Sugarland.sol",
  "compiler": {
    "name": "solc",
    "version": "0.8.13+commit.abaa5c0e.Emscripten.clang"
  },
  "schemaVersion": "3.4.4",
  "updatedAt": "2022-05-09T17:27:59.402Z",
  "devdoc": {
    "kind": "dev",
    "methods": {
      "allowance(address,address)": {
        "details": "Returns the remaining number of tokens that `spender` will be allowed to spend on behalf of `owner` through {transferFrom}. This is zero by default. This value changes when {approve} or {transferFrom} are called."
      },
      "approve(address,uint256)": {
        "details": "Sets `amount` as the allowance of `spender` over the caller's tokens. Returns a boolean value indicating whether the operation succeeded. IMPORTANT: Beware that changing an allowance with this method brings the risk that someone may use both the old and the new allowance by unfortunate transaction ordering. One possible solution to mitigate this race condition is to first reduce the spender's allowance to 0 and set the desired value afterwards: https://github.com/ethereum/EIPs/issues/20#issuecomment-263524729 Emits an {Approval} event."
      },
      "balanceOf(address)": {
        "details": "Returns the amount of tokens owned by `account`."
      },
      "owner()": {
        "details": "Returns the address of the current owner."
      },
      "renounceOwnership()": {
        "details": "Leaves the contract without owner. It will not be possible to call `onlyOwner` functions anymore. Can only be called by the current owner. NOTE: Renouncing ownership will leave the contract without an owner, thereby removing any functionality that is only available to the owner."
      },
      "totalSupply()": {
        "details": "Returns the amount of tokens in existence."
      },
      "transferOwnership(address)": {
        "details": "Transfers ownership of the contract to a new account (`newOwner`). Can only be called by the current owner."
      }
    },
    "version": 1
  },
  "userdoc": {
    "kind": "user",
    "methods": {},
    "version": 1
  }
}