{
  "contractName": "SugarNFT",
  "abi": [
    {
      "inputs": [
        {
          "internalType": "address",
          "name": "_token",
          "type": "address"
        }
      ],
      "stateMutability": "nonpayable",
      "type": "constructor"
    },
    {
      "anonymous": false,
      "inputs": [
        {
          "indexed": true,
          "internalType": "address",
          "name": "account",
          "type": "address"
        },
        {
          "indexed": true,
          "internalType": "address",
          "name": "operator",
          "type": "address"
        },
        {
          "indexed": false,
          "internalType": "bool",
          "name": "approved",
          "type": "bool"
        }
      ],
      "name": "ApprovalForAll",
      "type": "event"
    },
    {
      "anonymous": false,
      "inputs": [
        {
          "indexed": true,
          "internalType": "address",
          "name": "previousOwner",
          "type": "address"
        },
        {
          "indexed": true,
          "internalType": "address",
          "name": "newOwner",
          "type": "address"
        }
      ],
      "name": "OwnershipTransferred",
      "type": "event"
    },
    {
      "anonymous": false,
      "inputs": [
        {
          "indexed": true,
          "internalType": "address",
          "name": "operator",
          "type": "address"
        },
        {
          "indexed": true,
          "internalType": "address",
          "name": "from",
          "type": "address"
        },
        {
          "indexed": true,
          "internalType": "address",
          "name": "to",
          "type": "address"
        },
        {
          "indexed": false,
          "internalType": "uint256[]",
          "name": "ids",
          "type": "uint256[]"
        },
        {
          "indexed": false,
          "internalType": "uint256[]",
          "name": "values",
          "type": "uint256[]"
        }
      ],
      "name": "TransferBatch",
      "type": "event"
    },
    {
      "anonymous": false,
      "inputs": [
        {
          "indexed": true,
          "internalType": "address",
          "name": "operator",
          "type": "address"
        },
        {
          "indexed": true,
          "internalType": "address",
          "name": "from",
          "type": "address"
        },
        {
          "indexed": true,
          "internalType": "address",
          "name": "to",
          "type": "address"
        },
        {
          "indexed": false,
          "internalType": "uint256",
          "name": "id",
          "type": "uint256"
        },
        {
          "indexed": false,
          "internalType": "uint256",
          "name": "value",
          "type": "uint256"
        }
      ],
      "name": "TransferSingle",
      "type": "event"
    },
    {
      "anonymous": false,
      "inputs": [
        {
          "indexed": false,
          "internalType": "string",
          "name": "value",
          "type": "string"
        },
        {
          "indexed": true,
          "internalType": "uint256",
          "name": "id",
          "type": "uint256"
        }
      ],
      "name": "URI",
      "type": "event"
    },
    {
      "inputs": [
        {
          "internalType": "address",
          "name": "account",
          "type": "address"
        },
        {
          "internalType": "uint256",
          "name": "id",
          "type": "uint256"
        }
      ],
      "name": "balanceOf",
      "outputs": [
        {
          "internalType": "uint256",
          "name": "",
          "type": "uint256"
        }
      ],
      "stateMutability": "view",
      "type": "function"
    },
    {
      "inputs": [
        {
          "internalType": "address[]",
          "name": "accounts",
          "type": "address[]"
        },
        {
          "internalType": "uint256[]",
          "name": "ids",
          "type": "uint256[]"
        }
      ],
      "name": "balanceOfBatch",
      "outputs": [
        {
          "internalType": "uint256[]",
          "name": "",
          "type": "uint256[]"
        }
      ],
      "stateMutability": "view",
      "type": "function"
    },
    {
      "inputs": [],
      "name": "g_maxBalance",
      "outputs": [
        {
          "internalType": "uint256",
          "name": "",
          "type": "uint256"
        }
      ],
      "stateMutability": "view",
      "type": "function"
    },
    {
      "inputs": [
        {
          "internalType": "uint256",
          "name": "",
          "type": "uint256"
        }
      ],
      "name": "g_minimumBalance",
      "outputs": [
        {
          "internalType": "uint256",
          "name": "",
          "type": "uint256"
        }
      ],
      "stateMutability": "view",
      "type": "function"
    },
    {
      "inputs": [
        {
          "internalType": "uint256",
          "name": "",
          "type": "uint256"
        }
      ],
      "name": "g_priceForNFT",
      "outputs": [
        {
          "internalType": "uint256",
          "name": "",
          "type": "uint256"
        }
      ],
      "stateMutability": "view",
      "type": "function"
    },
    {
      "inputs": [],
      "name": "g_startSelling",
      "outputs": [
        {
          "internalType": "bool",
          "name": "",
          "type": "bool"
        }
      ],
      "stateMutability": "view",
      "type": "function"
    },
    {
      "inputs": [],
      "name": "g_tierNums",
      "outputs": [
        {
          "internalType": "uint256",
          "name": "",
          "type": "uint256"
        }
      ],
      "stateMutability": "view",
      "type": "function"
    },
    {
      "inputs": [
        {
          "internalType": "uint256",
          "name": "",
          "type": "uint256"
        }
      ],
      "name": "g_tierRemaining",
      "outputs": [
        {
          "internalType": "uint256",
          "name": "",
          "type": "uint256"
        }
      ],
      "stateMutability": "view",
      "type": "function"
    },
    {
      "inputs": [
        {
          "internalType": "address",
          "name": "account",
          "type": "address"
        },
        {
          "internalType": "address",
          "name": "operator",
          "type": "address"
        }
      ],
      "name": "isApprovedForAll",
      "outputs": [
        {
          "internalType": "bool",
          "name": "",
          "type": "bool"
        }
      ],
      "stateMutability": "view",
      "type": "function"
    },
    {
      "inputs": [],
      "name": "owner",
      "outputs": [
        {
          "internalType": "address",
          "name": "",
          "type": "address"
        }
      ],
      "stateMutability": "view",
      "type": "function"
    },
    {
      "inputs": [],
      "name": "renounceOwnership",
      "outputs": [],
      "stateMutability": "nonpayable",
      "type": "function"
    },
    {
      "inputs": [
        {
          "internalType": "address",
          "name": "from",
          "type": "address"
        },
        {
          "internalType": "address",
          "name": "to",
          "type": "address"
        },
        {
          "internalType": "uint256[]",
          "name": "ids",
          "type": "uint256[]"
        },
        {
          "internalType": "uint256[]",
          "name": "amounts",
          "type": "uint256[]"
        },
        {
          "internalType": "bytes",
          "name": "data",
          "type": "bytes"
        }
      ],
      "name": "safeBatchTransferFrom",
      "outputs": [],
      "stateMutability": "nonpayable",
      "type": "function"
    },
    {
      "inputs": [
        {
          "internalType": "address",
          "name": "from",
          "type": "address"
        },
        {
          "internalType": "address",
          "name": "to",
          "type": "address"
        },
        {
          "internalType": "uint256",
          "name": "id",
          "type": "uint256"
        },
        {
          "internalType": "uint256",
          "name": "amount",
          "type": "uint256"
        },
        {
          "internalType": "bytes",
          "name": "data",
          "type": "bytes"
        }
      ],
      "name": "safeTransferFrom",
      "outputs": [],
      "stateMutability": "nonpayable",
      "type": "function"
    },
    {
      "inputs": [
        {
          "internalType": "address",
          "name": "operator",
          "type": "address"
        },
        {
          "internalType": "bool",
          "name": "approved",
          "type": "bool"
        }
      ],
      "name": "setApprovalForAll",
      "outputs": [],
      "stateMutability": "nonpayable",
      "type": "function"
    },
    {
      "inputs": [
        {
          "internalType": "bytes4",
          "name": "interfaceId",
          "type": "bytes4"
        }
      ],
      "name": "supportsInterface",
      "outputs": [
        {
          "internalType": "bool",
          "name": "",
          "type": "bool"
        }
      ],
      "stateMutability": "view",
      "type": "function"
    },
    {
      "inputs": [
        {
          "internalType": "address",
          "name": "newOwner",
          "type": "address"
        }
      ],
      "name": "transferOwnership",
      "outputs": [],
      "stateMutability": "nonpayable",
      "type": "function"
    },
    {
      "inputs": [],
      "name": "airdrop",
      "outputs": [],
      "stateMutability": "nonpayable",
      "type": "function"
    },
    {
      "inputs": [
        {
          "internalType": "uint256",
          "name": "_type",
          "type": "uint256"
        }
      ],
      "name": "mint",
      "outputs": [],
      "stateMutability": "payable",
      "type": "function"
    },
    {
      "inputs": [
        {
          "internalType": "address",
          "name": "_to",
          "type": "address"
        },
        {
          "internalType": "uint256",
          "name": "_type",
          "type": "uint256"
        }
      ],
      "name": "mintByOwner",
      "outputs": [],
      "stateMutability": "nonpayable",
      "type": "function"
    },
    {
      "inputs": [
        {
          "internalType": "address",
          "name": "_winner",
          "type": "address"
        },
        {
          "internalType": "uint256",
          "name": "_type",
          "type": "uint256"
        }
      ],
      "name": "setWhitelist",
      "outputs": [],
      "stateMutability": "nonpayable",
      "type": "function"
    },
    {
      "inputs": [
        {
          "internalType": "uint256",
          "name": "_id",
          "type": "uint256"
        }
      ],
      "name": "uri",
      "outputs": [
        {
          "internalType": "string",
          "name": "",
          "type": "string"
        }
      ],
      "stateMutability": "view",
      "type": "function"
    },
    {
      "inputs": [
        {
          "internalType": "address",
          "name": "_address",
          "type": "address"
        }
      ],
      "name": "setToken",
      "outputs": [],
      "stateMutability": "nonpayable",
      "type": "function"
    },
    {
      "inputs": [
        {
          "internalType": "address",
          "name": "_owner",
          "type": "address"
        }
      ],
      "name": "getTotalBalance",
      "outputs": [
        {
          "internalType": "uint256",
          "name": "",
          "type": "uint256"
        }
      ],
      "stateMutability": "view",
      "type": "function"
    },
    {
      "inputs": [
        {
          "internalType": "address",
          "name": "_winner",
          "type": "address"
        }
      ],
      "name": "getWinnerInfo",
      "outputs": [
        {
          "internalType": "uint256",
          "name": "",
          "type": "uint256"
        },
        {
          "internalType": "bool",
          "name": "",
          "type": "bool"
        }
      ],
      "stateMutability": "view",
      "type": "function"
    },
    {
      "inputs": [
        {
          "internalType": "uint256",
          "name": "_type",
          "type": "uint256"
        },
        {
          "internalType": "uint256",
          "name": "_amount",
          "type": "uint256"
        }
      ],
      "name": "setRemainingAmount",
      "outputs": [],
      "stateMutability": "nonpayable",
      "type": "function"
    },
    {
      "inputs": [
        {
          "internalType": "uint256",
          "name": "_type",
          "type": "uint256"
        }
      ],
      "name": "getRemainingAmount",
      "outputs": [
        {
          "internalType": "uint256",
          "name": "",
          "type": "uint256"
        }
      ],
      "stateMutability": "view",
      "type": "function"
    },
    {
      "inputs": [
        {
          "internalType": "uint256",
          "name": "_type",
          "type": "uint256"
        },
        {
          "internalType": "uint256",
          "name": "_price",
          "type": "uint256"
        }
      ],
      "name": "setPriceForNFT",
      "outputs": [],
      "stateMutability": "nonpayable",
      "type": "function"
    },
    {
      "inputs": [
        {
          "internalType": "uint256",
          "name": "_type",
          "type": "uint256"
        }
      ],
      "name": "getPricePerNFT",
      "outputs": [
        {
          "internalType": "uint256",
          "name": "",
          "type": "uint256"
        }
      ],
      "stateMutability": "view",
      "type": "function"
    },
    {
      "inputs": [
        {
          "internalType": "uint256",
          "name": "_type",
          "type": "uint256"
        },
        {
          "internalType": "uint256",
          "name": "_balance",
          "type": "uint256"
        }
      ],
      "name": "setMinimumBalance",
      "outputs": [],
      "stateMutability": "nonpayable",
      "type": "function"
    },
    {
      "inputs": [
        {
          "internalType": "uint256",
          "name": "_type",
          "type": "uint256"
        }
      ],
      "name": "getMinimumBalance",
      "outputs": [
        {
          "internalType": "uint256",
          "name": "",
          "type": "uint256"
        }
      ],
      "stateMutability": "view",
      "type": "function"
    },
    {
      "inputs": [
        {
          "internalType": "bool",
          "name": "_flag",
          "type": "bool"
        }
      ],
      "name": "setSellingStatus",
      "outputs": [],
      "stateMutability": "nonpayable",
      "type": "function"
    },
    {
      "inputs": [],
      "name": "getSellingStatus",
      "outputs": [
        {
          "internalType": "bool",
          "name": "",
          "type": "bool"
        }
      ],
      "stateMutability": "view",
      "type": "function"
    },
    {
      "inputs": [],
      "name": "getMaxBalance",
      "outputs": [
        {
          "internalType": "uint256",
          "name": "",
          "type": "uint256"
        }
      ],
      "stateMutability": "view",
      "type": "function"
    },
    {
      "inputs": [
        {
          "internalType": "uint256",
          "name": "_balance",
          "type": "uint256"
        }
      ],
      "name": "setMaxBalance",
      "outputs": [],
      "stateMutability": "nonpayable",
      "type": "function"
    },
    {
      "inputs": [],
      "name": "withdrawBNB",
      "outputs": [],
      "stateMutability": "nonpayable",
      "type": "function"
    }
  ],
  "bytecode": "0x60806040523480156200001157600080fd5b5060405162004c1238038062004c12833981810160405281019062000037919062000302565b60405180608001604052806051815260200162004bc1605191396200006281620000fe60201b60201c565b5062000083620000776200011a60201b60201c565b6200012260201b60201c565b60016004819055506000600a60006101000a81548160ff02191690831515021790555080600560006101000a81548173ffffffffffffffffffffffffffffffffffffffff021916908373ffffffffffffffffffffffffffffffffffffffff160217905550600f600b819055506006600c819055505062000398565b806002908051906020019062000116929190620001e8565b5050565b600033905090565b6000600360009054906101000a900473ffffffffffffffffffffffffffffffffffffffff16905081600360006101000a81548173ffffffffffffffffffffffffffffffffffffffff021916908373ffffffffffffffffffffffffffffffffffffffff1602179055508173ffffffffffffffffffffffffffffffffffffffff168173ffffffffffffffffffffffffffffffffffffffff167f8be0079c531659141344cd1fd0a4f28419497f9722a3daafe3b4186f6b6457e060405160405180910390a35050565b828054620001f69062000363565b90600052602060002090601f0160209004810192826200021a576000855562000266565b82601f106200023557805160ff191683800117855562000266565b8280016001018555821562000266579182015b828111156200026557825182559160200191906001019062000248565b5b50905062000275919062000279565b5090565b5b80821115620002945760008160009055506001016200027a565b5090565b600080fd5b600073ffffffffffffffffffffffffffffffffffffffff82169050919050565b6000620002ca826200029d565b9050919050565b620002dc81620002bd565b8114620002e857600080fd5b50565b600081519050620002fc81620002d1565b92915050565b6000602082840312156200031b576200031a62000298565b5b60006200032b84828501620002eb565b91505092915050565b7f4e487b7100000000000000000000000000000000000000000000000000000000600052602260045260246000fd5b600060028204905060018216806200037c57607f821691505b60208210810362000392576200039162000334565b5b50919050565b61481980620003a86000396000f3fe6080604052600436106102035760003560e01c80638d1aeb4a11610118578063d3d38193116100a0578063f242432a1161006f578063f242432a1461077c578063f2fde38b146107a5578063f3a1c211146107ce578063f6252ff2146107f7578063f68b295c1461083457610203565b8063d3d3819314610687578063d9618d80146106c4578063e9836ed814610702578063e985e9c51461073f57610203565b8063a0712d68116100e7578063a0712d68146105b1578063a22cb465146105cd578063a4df6bcd146105f6578063c3e1888e14610633578063c40a53011461065e57610203565b80638d1aeb4a146105095780638da5cb5b1461053457806392851cdf1461055f5780639d51d9b71461058857610203565b806333aa57e71161019b5780634645a5171161016a5780634645a517146104245780634df6a5d7146104615780634e1273f41461048a578063715018a6146104c757806385e0635e146104de57610203565b806333aa57e71461037c5780633542aee2146103b95780633884d635146103e25780633da4c521146103f957610203565b80631302d03a116101d75780631302d03a146102ea578063144fa6d7146103135780631d111d131461033c5780632eb2c2d61461035357610203565b8062fdd58e1461020857806301ffc9a71461024557806302863d97146102825780630e89341c146102ad575b600080fd5b34801561021457600080fd5b5061022f600480360381019061022a9190612dd1565b610871565b60405161023c9190612e20565b60405180910390f35b34801561025157600080fd5b5061026c60048036038101906102679190612e93565b610939565b6040516102799190612edb565b60405180910390f35b34801561028e57600080fd5b50610297610a1b565b6040516102a49190612e20565b60405180910390f35b3480156102b957600080fd5b506102d460048036038101906102cf9190612ef6565b610a21565b6040516102e19190612fbc565b60405180910390f35b3480156102f657600080fd5b50610311600480360381019061030c9190612dd1565b610a5c565b005b34801561031f57600080fd5b5061033a60048036038101906103359190612fde565b610b46565b005b34801561034857600080fd5b50610351610c06565b005b34801561035f57600080fd5b5061037a60048036038101906103759190613208565b610cd1565b005b34801561038857600080fd5b506103a3600480360381019061039e9190612ef6565b610d72565b6040516103b09190612e20565b60405180910390f35b3480156103c557600080fd5b506103e060048036038101906103db9190612dd1565b610d8f565b005b3480156103ee57600080fd5b506103f7610eb8565b005b34801561040557600080fd5b5061040e6111f1565b60405161041b9190612edb565b60405180910390f35b34801561043057600080fd5b5061044b60048036038101906104469190612ef6565b611204565b6040516104589190612e20565b60405180910390f35b34801561046d57600080fd5b50610488600480360381019061048391906132d7565b611221565b005b34801561049657600080fd5b506104b160048036038101906104ac91906133da565b6112b9565b6040516104be9190613510565b60405180910390f35b3480156104d357600080fd5b506104dc6113d2565b005b3480156104ea57600080fd5b506104f361145a565b6040516105009190612e20565b60405180910390f35b34801561051557600080fd5b5061051e611460565b60405161052b9190612edb565b60405180910390f35b34801561054057600080fd5b50610549611477565b6040516105569190613541565b60405180910390f35b34801561056b57600080fd5b50610586600480360381019061058191906132d7565b6114a1565b005b34801561059457600080fd5b506105af60048036038101906105aa9190612ef6565b611539565b005b6105cb60048036038101906105c69190612ef6565b6115bf565b005b3480156105d957600080fd5b506105f460048036038101906105ef9190613588565b61184c565b005b34801561060257600080fd5b5061061d60048036038101906106189190612ef6565b611862565b60405161062a9190612e20565b60405180910390f35b34801561063f57600080fd5b5061064861187a565b6040516106559190612e20565b60405180910390f35b34801561066a57600080fd5b50610685600480360381019061068091906135c8565b611884565b005b34801561069357600080fd5b506106ae60048036038101906106a99190612fde565b61191d565b6040516106bb9190612e20565b60405180910390f35b3480156106d057600080fd5b506106eb60048036038101906106e69190612fde565b61192f565b6040516106f99291906135f5565b60405180910390f35b34801561070e57600080fd5b5061072960048036038101906107249190612ef6565b6119b9565b6040516107369190612e20565b60405180910390f35b34801561074b57600080fd5b506107666004803603810190610761919061361e565b6119d1565b6040516107739190612edb565b60405180910390f35b34801561078857600080fd5b506107a3600480360381019061079e919061365e565b611a65565b005b3480156107b157600080fd5b506107cc60048036038101906107c79190612fde565b611b06565b005b3480156107da57600080fd5b506107f560048036038101906107f091906132d7565b611bfd565b005b34801561080357600080fd5b5061081e60048036038101906108199190612ef6565b611c95565b60405161082b9190612e20565b60405180910390f35b34801561084057600080fd5b5061085b60048036038101906108569190612ef6565b611cb2565b6040516108689190612e20565b60405180910390f35b60008073ffffffffffffffffffffffffffffffffffffffff168373ffffffffffffffffffffffffffffffffffffffff16036108e1576040517f08c379a00000000000000000000000000000000000000000000000000000000081526004016108d890613767565b60405180910390fd5b60008083815260200190815260200160002060008473ffffffffffffffffffffffffffffffffffffffff1673ffffffffffffffffffffffffffffffffffffffff16815260200190815260200160002054905092915050565b60007fd9b67a26000000000000000000000000000000000000000000000000000000007bffffffffffffffffffffffffffffffffffffffffffffffffffffffff1916827bffffffffffffffffffffffffffffffffffffffffffffffffffffffff19161480610a0457507f0e89341c000000000000000000000000000000000000000000000000000000007bffffffffffffffffffffffffffffffffffffffffffffffffffffffff1916827bffffffffffffffffffffffffffffffffffffffffffffffffffffffff1916145b80610a145750610a1382611cca565b5b9050919050565b600c5481565b6060610a2c82611d34565b610a3583611dc8565b604051602001610a4692919061380f565b6040516020818303038152906040529050919050565b610a64611f28565b73ffffffffffffffffffffffffffffffffffffffff16610a82611477565b73ffffffffffffffffffffffffffffffffffffffff1614610ad8576040517f08c379a0000000000000000000000000000000000000000000000000000000008152600401610acf9061388a565b60405180910390fd5b6000600660008473ffffffffffffffffffffffffffffffffffffffff1673ffffffffffffffffffffffffffffffffffffffff168152602001908152602001600020905081816000018190555060008160010160006101000a81548160ff021916908315150217905550505050565b610b4e611f28565b73ffffffffffffffffffffffffffffffffffffffff16610b6c611477565b73ffffffffffffffffffffffffffffffffffffffff1614610bc2576040517f08c379a0000000000000000000000000000000000000000000000000000000008152600401610bb99061388a565b60405180910390fd5b80600560006101000a81548173ffffffffffffffffffffffffffffffffffffffff021916908373ffffffffffffffffffffffffffffffffffffffff16021790555050565b610c0e611f28565b73ffffffffffffffffffffffffffffffffffffffff16610c2c611477565b73ffffffffffffffffffffffffffffffffffffffff1614610c82576040517f08c379a0000000000000000000000000000000000000000000000000000000008152600401610c799061388a565b60405180910390fd5b60004790503373ffffffffffffffffffffffffffffffffffffffff166108fc829081150290604051600060405180830381858888f19350505050158015610ccd573d6000803e3d6000fd5b5050565b610cd9611f28565b73ffffffffffffffffffffffffffffffffffffffff168573ffffffffffffffffffffffffffffffffffffffff161480610d1f5750610d1e85610d19611f28565b6119d1565b5b610d5e576040517f08c379a0000000000000000000000000000000000000000000000000000000008152600401610d559061391c565b60405180910390fd5b610d6b8585858585611f30565b5050505050565b600060086000838152602001908152602001600020549050919050565b610d97611f28565b73ffffffffffffffffffffffffffffffffffffffff16610db5611477565b73ffffffffffffffffffffffffffffffffffffffff1614610e0b576040517f08c379a0000000000000000000000000000000000000000000000000000000008152600401610e029061388a565b60405180910390fd5b6000600760008381526020019081526020016000205411610e61576040517f08c379a0000000000000000000000000000000000000000000000000000000008152600401610e5890613988565b60405180910390fd5b610e7d8282600160405180602001604052806000815250612243565b60016007600083815260200190815260200160002054610e9d91906139d7565b60076000838152602001908152602001600020819055505050565b600260045403610efd576040517f08c379a0000000000000000000000000000000000000000000000000000000008152600401610ef490613a57565b60405180910390fd5b60026004819055506000600660003373ffffffffffffffffffffffffffffffffffffffff1673ffffffffffffffffffffffffffffffffffffffff1681526020019081526020016000209050600a60009054906101000a900460ff1615610f98576040517f08c379a0000000000000000000000000000000000000000000000000000000008152600401610f8f90613ac3565b60405180910390fd5b6000816000015403610fdf576040517f08c379a0000000000000000000000000000000000000000000000000000000008152600401610fd690613b55565b60405180910390fd5b600015158160010160009054906101000a900460ff16151514611037576040517f08c379a000000000000000000000000000000000000000000000000000000000815260040161102e90613bc1565b60405180910390fd5b600960008260000154815260200190815260200160002054600560009054906101000a900473ffffffffffffffffffffffffffffffffffffffff1673ffffffffffffffffffffffffffffffffffffffff166370a08231336040518263ffffffff1660e01b81526004016110aa9190613541565b602060405180830381865afa1580156110c7573d6000803e3d6000fd5b505050506040513d601f19601f820116820180604052508101906110eb9190613bf6565b101561112c576040517f08c379a000000000000000000000000000000000000000000000000000000000815260040161112390613c95565b60405180910390fd5b61114c338260000154600160405180602001604052806000815250612243565b600160076000836000015481526020019081526020016000205461117091906139d7565b6007600083600001548152602001908152602001600020819055506001600660003373ffffffffffffffffffffffffffffffffffffffff1673ffffffffffffffffffffffffffffffffffffffff16815260200190815260200160002060010160006101000a81548160ff021916908315150217905550506001600481905550565b600a60009054906101000a900460ff1681565b600060096000838152602001908152602001600020549050919050565b611229611f28565b73ffffffffffffffffffffffffffffffffffffffff16611247611477565b73ffffffffffffffffffffffffffffffffffffffff161461129d576040517f08c379a00000000000000000000000000000000000000000000000000000000081526004016112949061388a565b60405180910390fd5b8060096000848152602001908152602001600020819055505050565b606081518351146112ff576040517f08c379a00000000000000000000000000000000000000000000000000000000081526004016112f690613d27565b60405180910390fd5b6000835167ffffffffffffffff81111561131c5761131b613010565b5b60405190808252806020026020018201604052801561134a5781602001602082028036833780820191505090505b50905060005b84518110156113c75761139785828151811061136f5761136e613d47565b5b602002602001015185838151811061138a57611389613d47565b5b6020026020010151610871565b8282815181106113aa576113a9613d47565b5b602002602001018181525050806113c090613d76565b9050611350565b508091505092915050565b6113da611f28565b73ffffffffffffffffffffffffffffffffffffffff166113f8611477565b73ffffffffffffffffffffffffffffffffffffffff161461144e576040517f08c379a00000000000000000000000000000000000000000000000000000000081526004016114459061388a565b60405180910390fd5b61145860006123d8565b565b600b5481565b6000600a60009054906101000a900460ff16905090565b6000600360009054906101000a900473ffffffffffffffffffffffffffffffffffffffff16905090565b6114a9611f28565b73ffffffffffffffffffffffffffffffffffffffff166114c7611477565b73ffffffffffffffffffffffffffffffffffffffff161461151d576040517f08c379a00000000000000000000000000000000000000000000000000000000081526004016115149061388a565b60405180910390fd5b8060076000848152602001908152602001600020819055505050565b611541611f28565b73ffffffffffffffffffffffffffffffffffffffff1661155f611477565b73ffffffffffffffffffffffffffffffffffffffff16146115b5576040517f08c379a00000000000000000000000000000000000000000000000000000000081526004016115ac9061388a565b60405180910390fd5b80600b8190555050565b600a60009054906101000a900460ff1661160e576040517f08c379a000000000000000000000000000000000000000000000000000000000815260040161160590613e0a565b60405180910390fd5b6000600760008381526020019081526020016000205411611664576040517f08c379a000000000000000000000000000000000000000000000000000000000815260040161165b90613988565b60405180910390fd5b6009600082815260200190815260200160002054600560009054906101000a900473ffffffffffffffffffffffffffffffffffffffff1673ffffffffffffffffffffffffffffffffffffffff166370a08231336040518263ffffffff1660e01b81526004016116d39190613541565b602060405180830381865afa1580156116f0573d6000803e3d6000fd5b505050506040513d601f19601f820116820180604052508101906117149190613bf6565b1015611755576040517f08c379a000000000000000000000000000000000000000000000000000000000815260040161174c90613c95565b60405180910390fd5b600860008281526020019081526020016000205434146117aa576040517f08c379a00000000000000000000000000000000000000000000000000000000081526004016117a190613e76565b60405180910390fd5b600b546117b63361249e565b106117f6576040517f08c379a00000000000000000000000000000000000000000000000000000000081526004016117ed90613ee2565b60405180910390fd5b6118123382600160405180602001604052806000815250612243565b6001600760008381526020019081526020016000205461183291906139d7565b600760008381526020019081526020016000208190555050565b61185e611857611f28565b83836124e9565b5050565b60076020528060005260406000206000915090505481565b6000600b54905090565b61188c611f28565b73ffffffffffffffffffffffffffffffffffffffff166118aa611477565b73ffffffffffffffffffffffffffffffffffffffff1614611900576040517f08c379a00000000000000000000000000000000000000000000000000000000081526004016118f79061388a565b60405180910390fd5b80600a60006101000a81548160ff02191690831515021790555050565b60006119288261249e565b9050919050565b6000806000600660008573ffffffffffffffffffffffffffffffffffffffff1673ffffffffffffffffffffffffffffffffffffffff168152602001908152602001600020604051806040016040529081600082015481526020016001820160009054906101000a900460ff1615151515815250509050806000015181602001519250925050915091565b60096020528060005260406000206000915090505481565b6000600160008473ffffffffffffffffffffffffffffffffffffffff1673ffffffffffffffffffffffffffffffffffffffff16815260200190815260200160002060008373ffffffffffffffffffffffffffffffffffffffff1673ffffffffffffffffffffffffffffffffffffffff16815260200190815260200160002060009054906101000a900460ff16905092915050565b611a6d611f28565b73ffffffffffffffffffffffffffffffffffffffff168573ffffffffffffffffffffffffffffffffffffffff161480611ab35750611ab285611aad611f28565b6119d1565b5b611af2576040517f08c379a0000000000000000000000000000000000000000000000000000000008152600401611ae990613f74565b60405180910390fd5b611aff8585858585612655565b5050505050565b611b0e611f28565b73ffffffffffffffffffffffffffffffffffffffff16611b2c611477565b73ffffffffffffffffffffffffffffffffffffffff1614611b82576040517f08c379a0000000000000000000000000000000000000000000000000000000008152600401611b799061388a565b60405180910390fd5b600073ffffffffffffffffffffffffffffffffffffffff168173ffffffffffffffffffffffffffffffffffffffff1603611bf1576040517f08c379a0000000000000000000000000000000000000000000000000000000008152600401611be890614006565b60405180910390fd5b611bfa816123d8565b50565b611c05611f28565b73ffffffffffffffffffffffffffffffffffffffff16611c23611477565b73ffffffffffffffffffffffffffffffffffffffff1614611c79576040517f08c379a0000000000000000000000000000000000000000000000000000000008152600401611c709061388a565b60405180910390fd5b8060086000848152602001908152602001600020819055505050565b600060076000838152602001908152602001600020549050919050565b60086020528060005260406000206000915090505481565b60007f01ffc9a7000000000000000000000000000000000000000000000000000000007bffffffffffffffffffffffffffffffffffffffffffffffffffffffff1916827bffffffffffffffffffffffffffffffffffffffffffffffffffffffff1916149050919050565b606060028054611d4390614055565b80601f0160208091040260200160405190810160405280929190818152602001828054611d6f90614055565b8015611dbc5780601f10611d9157610100808354040283529160200191611dbc565b820191906000526020600020905b815481529060010190602001808311611d9f57829003601f168201915b50505050509050919050565b606060008203611e0f576040518060400160405280600181526020017f30000000000000000000000000000000000000000000000000000000000000008152509050611f23565b600082905060005b60008214611e41578080611e2a90613d76565b915050600a82611e3a91906140b5565b9150611e17565b60008167ffffffffffffffff811115611e5d57611e5c613010565b5b6040519080825280601f01601f191660200182016040528015611e8f5781602001600182028036833780820191505090505b5090505b60008514611f1c57600182611ea891906139d7565b9150600a85611eb791906140e6565b6030611ec39190614117565b60f81b818381518110611ed957611ed8613d47565b5b60200101907effffffffffffffffffffffffffffffffffffffffffffffffffffffffffffff1916908160001a905350600a85611f1591906140b5565b9450611e93565b8093505050505b919050565b600033905090565b8151835114611f74576040517f08c379a0000000000000000000000000000000000000000000000000000000008152600401611f6b906141df565b60405180910390fd5b600073ffffffffffffffffffffffffffffffffffffffff168473ffffffffffffffffffffffffffffffffffffffff1603611fe3576040517f08c379a0000000000000000000000000000000000000000000000000000000008152600401611fda90614271565b60405180910390fd5b6000611fed611f28565b9050611ffd8187878787876128d6565b60005b84518110156121ae57600085828151811061201e5761201d613d47565b5b60200260200101519050600085838151811061203d5761203c613d47565b5b60200260200101519050600080600084815260200190815260200160002060008b73ffffffffffffffffffffffffffffffffffffffff1673ffffffffffffffffffffffffffffffffffffffff168152602001908152602001600020549050818110156120de576040517f08c379a00000000000000000000000000000000000000000000000000000000081526004016120d590614303565b60405180910390fd5b81810360008085815260200190815260200160002060008c73ffffffffffffffffffffffffffffffffffffffff1673ffffffffffffffffffffffffffffffffffffffff168152602001908152602001600020819055508160008085815260200190815260200160002060008b73ffffffffffffffffffffffffffffffffffffffff1673ffffffffffffffffffffffffffffffffffffffff16815260200190815260200160002060008282546121939190614117565b92505081905550505050806121a790613d76565b9050612000565b508473ffffffffffffffffffffffffffffffffffffffff168673ffffffffffffffffffffffffffffffffffffffff168273ffffffffffffffffffffffffffffffffffffffff167f4a39dc06d4c0dbc64b70af90fd698a233a518aa5d07e595d983b8c0526c8f7fb8787604051612225929190614323565b60405180910390a461223b8187878787876128de565b505050505050565b600073ffffffffffffffffffffffffffffffffffffffff168473ffffffffffffffffffffffffffffffffffffffff16036122b2576040517f08c379a00000000000000000000000000000000000000000000000000000000081526004016122a9906143cc565b60405180910390fd5b60006122bc611f28565b90506122dd816000876122ce88612ab5565b6122d788612ab5565b876128d6565b8260008086815260200190815260200160002060008773ffffffffffffffffffffffffffffffffffffffff1673ffffffffffffffffffffffffffffffffffffffff168152602001908152602001600020600082825461233c9190614117565b925050819055508473ffffffffffffffffffffffffffffffffffffffff16600073ffffffffffffffffffffffffffffffffffffffff168273ffffffffffffffffffffffffffffffffffffffff167fc3d58168c5ae7397731d063d5bbf3d657854427343f4c083240f7aacaa2d0f6287876040516123ba9291906143ec565b60405180910390a46123d181600087878787612b2f565b5050505050565b6000600360009054906101000a900473ffffffffffffffffffffffffffffffffffffffff16905081600360006101000a81548173ffffffffffffffffffffffffffffffffffffffff021916908373ffffffffffffffffffffffffffffffffffffffff1602179055508173ffffffffffffffffffffffffffffffffffffffff168173ffffffffffffffffffffffffffffffffffffffff167f8be0079c531659141344cd1fd0a4f28419497f9722a3daafe3b4186f6b6457e060405160405180910390a35050565b600080600090506000600190505b60078110156124df576124bf8482610871565b826124ca9190614117565b915080806124d790613d76565b9150506124ac565b5080915050919050565b8173ffffffffffffffffffffffffffffffffffffffff168373ffffffffffffffffffffffffffffffffffffffff1603612557576040517f08c379a000000000000000000000000000000000000000000000000000000000815260040161254e90614487565b60405180910390fd5b80600160008573ffffffffffffffffffffffffffffffffffffffff1673ffffffffffffffffffffffffffffffffffffffff16815260200190815260200160002060008473ffffffffffffffffffffffffffffffffffffffff1673ffffffffffffffffffffffffffffffffffffffff16815260200190815260200160002060006101000a81548160ff0219169083151502179055508173ffffffffffffffffffffffffffffffffffffffff168373ffffffffffffffffffffffffffffffffffffffff167f17307eab39ab6107e8899845ad3d59bd9653f200f220920489ca2b5937696c31836040516126489190612edb565b60405180910390a3505050565b600073ffffffffffffffffffffffffffffffffffffffff168473ffffffffffffffffffffffffffffffffffffffff16036126c4576040517f08c379a00000000000000000000000000000000000000000000000000000000081526004016126bb90614271565b60405180910390fd5b60006126ce611f28565b90506126ee8187876126df88612ab5565b6126e888612ab5565b876128d6565b600080600086815260200190815260200160002060008873ffffffffffffffffffffffffffffffffffffffff1673ffffffffffffffffffffffffffffffffffffffff16815260200190815260200160002054905083811015612785576040517f08c379a000000000000000000000000000000000000000000000000000000000815260040161277c90614303565b60405180910390fd5b83810360008087815260200190815260200160002060008973ffffffffffffffffffffffffffffffffffffffff1673ffffffffffffffffffffffffffffffffffffffff168152602001908152602001600020819055508360008087815260200190815260200160002060008873ffffffffffffffffffffffffffffffffffffffff1673ffffffffffffffffffffffffffffffffffffffff168152602001908152602001600020600082825461283a9190614117565b925050819055508573ffffffffffffffffffffffffffffffffffffffff168773ffffffffffffffffffffffffffffffffffffffff168373ffffffffffffffffffffffffffffffffffffffff167fc3d58168c5ae7397731d063d5bbf3d657854427343f4c083240f7aacaa2d0f6288886040516128b79291906143ec565b60405180910390a46128cd828888888888612b2f565b50505050505050565b505050505050565b6128fd8473ffffffffffffffffffffffffffffffffffffffff16612d06565b15612aad578373ffffffffffffffffffffffffffffffffffffffff1663bc197c8187878686866040518663ffffffff1660e01b81526004016129439594939291906144fc565b6020604051808303816000875af192505050801561297f57506040513d601f19601f8201168201806040525081019061297c9190614579565b60015b612a245761298b6145b3565b806308c379a0036129e7575061299f6145d5565b806129aa57506129e9565b806040517f08c379a00000000000000000000000000000000000000000000000000000000081526004016129de9190612fbc565b60405180910390fd5b505b6040517f08c379a0000000000000000000000000000000000000000000000000000000008152600401612a1b906146d7565b60405180910390fd5b63bc197c8160e01b7bffffffffffffffffffffffffffffffffffffffffffffffffffffffff1916817bffffffffffffffffffffffffffffffffffffffffffffffffffffffff191614612aab576040517f08c379a0000000000000000000000000000000000000000000000000000000008152600401612aa290614769565b60405180910390fd5b505b505050505050565b60606000600167ffffffffffffffff811115612ad457612ad3613010565b5b604051908082528060200260200182016040528015612b025781602001602082028036833780820191505090505b5090508281600081518110612b1a57612b19613d47565b5b60200260200101818152505080915050919050565b612b4e8473ffffffffffffffffffffffffffffffffffffffff16612d06565b15612cfe578373ffffffffffffffffffffffffffffffffffffffff1663f23a6e6187878686866040518663ffffffff1660e01b8152600401612b94959493929190614789565b6020604051808303816000875af1925050508015612bd057506040513d601f19601f82011682018060405250810190612bcd9190614579565b60015b612c7557612bdc6145b3565b806308c379a003612c385750612bf06145d5565b80612bfb5750612c3a565b806040517f08c379a0000000000000000000000000000000000000000000000000000000008152600401612c2f9190612fbc565b60405180910390fd5b505b6040517f08c379a0000000000000000000000000000000000000000000000000000000008152600401612c6c906146d7565b60405180910390fd5b63f23a6e6160e01b7bffffffffffffffffffffffffffffffffffffffffffffffffffffffff1916817bffffffffffffffffffffffffffffffffffffffffffffffffffffffff191614612cfc576040517f08c379a0000000000000000000000000000000000000000000000000000000008152600401612cf390614769565b60405180910390fd5b505b505050505050565b6000808273ffffffffffffffffffffffffffffffffffffffff163b119050919050565b6000604051905090565b600080fd5b600080fd5b600073ffffffffffffffffffffffffffffffffffffffff82169050919050565b6000612d6882612d3d565b9050919050565b612d7881612d5d565b8114612d8357600080fd5b50565b600081359050612d9581612d6f565b92915050565b6000819050919050565b612dae81612d9b565b8114612db957600080fd5b50565b600081359050612dcb81612da5565b92915050565b60008060408385031215612de857612de7612d33565b5b6000612df685828601612d86565b9250506020612e0785828601612dbc565b9150509250929050565b612e1a81612d9b565b82525050565b6000602082019050612e356000830184612e11565b92915050565b60007fffffffff0000000000000000000000000000000000000000000000000000000082169050919050565b612e7081612e3b565b8114612e7b57600080fd5b50565b600081359050612e8d81612e67565b92915050565b600060208284031215612ea957612ea8612d33565b5b6000612eb784828501612e7e565b91505092915050565b60008115159050919050565b612ed581612ec0565b82525050565b6000602082019050612ef06000830184612ecc565b92915050565b600060208284031215612f0c57612f0b612d33565b5b6000612f1a84828501612dbc565b91505092915050565b600081519050919050565b600082825260208201905092915050565b60005b83811015612f5d578082015181840152602081019050612f42565b83811115612f6c576000848401525b50505050565b6000601f19601f8301169050919050565b6000612f8e82612f23565b612f988185612f2e565b9350612fa8818560208601612f3f565b612fb181612f72565b840191505092915050565b60006020820190508181036000830152612fd68184612f83565b905092915050565b600060208284031215612ff457612ff3612d33565b5b600061300284828501612d86565b91505092915050565b600080fd5b7f4e487b7100000000000000000000000000000000000000000000000000000000600052604160045260246000fd5b61304882612f72565b810181811067ffffffffffffffff8211171561306757613066613010565b5b80604052505050565b600061307a612d29565b9050613086828261303f565b919050565b600067ffffffffffffffff8211156130a6576130a5613010565b5b602082029050602081019050919050565b600080fd5b60006130cf6130ca8461308b565b613070565b905080838252602082019050602084028301858111156130f2576130f16130b7565b5b835b8181101561311b57806131078882612dbc565b8452602084019350506020810190506130f4565b5050509392505050565b600082601f83011261313a5761313961300b565b5b813561314a8482602086016130bc565b91505092915050565b600080fd5b600067ffffffffffffffff82111561317357613172613010565b5b61317c82612f72565b9050602081019050919050565b82818337600083830152505050565b60006131ab6131a684613158565b613070565b9050828152602081018484840111156131c7576131c6613153565b5b6131d2848285613189565b509392505050565b600082601f8301126131ef576131ee61300b565b5b81356131ff848260208601613198565b91505092915050565b600080600080600060a0868803121561322457613223612d33565b5b600061323288828901612d86565b955050602061324388828901612d86565b945050604086013567ffffffffffffffff81111561326457613263612d38565b5b61327088828901613125565b935050606086013567ffffffffffffffff81111561329157613290612d38565b5b61329d88828901613125565b925050608086013567ffffffffffffffff8111156132be576132bd612d38565b5b6132ca888289016131da565b9150509295509295909350565b600080604083850312156132ee576132ed612d33565b5b60006132fc85828601612dbc565b925050602061330d85828601612dbc565b9150509250929050565b600067ffffffffffffffff82111561333257613331613010565b5b602082029050602081019050919050565b600061335661335184613317565b613070565b90508083825260208201905060208402830185811115613379576133786130b7565b5b835b818110156133a2578061338e8882612d86565b84526020840193505060208101905061337b565b5050509392505050565b600082601f8301126133c1576133c061300b565b5b81356133d1848260208601613343565b91505092915050565b600080604083850312156133f1576133f0612d33565b5b600083013567ffffffffffffffff81111561340f5761340e612d38565b5b61341b858286016133ac565b925050602083013567ffffffffffffffff81111561343c5761343b612d38565b5b61344885828601613125565b9150509250929050565b600081519050919050565b600082825260208201905092915050565b6000819050602082019050919050565b61348781612d9b565b82525050565b6000613499838361347e565b60208301905092915050565b6000602082019050919050565b60006134bd82613452565b6134c7818561345d565b93506134d28361346e565b8060005b838110156135035781516134ea888261348d565b97506134f5836134a5565b9250506001810190506134d6565b5085935050505092915050565b6000602082019050818103600083015261352a81846134b2565b905092915050565b61353b81612d5d565b82525050565b60006020820190506135566000830184613532565b92915050565b61356581612ec0565b811461357057600080fd5b50565b6000813590506135828161355c565b92915050565b6000806040838503121561359f5761359e612d33565b5b60006135ad85828601612d86565b92505060206135be85828601613573565b9150509250929050565b6000602082840312156135de576135dd612d33565b5b60006135ec84828501613573565b91505092915050565b600060408201905061360a6000830185612e11565b6136176020830184612ecc565b9392505050565b6000806040838503121561363557613634612d33565b5b600061364385828601612d86565b925050602061365485828601612d86565b9150509250929050565b600080600080600060a0868803121561367a57613679612d33565b5b600061368888828901612d86565b955050602061369988828901612d86565b94505060406136aa88828901612dbc565b93505060606136bb88828901612dbc565b925050608086013567ffffffffffffffff8111156136dc576136db612d38565b5b6136e8888289016131da565b9150509295509295909350565b7f455243313135353a2062616c616e636520717565727920666f7220746865207a60008201527f65726f2061646472657373000000000000000000000000000000000000000000602082015250565b6000613751602b83612f2e565b915061375c826136f5565b604082019050919050565b6000602082019050818103600083015261378081613744565b9050919050565b600081905092915050565b600061379d82612f23565b6137a78185613787565b93506137b7818560208601612f3f565b80840191505092915050565b7f2e6a736f6e000000000000000000000000000000000000000000000000000000600082015250565b60006137f9600583613787565b9150613804826137c3565b600582019050919050565b600061381b8285613792565b91506138278284613792565b9150613832826137ec565b91508190509392505050565b7f4f776e61626c653a2063616c6c6572206973206e6f7420746865206f776e6572600082015250565b6000613874602083612f2e565b915061387f8261383e565b602082019050919050565b600060208201905081810360008301526138a381613867565b9050919050565b7f455243313135353a207472616e736665722063616c6c6572206973206e6f742060008201527f6f776e6572206e6f7220617070726f7665640000000000000000000000000000602082015250565b6000613906603283612f2e565b9150613911826138aa565b604082019050919050565b60006020820190508181036000830152613935816138f9565b9050919050565b7f4f7574206f6620737570706c7900000000000000000000000000000000000000600082015250565b6000613972600d83612f2e565b915061397d8261393c565b602082019050919050565b600060208201905081810360008301526139a181613965565b9050919050565b7f4e487b7100000000000000000000000000000000000000000000000000000000600052601160045260246000fd5b60006139e282612d9b565b91506139ed83612d9b565b925082821015613a00576139ff6139a8565b5b828203905092915050565b7f5265656e7472616e637947756172643a207265656e7472616e742063616c6c00600082015250565b6000613a41601f83612f2e565b9150613a4c82613a0b565b602082019050919050565b60006020820190508181036000830152613a7081613a34565b9050919050565b7f41697264726f7020697320616c726561647920656e6465640000000000000000600082015250565b6000613aad601883612f2e565b9150613ab882613a77565b602082019050919050565b60006020820190508181036000830152613adc81613aa0565b9050919050565b7f596f7520617265206e6f742077696e6e65722c20736f20796f752063616e277460008201527f20676574207061727420696e2061697264726f70000000000000000000000000602082015250565b6000613b3f603483612f2e565b9150613b4a82613ae3565b604082019050919050565b60006020820190508181036000830152613b6e81613b32565b9050919050565b7f596f7527766520616c7265616479206765742066726565204e46540000000000600082015250565b6000613bab601b83612f2e565b9150613bb682613b75565b602082019050919050565b60006020820190508181036000830152613bda81613b9e565b9050919050565b600081519050613bf081612da5565b92915050565b600060208284031215613c0c57613c0b612d33565b5b6000613c1a84828501613be1565b91505092915050565b7f596f7520646f6e2774206861766520656e6f7567682053756761722062616c6160008201527f6e636520666f72206d696e74696e672074686973204e46540000000000000000602082015250565b6000613c7f603883612f2e565b9150613c8a82613c23565b604082019050919050565b60006020820190508181036000830152613cae81613c72565b9050919050565b7f455243313135353a206163636f756e747320616e6420696473206c656e67746860008201527f206d69736d617463680000000000000000000000000000000000000000000000602082015250565b6000613d11602983612f2e565b9150613d1c82613cb5565b604082019050919050565b60006020820190508181036000830152613d4081613d04565b9050919050565b7f4e487b7100000000000000000000000000000000000000000000000000000000600052603260045260246000fd5b6000613d8182612d9b565b91507fffffffffffffffffffffffffffffffffffffffffffffffffffffffffffffffff8203613db357613db26139a8565b5b600182019050919050565b7f53656c6c696e67206973206e6f74207374617274656420796574000000000000600082015250565b6000613df4601a83612f2e565b9150613dff82613dbe565b602082019050919050565b60006020820190508181036000830152613e2381613de7565b9050919050565b7f4e6f7420656e6f7567682066756e647320666f72206d696e74696e6700000000600082015250565b6000613e60601c83612f2e565b9150613e6b82613e2a565b602082019050919050565b60006020820190508181036000830152613e8f81613e53565b9050919050565b7f596f752063616e2774206d696e7420616e796d6f72652e000000000000000000600082015250565b6000613ecc601783612f2e565b9150613ed782613e96565b602082019050919050565b60006020820190508181036000830152613efb81613ebf565b9050919050565b7f455243313135353a2063616c6c6572206973206e6f74206f776e6572206e6f7260008201527f20617070726f7665640000000000000000000000000000000000000000000000602082015250565b6000613f5e602983612f2e565b9150613f6982613f02565b604082019050919050565b60006020820190508181036000830152613f8d81613f51565b9050919050565b7f4f776e61626c653a206e6577206f776e657220697320746865207a65726f206160008201527f6464726573730000000000000000000000000000000000000000000000000000602082015250565b6000613ff0602683612f2e565b9150613ffb82613f94565b604082019050919050565b6000602082019050818103600083015261401f81613fe3565b9050919050565b7f4e487b7100000000000000000000000000000000000000000000000000000000600052602260045260246000fd5b6000600282049050600182168061406d57607f821691505b6020821081036140805761407f614026565b5b50919050565b7f4e487b7100000000000000000000000000000000000000000000000000000000600052601260045260246000fd5b60006140c082612d9b565b91506140cb83612d9b565b9250826140db576140da614086565b5b828204905092915050565b60006140f182612d9b565b91506140fc83612d9b565b92508261410c5761410b614086565b5b828206905092915050565b600061412282612d9b565b915061412d83612d9b565b9250827fffffffffffffffffffffffffffffffffffffffffffffffffffffffffffffffff03821115614162576141616139a8565b5b828201905092915050565b7f455243313135353a2069647320616e6420616d6f756e7473206c656e6774682060008201527f6d69736d61746368000000000000000000000000000000000000000000000000602082015250565b60006141c9602883612f2e565b91506141d48261416d565b604082019050919050565b600060208201905081810360008301526141f8816141bc565b9050919050565b7f455243313135353a207472616e7366657220746f20746865207a65726f20616460008201527f6472657373000000000000000000000000000000000000000000000000000000602082015250565b600061425b602583612f2e565b9150614266826141ff565b604082019050919050565b6000602082019050818103600083015261428a8161424e565b9050919050565b7f455243313135353a20696e73756666696369656e742062616c616e636520666f60008201527f72207472616e7366657200000000000000000000000000000000000000000000602082015250565b60006142ed602a83612f2e565b91506142f882614291565b604082019050919050565b6000602082019050818103600083015261431c816142e0565b9050919050565b6000604082019050818103600083015261433d81856134b2565b9050818103602083015261435181846134b2565b90509392505050565b7f455243313135353a206d696e7420746f20746865207a65726f2061646472657360008201527f7300000000000000000000000000000000000000000000000000000000000000602082015250565b60006143b6602183612f2e565b91506143c18261435a565b604082019050919050565b600060208201905081810360008301526143e5816143a9565b9050919050565b60006040820190506144016000830185612e11565b61440e6020830184612e11565b9392505050565b7f455243313135353a2073657474696e6720617070726f76616c2073746174757360008201527f20666f722073656c660000000000000000000000000000000000000000000000602082015250565b6000614471602983612f2e565b915061447c82614415565b604082019050919050565b600060208201905081810360008301526144a081614464565b9050919050565b600081519050919050565b600082825260208201905092915050565b60006144ce826144a7565b6144d881856144b2565b93506144e8818560208601612f3f565b6144f181612f72565b840191505092915050565b600060a0820190506145116000830188613532565b61451e6020830187613532565b818103604083015261453081866134b2565b9050818103606083015261454481856134b2565b9050818103608083015261455881846144c3565b90509695505050505050565b60008151905061457381612e67565b92915050565b60006020828403121561458f5761458e612d33565b5b600061459d84828501614564565b91505092915050565b60008160e01c9050919050565b600060033d11156145d25760046000803e6145cf6000516145a6565b90505b90565b600060443d10614662576145e7612d29565b60043d036004823e80513d602482011167ffffffffffffffff8211171561460f575050614662565b808201805167ffffffffffffffff81111561462d5750505050614662565b80602083010160043d03850181111561464a575050505050614662565b6146598260200185018661303f565b82955050505050505b90565b7f455243313135353a207472616e7366657220746f206e6f6e204552433131353560008201527f526563656976657220696d706c656d656e746572000000000000000000000000602082015250565b60006146c1603483612f2e565b91506146cc82614665565b604082019050919050565b600060208201905081810360008301526146f0816146b4565b9050919050565b7f455243313135353a204552433131353552656365697665722072656a6563746560008201527f6420746f6b656e73000000000000000000000000000000000000000000000000602082015250565b6000614753602883612f2e565b915061475e826146f7565b604082019050919050565b6000602082019050818103600083015261478281614746565b9050919050565b600060a08201905061479e6000830188613532565b6147ab6020830187613532565b6147b86040830186612e11565b6147c56060830185612e11565b81810360808301526147d781846144c3565b9050969550505050505056fea26469706673582212204d2c707dfe638cdbc2604d1c07bdd56a4d6836ae3a66b0f1f6bcd69d109e28ca64736f6c634300080d003368747470733a2f2f697066732e6d6f72616c69732e696f3a323035332f697066732f516d575268626369564b763833376162444462656a333834584233653554513374324364726376434670624343462f",
  "immutableReferences": {},
  "source": "// SPDX-License-Identifier: MIT\n\npragma solidity ^0.8.0;\nimport \"@openzeppelin/contracts/token/ERC1155/ERC1155.sol\";\nimport \"@openzeppelin/contracts/access/Ownable.sol\";\nimport \"@openzeppelin/contracts/security/ReentrancyGuard.sol\";\nimport \"@openzeppelin/contracts/token/ERC20/IERC20.sol\";\nimport \"@openzeppelin/contracts/utils/Strings.sol\";\n\ncontract SugarNFT is ERC1155, Ownable, ReentrancyGuard {\n  struct WhiteList {\n    uint256 tierType;\n    bool isReceived;\n  }\n  //Variable for sugar token address\n  IERC20 g_token;\n  //Variable for whitelisted address with it's tier \n  mapping (address => WhiteList) private g_whitelists;\n  //Variable for remaining amount per tier\n  mapping (uint256 => uint256) public g_tierRemaining;\n  //Variable for price for NFT\n  mapping (uint256 => uint256) public g_priceForNFT;\n  //Variable for minimum balance per tier\n  mapping (uint256 => uint256) public g_minimumBalance;\n\n  //Variable for start selling\n  bool public g_startSelling;\n\n  //Variable for max nfts per wallet\n  uint256 public g_maxBalance;\n\n  //Variable for Numbers of tier\n  uint256 public g_tierNums;\n\n  constructor(address _token) ERC1155(\"https://ipfs.moralis.io:2053/ipfs/QmWRhbciVKv837abDDbej384XB3e5TQ3t2CdrcvCFpbCCF/\"){\n    g_startSelling = false;\n    g_token = IERC20(_token);\n    g_maxBalance = 15;\n    g_tierNums = 6;\n  }\n\n  function airdrop() external nonReentrant {\n    WhiteList storage info = g_whitelists[msg.sender];\n    require(!g_startSelling, \"Airdrop is already ended\");\n    require(info.tierType != 0, \"You are not winner, so you can't get part in airdrop\");\n    require(info.isReceived == false, \"You've already get free NFT\");\n    require(g_token.balanceOf(msg.sender) >= g_minimumBalance[info.tierType], \"You don't have enough Sugar balance for minting this NFT\");\n\n    _mint(msg.sender, info.tierType, 1, \"\");\n    g_tierRemaining[info.tierType] = g_tierRemaining[info.tierType] - 1;\n    g_whitelists[msg.sender].isReceived = true;\n  }\n\n  function mint(uint256 _type) external payable {\n    require(g_startSelling, \"Selling is not started yet\");\n    require(g_tierRemaining[_type] > 0, \"Out of supply\");\n    require(g_token.balanceOf(msg.sender) >= g_minimumBalance[_type], \"You don't have enough Sugar balance for minting this NFT\");\n    require(msg.value == g_priceForNFT[_type], \"Not enough funds for minting\");\n    require(getTotal(msg.sender) < g_maxBalance, \"You can't mint anymore.\");\n    _mint(msg.sender, _type, 1, \"\");\n    g_tierRemaining[_type] = g_tierRemaining[_type] - 1;\n  }\n  \n  function mintByOwner(address _to, uint256 _type) external onlyOwner {\n    require(g_tierRemaining[_type] > 0, \"Out of supply\");\n    _mint(_to, _type, 1, \"\");\n    g_tierRemaining[_type] = g_tierRemaining[_type] - 1;\n  }\n  function setWhitelist(address _winner, uint256 _type) external onlyOwner {\n    WhiteList storage info = g_whitelists[_winner];\n    info.tierType = _type;\n    info.isReceived = false;\n  }\n  function uri(uint256 _id) public view virtual override returns (string memory) {\n        return string(abi.encodePacked(super.uri(_id), Strings.toString(_id), \".json\"));\n  }\n  function getTotal(address _owner) internal view returns(uint256){\n    uint256 totalBalance = 0;\n    for(uint i = 1 ; i < 7; i ++) {\n      totalBalance += balanceOf(_owner, i);\n      \n    }\n    return totalBalance;\n  }\n  function setToken(address _address) external onlyOwner {\n    g_token = IERC20(_address);\n  }\n  function getTotalBalance(address _owner) external view returns(uint256) {\n    return getTotal(_owner);\n  }\n  function getWinnerInfo(address _winner) external view returns(uint256, bool){\n    WhiteList memory info  = g_whitelists[_winner];\n    return (info.tierType, info.isReceived);\n  }\n  function setRemainingAmount(uint256 _type, uint256 _amount) external onlyOwner{\n    g_tierRemaining[_type] = _amount;\n  }\n  function getRemainingAmount(uint256 _type) external view returns(uint256) {\n    return g_tierRemaining[_type];\n  }\n  function setPriceForNFT(uint256 _type, uint256 _price) external onlyOwner {\n    g_priceForNFT[_type] = _price;\n  }\n  function getPricePerNFT(uint256 _type) external view returns(uint256) {\n    return g_priceForNFT[_type];\n  }\n  function setMinimumBalance(uint256 _type, uint256 _balance) external onlyOwner {\n    g_minimumBalance[_type] = _balance;\n  }\n  function getMinimumBalance(uint256 _type) external view returns(uint256) {\n    return g_minimumBalance[_type];\n  }\n\n  function setSellingStatus(bool _flag) external onlyOwner {\n    g_startSelling = _flag;\n  }\n  function getSellingStatus() external view returns(bool) {\n    return g_startSelling;\n  }\n  function getMaxBalance() external view returns(uint256){\n    return g_maxBalance;\n  }\n  function setMaxBalance(uint256 _balance) external onlyOwner {\n    g_maxBalance = _balance;\n  }\n  function withdrawBNB() external onlyOwner {\n    uint256 withdrawBalance = address(this).balance;\n    payable(msg.sender).transfer(withdrawBalance);\n  }\n\n}\n",
  "sourcePath": "E:\\git\\contracts\\contracts\\SugarNFT.sol",
  "compiler": {
    "name": "solc",
    "version": "0.8.13+commit.abaa5c0e.Emscripten.clang"
  },
  "schemaVersion": "3.4.4",
  "updatedAt": "2022-05-09T17:27:59.263Z",
  "devdoc": {
    "kind": "dev",
    "methods": {
      "balanceOf(address,uint256)": {
        "details": "See {IERC1155-balanceOf}. Requirements: - `account` cannot be the zero address."
      },
      "balanceOfBatch(address[],uint256[])": {
        "details": "See {IERC1155-balanceOfBatch}. Requirements: - `accounts` and `ids` must have the same length."
      },
      "isApprovedForAll(address,address)": {
        "details": "See {IERC1155-isApprovedForAll}."
      },
      "owner()": {
        "details": "Returns the address of the current owner."
      },
      "renounceOwnership()": {
        "details": "Leaves the contract without owner. It will not be possible to call `onlyOwner` functions anymore. Can only be called by the current owner. NOTE: Renouncing ownership will leave the contract without an owner, thereby removing any functionality that is only available to the owner."
      },
      "safeBatchTransferFrom(address,address,uint256[],uint256[],bytes)": {
        "details": "See {IERC1155-safeBatchTransferFrom}."
      },
      "safeTransferFrom(address,address,uint256,uint256,bytes)": {
        "details": "See {IERC1155-safeTransferFrom}."
      },
      "setApprovalForAll(address,bool)": {
        "details": "See {IERC1155-setApprovalForAll}."
      },
      "supportsInterface(bytes4)": {
        "details": "See {IERC165-supportsInterface}."
      },
      "transferOwnership(address)": {
        "details": "Transfers ownership of the contract to a new account (`newOwner`). Can only be called by the current owner."
      }
    },
    "version": 1
  },
  "userdoc": {
    "kind": "user",
    "methods": {},
    "version": 1
  }
}