{
  "contractName": "VotingFactoryOld",
  "abi": [
    {
      "inputs": [],
      "stateMutability": "nonpayable",
      "type": "constructor"
    },
    {
      "inputs": [],
      "name": "VOTTING_POLL_ADDRESS",
      "outputs": [
        {
          "internalType": "address",
          "name": "",
          "type": "address"
        }
      ],
      "stateMutability": "view",
      "type": "function"
    },
    {
      "inputs": [],
      "name": "addVotignPoll",
      "outputs": [],
      "stateMutability": "nonpayable",
      "type": "function"
    },
    {
      "inputs": [
        {
          "internalType": "uint256",
          "name": "_id",
          "type": "uint256"
        },
        {
          "internalType": "int256",
          "name": "_value",
          "type": "int256"
        }
      ],
      "name": "vote",
      "outputs": [],
      "stateMutability": "nonpayable",
      "type": "function"
    }
  ],
  "bytecode": "0x60806040527339930cf2af45a2cd284664663b11ce0bb4ad1125600460006101000a81548173ffffffffffffffffffffffffffffffffffffffff021916908373ffffffffffffffffffffffffffffffffffffffff16021790555034801561006557600080fd5b5060008081905550610f3c8061007c6000396000f3fe608060405234801561001057600080fd5b50600436106100415760003560e01c80630c5e9692146100465780635e44daf31461006457806371c902cd14610080575b600080fd5b61004e61008a565b60405161005b91906107ee565b60405180910390f35b61007e60048036038101906100799190610889565b6100a2565b005b610088610177565b005b7339930cf2af45a2cd284664663b11ce0bb4ad112581565b6000600383815481106100b8576100b76108c9565b5b906000526020600020906004020160030160006101000a81548160ff021916908315150217905561011e576040517f08c379a000000000000000000000000000000000000000000000000000000000815260040161011590610955565b60405180910390fd5b806001600084815260200190815260200160002060003373ffffffffffffffffffffffffffffffffffffffff1673ffffffffffffffffffffffffffffffffffffffff168152602001908152602001600020819055505050565b6000600460009054906101000a900473ffffffffffffffffffffffffffffffffffffffff1673ffffffffffffffffffffffffffffffffffffffff1663da6f9abe6040518163ffffffff1660e01b8152600401602060405180830381865afa1580156101e6573d6000803e3d6000fd5b505050506040513d601f19601f8201168201806040525081019061020a91906109a1565b90508073ffffffffffffffffffffffffffffffffffffffff163373ffffffffffffffffffffffffffffffffffffffff161461027a576040517f08c379a000000000000000000000000000000000000000000000000000000000815260040161027190610a1a565b60405180910390fd5b6000600460009054906101000a900473ffffffffffffffffffffffffffffffffffffffff1673ffffffffffffffffffffffffffffffffffffffff1663504852b16040518163ffffffff1660e01b8152600401600060405180830381865afa1580156102e9573d6000803e3d6000fd5b505050506040513d6000823e3d601f19601f820116820180604052508101906103129190610ba4565b90506000600460009054906101000a900473ffffffffffffffffffffffffffffffffffffffff1673ffffffffffffffffffffffffffffffffffffffff166358b2b7446040518163ffffffff1660e01b8152600401602060405180830381865afa158015610383573d6000803e3d6000fd5b505050506040513d601f19601f820116820180604052508101906103a79190610c02565b9050600081036103ec576040517f08c379a00000000000000000000000000000000000000000000000000000000081526004016103e390610c7b565b60405180910390fd5b6000600460009054906101000a900473ffffffffffffffffffffffffffffffffffffffff1673ffffffffffffffffffffffffffffffffffffffff16637b8d06026040518163ffffffff1660e01b8152600401600060405180830381865afa15801561045b573d6000803e3d6000fd5b505050506040513d6000823e3d601f19601f820116820180604052508101906104849190610d81565b90506000600460009054906101000a900473ffffffffffffffffffffffffffffffffffffffff1673ffffffffffffffffffffffffffffffffffffffff16634e69d5606040518163ffffffff1660e01b8152600401602060405180830381865afa1580156104f5573d6000803e3d6000fd5b505050506040513d601f19601f820116820180604052508101906105199190610e02565b90506000600360005481548110610533576105326108c9565b5b90600052602060002090600402019050858160000160006101000a81548173ffffffffffffffffffffffffffffffffffffffff021916908373ffffffffffffffffffffffffffffffffffffffff1602179055508481600101908051906020019061059e929190610646565b50828160020190805190602001906105b79291906106cc565b50818160030160006101000a81548160ff02191690831515021790555033600260008054815260200190815260200160002060006101000a81548173ffffffffffffffffffffffffffffffffffffffff021916908373ffffffffffffffffffffffffffffffffffffffff16021790555060008081548092919061063990610e5e565b9190505550505050505050565b82805461065290610ed5565b90600052602060002090601f01602090048101928261067457600085556106bb565b82601f1061068d57805160ff19168380011785556106bb565b828001600101855582156106bb579182015b828111156106ba57825182559160200191906001019061069f565b5b5090506106c8919061072c565b5090565b82805482825590600052602060002090810192821561071b579160200282015b8281111561071a57825182908051906020019061070a929190610646565b50916020019190600101906106ec565b5b5090506107289190610749565b5090565b5b8082111561074557600081600090555060010161072d565b5090565b5b808211156107695760008181610760919061076d565b5060010161074a565b5090565b50805461077990610ed5565b6000825580601f1061078b57506107aa565b601f0160209004906000526020600020908101906107a9919061072c565b5b50565b600073ffffffffffffffffffffffffffffffffffffffff82169050919050565b60006107d8826107ad565b9050919050565b6107e8816107cd565b82525050565b600060208201905061080360008301846107df565b92915050565b6000604051905090565b600080fd5b600080fd5b6000819050919050565b6108308161081d565b811461083b57600080fd5b50565b60008135905061084d81610827565b92915050565b6000819050919050565b61086681610853565b811461087157600080fd5b50565b6000813590506108838161085d565b92915050565b600080604083850312156108a05761089f610813565b5b60006108ae8582860161083e565b92505060206108bf85828601610874565b9150509250929050565b7f4e487b7100000000000000000000000000000000000000000000000000000000600052603260045260246000fd5b600082825260208201905092915050565b7f566f74696e6720576173206e6f74204669686973686564000000000000000000600082015250565b600061093f6017836108f8565b915061094a82610909565b602082019050919050565b6000602082019050818103600083015261096e81610932565b9050919050565b61097e816107cd565b811461098957600080fd5b50565b60008151905061099b81610975565b92915050565b6000602082840312156109b7576109b6610813565b5b60006109c58482850161098c565b91505092915050565b7f596f7520617265206e6f74206f776e6572210000000000000000000000000000600082015250565b6000610a046012836108f8565b9150610a0f826109ce565b602082019050919050565b60006020820190508181036000830152610a33816109f7565b9050919050565b600080fd5b600080fd5b6000601f19601f8301169050919050565b7f4e487b7100000000000000000000000000000000000000000000000000000000600052604160045260246000fd5b610a8d82610a44565b810181811067ffffffffffffffff82111715610aac57610aab610a55565b5b80604052505050565b6000610abf610809565b9050610acb8282610a84565b919050565b600067ffffffffffffffff821115610aeb57610aea610a55565b5b610af482610a44565b9050602081019050919050565b60005b83811015610b1f578082015181840152602081019050610b04565b83811115610b2e576000848401525b50505050565b6000610b47610b4284610ad0565b610ab5565b905082815260208101848484011115610b6357610b62610a3f565b5b610b6e848285610b01565b509392505050565b600082601f830112610b8b57610b8a610a3a565b5b8151610b9b848260208601610b34565b91505092915050565b600060208284031215610bba57610bb9610813565b5b600082015167ffffffffffffffff811115610bd857610bd7610818565b5b610be484828501610b76565b91505092915050565b600081519050610bfc81610827565b92915050565b600060208284031215610c1857610c17610813565b5b6000610c2684828501610bed565b91505092915050565b7f566f74696e6720506f6c6c20646f6573206e6f74206578697374210000000000600082015250565b6000610c65601b836108f8565b9150610c7082610c2f565b602082019050919050565b60006020820190508181036000830152610c9481610c58565b9050919050565b600067ffffffffffffffff821115610cb657610cb5610a55565b5b602082029050602081019050919050565b600080fd5b6000610cdf610cda84610c9b565b610ab5565b90508083825260208201905060208402830185811115610d0257610d01610cc7565b5b835b81811015610d4957805167ffffffffffffffff811115610d2757610d26610a3a565b5b808601610d348982610b76565b85526020850194505050602081019050610d04565b5050509392505050565b600082601f830112610d6857610d67610a3a565b5b8151610d78848260208601610ccc565b91505092915050565b600060208284031215610d9757610d96610813565b5b600082015167ffffffffffffffff811115610db557610db4610818565b5b610dc184828501610d53565b91505092915050565b60008115159050919050565b610ddf81610dca565b8114610dea57600080fd5b50565b600081519050610dfc81610dd6565b92915050565b600060208284031215610e1857610e17610813565b5b6000610e2684828501610ded565b91505092915050565b7f4e487b7100000000000000000000000000000000000000000000000000000000600052601160045260246000fd5b6000610e698261081d565b91507fffffffffffffffffffffffffffffffffffffffffffffffffffffffffffffffff8203610e9b57610e9a610e2f565b5b600182019050919050565b7f4e487b7100000000000000000000000000000000000000000000000000000000600052602260045260246000fd5b60006002820490506001821680610eed57607f821691505b602082108103610f0057610eff610ea6565b5b5091905056fea2646970667358221220928d15df5e61a673b61783250381737f87d449e941a1c91378fb7f59a3f5f24f64736f6c634300080e0033",
  "immutableReferences": {},
  "source": "// SPDX-License-Identifier: MIT\r\n\r\npragma solidity ^0.8.4;\r\nimport \"@openzeppelin/contracts/security/ReentrancyGuard.sol\";\r\n\r\n\r\ninterface VotingPollInterface {\r\n    function getVoteOwner () external view returns(address);\r\n    function getVoteTitle () external view returns(string memory);\r\n    function getVoteNumber () external view returns(uint);\r\n    function getVoteOptions () external view returns(string[] memory);\r\n    function getStatus () external view returns(bool);\r\n}\r\n\r\ncontract VotingFactoryOld {\r\n    uint256 pollCount;\r\n    struct Vote {\r\n        address owner;\r\n        string title;\r\n        string[] options;\r\n        bool status;\r\n    }\r\n    mapping (uint256 => mapping(address => int )) votingResult;\r\n    mapping (uint256 => address) idToOwner;\r\n    Vote[] votingList;\r\n    address public constant VOTTING_POLL_ADDRESS = 0x39930cf2Af45a2cD284664663b11CE0BB4AD1125;\r\n    VotingPollInterface VotingPoll =  VotingPollInterface(VOTTING_POLL_ADDRESS);\r\n    \r\n    constructor () {\r\n        pollCount = 0;\r\n    }\r\n\r\n    function addVotignPoll() external {\r\n        address _owner = VotingPoll.getVoteOwner();\r\n        require(msg.sender == _owner, \"You are not owner!\");\r\n        string memory _title = VotingPoll.getVoteTitle();\r\n        // require(_title.length != 0, \"Voting Poll does not exist!\");\r\n        uint _number = VotingPoll.getVoteNumber();\r\n        require(_number != 0, \"Voting Poll does not exist!\");\r\n        string[] memory _options = VotingPoll.getVoteOptions();\r\n        bool _status = VotingPoll.getStatus();\r\n\r\n        Vote storage buff = votingList[pollCount];\r\n        buff.owner = _owner;\r\n        buff.title = _title;\r\n        buff.options = _options;\r\n        buff.status = _status;\r\n\r\n        idToOwner[pollCount] = msg.sender;\r\n        pollCount ++;\r\n    }\r\n\r\n    function vote (uint256 _id, int _value) external {\r\n        require(votingList[_id].status = false, \"Voting Was not Fihished\");\r\n        votingResult[_id][msg.sender] = _value;\r\n    }\r\n}",
  "sourcePath": "E:\\git\\sugarlandContracts\\contracts-old\\contracts\\VotingFactoryOld.sol",
  "compiler": {
    "name": "solc",
    "version": "0.8.14+commit.80d49f37.Emscripten.clang"
  },
  "schemaVersion": "3.4.4",
  "updatedAt": "2022-06-09T12:45:40.233Z",
  "devdoc": {
    "kind": "dev",
    "methods": {},
    "version": 1
  },
  "userdoc": {
    "kind": "user",
    "methods": {},
    "version": 1
  }
}