{
  "contractName": "VotingFactory",
  "abi": [
    {
      "inputs": [],
      "stateMutability": "nonpayable",
      "type": "constructor"
    },
    {
      "anonymous": false,
      "inputs": [
        {
          "indexed": false,
          "internalType": "address",
          "name": "deployer",
          "type": "address"
        },
        {
          "indexed": false,
          "internalType": "address",
          "name": "addr",
          "type": "address"
        }
      ],
      "name": "PollCreated",
      "type": "event"
    },
    {
      "inputs": [
        {
          "internalType": "uint256",
          "name": "",
          "type": "uint256"
        }
      ],
      "name": "allPolls",
      "outputs": [
        {
          "internalType": "address",
          "name": "",
          "type": "address"
        }
      ],
      "stateMutability": "view",
      "type": "function"
    },
    {
      "inputs": [
        {
          "internalType": "uint256",
          "name": "",
          "type": "uint256"
        }
      ],
      "name": "titles",
      "outputs": [
        {
          "internalType": "string",
          "name": "",
          "type": "string"
        }
      ],
      "stateMutability": "view",
      "type": "function"
    },
    {
      "inputs": [],
      "name": "getAllPolls",
      "outputs": [
        {
          "internalType": "address[]",
          "name": "",
          "type": "address[]"
        }
      ],
      "stateMutability": "view",
      "type": "function"
    },
    {
      "inputs": [],
      "name": "getTitles",
      "outputs": [
        {
          "internalType": "string[]",
          "name": "",
          "type": "string[]"
        }
      ],
      "stateMutability": "view",
      "type": "function"
    },
    {
      "inputs": [
        {
          "internalType": "string",
          "name": "_title",
          "type": "string"
        },
        {
          "internalType": "string[]",
          "name": "_options",
          "type": "string[]"
        }
      ],
      "name": "newVotingPoll",
      "outputs": [
        {
          "internalType": "address",
          "name": "votingPoll",
          "type": "address"
        }
      ],
      "stateMutability": "nonpayable",
      "type": "function"
    },
    {
      "inputs": [],
      "name": "getPollsCount",
      "outputs": [
        {
          "internalType": "uint256",
          "name": "cnt",
          "type": "uint256"
        }
      ],
      "stateMutability": "view",
      "type": "function"
    },
    {
      "inputs": [
        {
          "internalType": "address",
          "name": "_from",
          "type": "address"
        },
        {
          "components": [
            {
              "internalType": "uint256",
              "name": "id",
              "type": "uint256"
            },
            {
              "internalType": "uint256",
              "name": "amount",
              "type": "uint256"
            }
          ],
          "internalType": "struct VotingFactory.testItem[]",
          "name": "_options",
          "type": "tuple[]"
        }
      ],
      "name": "inputTest",
      "outputs": [],
      "stateMutability": "nonpayable",
      "type": "function"
    },
    {
      "inputs": [
        {
          "internalType": "address",
          "name": "_from",
          "type": "address"
        }
      ],
      "name": "getTestList",
      "outputs": [
        {
          "components": [
            {
              "internalType": "uint256",
              "name": "id",
              "type": "uint256"
            },
            {
              "internalType": "uint256",
              "name": "amount",
              "type": "uint256"
            }
          ],
          "internalType": "struct VotingFactory.testItem[]",
          "name": "",
          "type": "tuple[]"
        }
      ],
      "stateMutability": "nonpayable",
      "type": "function"
    }
  ],
  "bytecode": "0x608060405234801561001057600080fd5b506000600281905550612869806100286000396000f3fe60806040523480156200001157600080fd5b5060043610620000945760003560e01c80636be30e5411620000635780636be30e54146200015d5780639f7fde49146200017f578063ad11c07d14620001b5578063e099591614620001d55762000094565b80632cda1bf7146200009957806332b633fa14620000cf5780635795d18414620000f1578063637cd8741462000127575b600080fd5b620000b76004803603810190620000b1919062000ba5565b620001f7565b604051620000c6919062000f70565b60405180910390f35b620000d9620002ac565b604051620000e8919062000f04565b60405180910390f35b6200010f600480360381019062000109919062000a88565b6200033c565b6040516200011e919062000f4c565b60405180910390f35b6200014560048036038101906200013f919062000ba5565b620003f0565b60405162000154919062000e6f565b60405180910390f35b6200016762000430565b60405162000176919062000f28565b60405180910390f35b6200019d600480360381019062000197919062000b20565b62000513565b604051620001ac919062000e6f565b60405180910390f35b620001d36004803603810190620001cd919062000aba565b62000636565b005b620001df6200073c565b604051620001ee919062000f94565b60405180910390f35b600181815481106200020857600080fd5b9060005260206000200160009150905080546200022590620011c9565b80601f01602080910402602001604051908101604052809291908181526020018280546200025390620011c9565b8015620002a45780601f106200027857610100808354040283529160200191620002a4565b820191906000526020600020905b8154815290600101906020018083116200028657829003601f168201915b505050505081565b606060008054806020026020016040519081016040528092919081815260200182805480156200033257602002820191906000526020600020905b8160009054906101000a900473ffffffffffffffffffffffffffffffffffffffff1673ffffffffffffffffffffffffffffffffffffffff1681526020019060010190808311620002e7575b5050505050905090565b6060600360008373ffffffffffffffffffffffffffffffffffffffff1673ffffffffffffffffffffffffffffffffffffffff168152602001908152602001600020805480602002602001604051908101604052809291908181526020016000905b82821015620003e5578382906000526020600020906002020160405180604001604052908160008201548152602001600182015481525050815260200190600101906200039d565b505050509050919050565b600081815481106200040157600080fd5b906000526020600020016000915054906101000a900473ffffffffffffffffffffffffffffffffffffffff1681565b60606001805480602002602001604051908101604052809291908181526020016000905b828210156200050a5783829060005260206000200180546200047690620011c9565b80601f0160208091040260200160405190810160405280929190818152602001828054620004a490620011c9565b8015620004f55780601f10620004c957610100808354040283529160200191620004f5565b820191906000526020600020905b815481529060010190602001808311620004d757829003601f168201915b50505050508152602001906001019062000454565b50505050905090565b6000338383604051620005269062000748565b620005349392919062000eb9565b604051809103906000f08015801562000551573d6000803e3d6000fd5b5090506000819080600181540180825580915050600190039060005260206000200160009091909190916101000a81548173ffffffffffffffffffffffffffffffffffffffff021916908373ffffffffffffffffffffffffffffffffffffffff160217905550600183908060018154018082558091505060019003906000526020600020016000909190919091509080519060200190620005f492919062000756565b507f5b850d927499bc55df3941f7c4ae97ab6fce34a21f4df0ab30694f24353445b233826040516200062892919062000e8c565b60405180910390a192915050565b6000600360008473ffffffffffffffffffffffffffffffffffffffff1673ffffffffffffffffffffffffffffffffffffffff168152602001908152602001600020905060005b825181101562000736578281815181106200069c576200069b620012e1565b5b602002602001015160000151828281548110620006be57620006bd620012e1565b5b906000526020600020906002020160000181905550828181518110620006e957620006e8620012e1565b5b6020026020010151602001518282815481106200070b576200070a620012e1565b5b90600052602060002090600202016001018190555080806200072d9062001235565b9150506200067c565b50505050565b60008080549050905090565b61149180620013a383390190565b8280546200076490620011c9565b90600052602060002090601f016020900481019282620007885760008555620007d4565b82601f10620007a357805160ff1916838001178555620007d4565b82800160010185558215620007d4579182015b82811115620007d3578251825591602001919060010190620007b6565b5b509050620007e39190620007e7565b5090565b5b8082111562000802576000816000905550600101620007e8565b5090565b60006200081d620008178462000fda565b62000fb1565b9050808382526020820190508285602086028201111562000843576200084262001349565b5b60005b858110156200089857813567ffffffffffffffff8111156200086d576200086c6200133f565b5b8086016200087c8982620009e5565b8552602085019450602084019350505060018101905062000846565b5050509392505050565b6000620008b9620008b38462001009565b62000fb1565b90508083825260208201905082856040860282011115620008df57620008de62001349565b5b60005b85811015620009135781620008f8888262000a18565b845260208401935060408301925050600181019050620008e2565b5050509392505050565b6000620009346200092e8462001038565b62000fb1565b9050828152602081018484840111156200095357620009526200134e565b5b6200096084828562001184565b509392505050565b60008135905062000979816200136e565b92915050565b600082601f8301126200099757620009966200133f565b5b8135620009a984826020860162000806565b91505092915050565b600082601f830112620009ca57620009c96200133f565b5b8135620009dc848260208601620008a2565b91505092915050565b600082601f830112620009fd57620009fc6200133f565b5b813562000a0f8482602086016200091d565b91505092915050565b60006040828403121562000a315762000a3062001344565b5b62000a3d604062000fb1565b9050600062000a4f8482850162000a71565b600083015250602062000a658482850162000a71565b60208301525092915050565b60008135905062000a828162001388565b92915050565b60006020828403121562000aa15762000aa062001358565b5b600062000ab18482850162000968565b91505092915050565b6000806040838503121562000ad45762000ad362001358565b5b600062000ae48582860162000968565b925050602083013567ffffffffffffffff81111562000b085762000b0762001353565b5b62000b1685828601620009b2565b9150509250929050565b6000806040838503121562000b3a5762000b3962001358565b5b600083013567ffffffffffffffff81111562000b5b5762000b5a62001353565b5b62000b6985828601620009e5565b925050602083013567ffffffffffffffff81111562000b8d5762000b8c62001353565b5b62000b9b858286016200097f565b9150509250929050565b60006020828403121562000bbe5762000bbd62001358565b5b600062000bce8482850162000a71565b91505092915050565b600062000be5838362000c21565b60208301905092915050565b600062000bff838362000d98565b905092915050565b600062000c15838362000e1a565b60408301905092915050565b62000c2c8162001146565b82525050565b62000c3d8162001146565b82525050565b600062000c50826200109e565b62000c5c8185620010f1565b935062000c69836200106e565b8060005b8381101562000ca057815162000c84888262000bd7565b975062000c9183620010ca565b92505060018101905062000c6d565b5085935050505092915050565b600062000cba82620010a9565b62000cc6818562001102565b93508360208202850162000cda856200107e565b8060005b8581101562000d1c578484038952815162000cfa858262000bf1565b945062000d0783620010d7565b925060208a0199505060018101905062000cde565b50829750879550505050505092915050565b600062000d3b82620010b4565b62000d47818562001113565b935062000d54836200108e565b8060005b8381101562000d8b57815162000d6f888262000c07565b975062000d7c83620010e4565b92505060018101905062000d58565b5085935050505092915050565b600062000da582620010bf565b62000db1818562001124565b935062000dc381856020860162001193565b62000dce816200135d565b840191505092915050565b600062000de682620010bf565b62000df2818562001135565b935062000e0481856020860162001193565b62000e0f816200135d565b840191505092915050565b60408201600082015162000e32600085018262000e4d565b50602082015162000e47602085018262000e4d565b50505050565b62000e58816200117a565b82525050565b62000e69816200117a565b82525050565b600060208201905062000e86600083018462000c32565b92915050565b600060408201905062000ea3600083018562000c32565b62000eb2602083018462000c32565b9392505050565b600060608201905062000ed0600083018662000c32565b818103602083015262000ee4818562000dd9565b9050818103604083015262000efa818462000cad565b9050949350505050565b6000602082019050818103600083015262000f20818462000c43565b905092915050565b6000602082019050818103600083015262000f44818462000cad565b905092915050565b6000602082019050818103600083015262000f68818462000d2e565b905092915050565b6000602082019050818103600083015262000f8c818462000dd9565b905092915050565b600060208201905062000fab600083018462000e5e565b92915050565b600062000fbd62000fd0565b905062000fcb8282620011ff565b919050565b6000604051905090565b600067ffffffffffffffff82111562000ff85762000ff762001310565b5b602082029050602081019050919050565b600067ffffffffffffffff82111562001027576200102662001310565b5b602082029050602081019050919050565b600067ffffffffffffffff82111562001056576200105562001310565b5b62001061826200135d565b9050602081019050919050565b6000819050602082019050919050565b6000819050602082019050919050565b6000819050602082019050919050565b600081519050919050565b600081519050919050565b600081519050919050565b600081519050919050565b6000602082019050919050565b6000602082019050919050565b6000602082019050919050565b600082825260208201905092915050565b600082825260208201905092915050565b600082825260208201905092915050565b600082825260208201905092915050565b600082825260208201905092915050565b600062001153826200115a565b9050919050565b600073ffffffffffffffffffffffffffffffffffffffff82169050919050565b6000819050919050565b82818337600083830152505050565b60005b83811015620011b357808201518184015260208101905062001196565b83811115620011c3576000848401525b50505050565b60006002820490506001821680620011e257607f821691505b60208210811415620011f957620011f8620012b2565b5b50919050565b6200120a826200135d565b810181811067ffffffffffffffff821117156200122c576200122b62001310565b5b80604052505050565b600062001242826200117a565b91507fffffffffffffffffffffffffffffffffffffffffffffffffffffffffffffffff82141562001278576200127762001283565b5b600182019050919050565b7f4e487b7100000000000000000000000000000000000000000000000000000000600052601160045260246000fd5b7f4e487b7100000000000000000000000000000000000000000000000000000000600052602260045260246000fd5b7f4e487b7100000000000000000000000000000000000000000000000000000000600052603260045260246000fd5b7f4e487b7100000000000000000000000000000000000000000000000000000000600052604160045260246000fd5b600080fd5b600080fd5b600080fd5b600080fd5b600080fd5b600080fd5b6000601f19601f8301169050919050565b620013798162001146565b81146200138557600080fd5b50565b62001393816200117a565b81146200139f57600080fd5b5056fe60806040523480156200001157600080fd5b5060405162001491380380620014918339818101604052810190620000379190620003b6565b826000806101000a81548173ffffffffffffffffffffffffffffffffffffffff021916908373ffffffffffffffffffffffffffffffffffffffff16021790555081600190805190602001906200008f929190620000cd565b508060029080519060200190620000a89291906200015e565b506001600360006101000a81548160ff02191690831515021790555050505062000656565b828054620000db9062000548565b90600052602060002090601f016020900481019282620000ff57600085556200014b565b82601f106200011a57805160ff19168380011785556200014b565b828001600101855582156200014b579182015b828111156200014a5782518255916020019190600101906200012d565b5b5090506200015a9190620001c5565b5090565b828054828255906000526020600020908101928215620001b2579160200282015b82811115620001b1578251829080519060200190620001a0929190620000cd565b50916020019190600101906200017f565b5b509050620001c19190620001e4565b5090565b5b80821115620001e0576000816000905550600101620001c6565b5090565b5b80821115620002085760008181620001fe91906200020c565b50600101620001e5565b5090565b5080546200021a9062000548565b6000825580601f106200022e57506200024f565b601f0160209004906000526020600020908101906200024e9190620001c5565b5b50565b600062000269620002638462000479565b62000450565b905080838252602082019050828560208602820111156200028f576200028e62000617565b5b60005b85811015620002e457815167ffffffffffffffff811115620002b957620002b862000612565b5b808601620002c8898262000383565b8552602085019450602084019350505060018101905062000292565b5050509392505050565b600062000305620002ff84620004a8565b62000450565b9050828152602081018484840111156200032457620003236200061c565b5b6200033184828562000512565b509392505050565b6000815190506200034a816200063c565b92915050565b600082601f83011262000368576200036762000612565b5b81516200037a84826020860162000252565b91505092915050565b600082601f8301126200039b576200039a62000612565b5b8151620003ad848260208601620002ee565b91505092915050565b600080600060608486031215620003d257620003d162000626565b5b6000620003e28682870162000339565b935050602084015167ffffffffffffffff81111562000406576200040562000621565b5b620004148682870162000383565b925050604084015167ffffffffffffffff81111562000438576200043762000621565b5b620004468682870162000350565b9150509250925092565b60006200045c6200046f565b90506200046a82826200057e565b919050565b6000604051905090565b600067ffffffffffffffff821115620004975762000496620005e3565b5b602082029050602081019050919050565b600067ffffffffffffffff821115620004c657620004c5620005e3565b5b620004d1826200062b565b9050602081019050919050565b6000620004eb82620004f2565b9050919050565b600073ffffffffffffffffffffffffffffffffffffffff82169050919050565b60005b838110156200053257808201518184015260208101905062000515565b8381111562000542576000848401525b50505050565b600060028204905060018216806200056157607f821691505b60208210811415620005785762000577620005b4565b5b50919050565b62000589826200062b565b810181811067ffffffffffffffff82111715620005ab57620005aa620005e3565b5b80604052505050565b7f4e487b7100000000000000000000000000000000000000000000000000000000600052602260045260246000fd5b7f4e487b7100000000000000000000000000000000000000000000000000000000600052604160045260246000fd5b600080fd5b600080fd5b600080fd5b600080fd5b600080fd5b6000601f19601f8301169050919050565b6200064781620004de565b81146200065357600080fd5b50565b610e2b80620006666000396000f3fe608060405234801561001057600080fd5b50600436106100b45760003560e01c8063995e433911610071578063995e433914610191578063cc2ee196146101c1578063cca7a11c146101df578063f3cdcd1e146101fd578063fd4a77f114610207578063ff3c1a8f14610223576100b4565b806319f41a40146100b9578063409e2205146100d75780634e69d56014610107578063711e6eed14610125578063755df8cb14610143578063893d20e814610173575b600080fd5b6100c1610241565b6040516100ce9190610a7b565b60405180910390f35b6100f160048036038101906100ec919061085d565b610254565b6040516100fe9190610a96565b60405180910390f35b61010f610300565b60405161011c9190610a7b565b60405180910390f35b61012d610317565b60405161013a9190610a96565b60405180910390f35b61015d60048036038101906101589190610830565b6103a5565b60405161016a9190610b38565b60405180910390f35b61017b6103ee565b6040516101889190610a3e565b60405180910390f35b6101ab60048036038101906101a6919061085d565b610417565b6040516101b89190610b38565b60405180910390f35b6101c9610434565b6040516101d69190610a59565b60405180910390f35b6101e761050d565b6040516101f49190610b38565b60405180910390f35b61020561051a565b005b610221600480360381019061021c919061085d565b61061b565b005b61022b610774565b6040516102389190610a96565b60405180910390f35b600360009054906101000a900460ff1681565b6002818154811061026457600080fd5b90600052602060002001600091509050805461027f90610c34565b80601f01602080910402602001604051908101604052809291908181526020018280546102ab90610c34565b80156102f85780601f106102cd576101008083540402835291602001916102f8565b820191906000526020600020905b8154815290600101906020018083116102db57829003601f168201915b505050505081565b6000600360009054906101000a900460ff16905090565b6001805461032490610c34565b80601f016020809104026020016040519081016040528092919081815260200182805461035090610c34565b801561039d5780601f106103725761010080835404028352916020019161039d565b820191906000526020600020905b81548152906001019060200180831161038057829003601f168201915b505050505081565b6000600460008373ffffffffffffffffffffffffffffffffffffffff1673ffffffffffffffffffffffffffffffffffffffff168152602001908152602001600020549050919050565b60008060009054906101000a900473ffffffffffffffffffffffffffffffffffffffff16905090565b600060056000838152602001908152602001600020549050919050565b60606002805480602002602001604051908101604052809291908181526020016000905b8282101561050457838290600052602060002001805461047790610c34565b80601f01602080910402602001604051908101604052809291908181526020018280546104a390610c34565b80156104f05780601f106104c5576101008083540402835291602001916104f0565b820191906000526020600020905b8154815290600101906020018083116104d357829003601f168201915b505050505081526020019060010190610458565b50505050905090565b6000600280549050905090565b60008054906101000a900473ffffffffffffffffffffffffffffffffffffffff1673ffffffffffffffffffffffffffffffffffffffff163373ffffffffffffffffffffffffffffffffffffffff16146105a8576040517f08c379a000000000000000000000000000000000000000000000000000000000815260040161059f90610af8565b60405180910390fd5b60011515600360009054906101000a900460ff161515146105fe576040517f08c379a00000000000000000000000000000000000000000000000000000000081526004016105f590610ad8565b60405180910390fd5b6000600360006101000a81548160ff021916908315150217905550565b6000600460003373ffffffffffffffffffffffffffffffffffffffff1673ffffffffffffffffffffffffffffffffffffffff168152602001908152602001600020541461069d576040517f08c379a000000000000000000000000000000000000000000000000000000000815260040161069490610ab8565b60405180910390fd5b60011515600360009054906101000a900460ff161515146106f3576040517f08c379a00000000000000000000000000000000000000000000000000000000081526004016106ea90610b18565b60405180910390fd5b600460003373ffffffffffffffffffffffffffffffffffffffff1673ffffffffffffffffffffffffffffffffffffffff168152602001908152602001600020600081548092919061074390610c66565b919050555060056000828152602001908152602001600020600081548092919061076c90610c66565b919050555050565b60606001805461078390610c34565b80601f01602080910402602001604051908101604052809291908181526020018280546107af90610c34565b80156107fc5780601f106107d1576101008083540402835291602001916107fc565b820191906000526020600020905b8154815290600101906020018083116107df57829003601f168201915b5050505050905090565b60008135905061081581610dc7565b92915050565b60008135905061082a81610dde565b92915050565b60006020828403121561084657610845610d0d565b5b600061085484828501610806565b91505092915050565b60006020828403121561087357610872610d0d565b5b60006108818482850161081b565b91505092915050565b60006108968383610931565b905092915050565b6108a781610bb9565b82525050565b60006108b882610b63565b6108c28185610b86565b9350836020820285016108d485610b53565b8060005b8581101561091057848403895281516108f1858261088a565b94506108fc83610b79565b925060208a019950506001810190506108d8565b50829750879550505050505092915050565b61092b81610bcb565b82525050565b600061093c82610b6e565b6109468185610b97565b9350610956818560208601610c01565b61095f81610d12565b840191505092915050565b600061097582610b6e565b61097f8185610ba8565b935061098f818560208601610c01565b61099881610d12565b840191505092915050565b60006109b0601c83610ba8565b91506109bb82610d23565b602082019050919050565b60006109d3602083610ba8565b91506109de82610d4c565b602082019050919050565b60006109f6601183610ba8565b9150610a0182610d75565b602082019050919050565b6000610a19601e83610ba8565b9150610a2482610d9e565b602082019050919050565b610a3881610bf7565b82525050565b6000602082019050610a53600083018461089e565b92915050565b60006020820190508181036000830152610a7381846108ad565b905092915050565b6000602082019050610a906000830184610922565b92915050565b60006020820190508181036000830152610ab0818461096a565b905092915050565b60006020820190508181036000830152610ad1816109a3565b9050919050565b60006020820190508181036000830152610af1816109c6565b9050919050565b60006020820190508181036000830152610b11816109e9565b9050919050565b60006020820190508181036000830152610b3181610a0c565b9050919050565b6000602082019050610b4d6000830184610a2f565b92915050565b6000819050602082019050919050565b600081519050919050565b600081519050919050565b6000602082019050919050565b600082825260208201905092915050565b600082825260208201905092915050565b600082825260208201905092915050565b6000610bc482610bd7565b9050919050565b60008115159050919050565b600073ffffffffffffffffffffffffffffffffffffffff82169050919050565b6000819050919050565b60005b83811015610c1f578082015181840152602081019050610c04565b83811115610c2e576000848401525b50505050565b60006002820490506001821680610c4c57607f821691505b60208210811415610c6057610c5f610cde565b5b50919050565b6000610c7182610bf7565b91507fffffffffffffffffffffffffffffffffffffffffffffffffffffffffffffffff821415610ca457610ca3610caf565b5b600182019050919050565b7f4e487b7100000000000000000000000000000000000000000000000000000000600052601160045260246000fd5b7f4e487b7100000000000000000000000000000000000000000000000000000000600052602260045260246000fd5b600080fd5b6000601f19601f8301169050919050565b7f43616e2774206a6f696e20747769636520696e206f6e6520706f6c6c00000000600082015250565b7f5468697320766f74696e67207761732066696e6973686564206265666f72652e600082015250565b7f596f75277265206e6f74206f776e657221000000000000000000000000000000600082015250565b7f5468697320766f746520697320616c72656164792066696e69736865642e0000600082015250565b610dd081610bb9565b8114610ddb57600080fd5b50565b610de781610bf7565b8114610df257600080fd5b5056fea2646970667358221220b291e503e82be5b10ea7ad422f367ea8f7cb74b0473008f8bf82975f9827327e64736f6c63430008070033a26469706673582212201ab8d399916cec7a79ad7c26a637aad83dc09c7e2b76996200f55afa4854a57464736f6c63430008070033",
  "immutableReferences": {},
  "source": "// SPDX-License-Identifier: MIT\r\n\r\npragma solidity ^0.8.4;\r\n\r\nimport \"./VotingPoll.sol\";\r\n\r\ncontract VotingFactory {\r\n    address[] public allPolls;\r\n    string[] public titles;\r\n    uint pollCounts;\r\n\r\n    struct testItem {\r\n        uint id;\r\n        uint amount;\r\n    }\r\n\r\n    mapping (address => testItem[]) testList;\r\n    \r\n    event PollCreated(address deployer, address addr);\r\n\r\n    constructor () {\r\n        pollCounts = 0;\r\n    }\r\n\r\n    function getAllPolls() external view returns(address[] memory) {\r\n        return allPolls;\r\n    }\r\n\r\n    function getTitles() external view returns(string[] memory) {\r\n        return titles;\r\n    }\r\n\r\n    function newVotingPoll(string memory _title, string[] memory _options) external returns(address votingPoll) {\r\n        votingPoll = address(new VotingPoll(msg.sender, _title, _options));\r\n        allPolls.push(votingPoll);\r\n        titles.push(_title);\r\n        emit PollCreated(msg.sender, votingPoll);\r\n        return votingPoll;\r\n    }\r\n\r\n    function getPollsCount () external view returns(uint256 cnt) {\r\n        return allPolls.length;\r\n    }\r\n\r\n    function inputTest (address _from, testItem[] memory _options) external {\r\n        testItem[] storage temp = testList[_from];\r\n        for(uint i = 0; i < _options.length; i++) {\r\n            temp[i].id = _options[i].id;\r\n            temp[i].amount = _options[i].amount;\r\n        }\r\n    }\r\n\r\n    function getTestList (address _from) external returns(testItem[] memory){\r\n        return testList[_from];\r\n    }\r\n}",
  "sourcePath": "E:\\git\\sugarlandContracts\\voting-contract\\contracts\\VotingFactory.sol",
  "compiler": {
    "name": "solc",
    "version": "0.8.7+commit.e28d00a7.Emscripten.clang"
  },
  "schemaVersion": "3.4.4",
  "updatedAt": "2022-06-14T02:23:56.764Z",
  "devdoc": {
    "kind": "dev",
    "methods": {},
    "version": 1
  },
  "userdoc": {
    "kind": "user",
    "methods": {},
    "version": 1
  }
}