{
  "contractName": "VotingPoll",
  "abi": [
    {
      "inputs": [
        {
          "internalType": "address",
          "name": "_creater",
          "type": "address"
        },
        {
          "internalType": "string",
          "name": "_title",
          "type": "string"
        },
        {
          "internalType": "string[]",
          "name": "_options",
          "type": "string[]"
        }
      ],
      "stateMutability": "nonpayable",
      "type": "constructor"
    },
    {
      "inputs": [
        {
          "internalType": "uint256",
          "name": "",
          "type": "uint256"
        }
      ],
      "name": "options",
      "outputs": [
        {
          "internalType": "string",
          "name": "",
          "type": "string"
        }
      ],
      "stateMutability": "view",
      "type": "function"
    },
    {
      "inputs": [],
      "name": "votingStatus",
      "outputs": [
        {
          "internalType": "bool",
          "name": "",
          "type": "bool"
        }
      ],
      "stateMutability": "view",
      "type": "function"
    },
    {
      "inputs": [],
      "name": "votingTitle",
      "outputs": [
        {
          "internalType": "string",
          "name": "",
          "type": "string"
        }
      ],
      "stateMutability": "view",
      "type": "function"
    },
    {
      "inputs": [],
      "name": "getOwner",
      "outputs": [
        {
          "internalType": "address",
          "name": "",
          "type": "address"
        }
      ],
      "stateMutability": "view",
      "type": "function"
    },
    {
      "inputs": [],
      "name": "getTitle",
      "outputs": [
        {
          "internalType": "string",
          "name": "",
          "type": "string"
        }
      ],
      "stateMutability": "view",
      "type": "function"
    },
    {
      "inputs": [],
      "name": "getOptions",
      "outputs": [
        {
          "internalType": "string[]",
          "name": "",
          "type": "string[]"
        }
      ],
      "stateMutability": "view",
      "type": "function"
    },
    {
      "inputs": [],
      "name": "getStatus",
      "outputs": [
        {
          "internalType": "bool",
          "name": "",
          "type": "bool"
        }
      ],
      "stateMutability": "view",
      "type": "function"
    },
    {
      "inputs": [],
      "name": "getOptionCounts",
      "outputs": [
        {
          "internalType": "uint256",
          "name": "",
          "type": "uint256"
        }
      ],
      "stateMutability": "view",
      "type": "function"
    },
    {
      "inputs": [],
      "name": "getResult",
      "outputs": [
        {
          "components": [
            {
              "internalType": "address",
              "name": "joiner",
              "type": "address"
            },
            {
              "internalType": "uint256",
              "name": "result",
              "type": "uint256"
            }
          ],
          "internalType": "struct VotingPoll.vote[]",
          "name": "",
          "type": "tuple[]"
        }
      ],
      "stateMutability": "view",
      "type": "function"
    },
    {
      "inputs": [],
      "name": "pauseVoting",
      "outputs": [],
      "stateMutability": "nonpayable",
      "type": "function"
    },
    {
      "inputs": [
        {
          "internalType": "uint256",
          "name": "_value",
          "type": "uint256"
        }
      ],
      "name": "voting",
      "outputs": [],
      "stateMutability": "nonpayable",
      "type": "function"
    }
  ],
  "bytecode": "0x60806040523480156200001157600080fd5b50604051620015e4380380620015e4833981810160405281019062000037919062000558565b6000808190555082600260006101000a81548173ffffffffffffffffffffffffffffffffffffffff021916908373ffffffffffffffffffffffffffffffffffffffff160217905550816004908051906020019062000097929190620000d5565b508060059080519060200190620000b092919062000166565b506001600660006101000a81548160ff02191690831515021790555050505062000656565b828054620000e39062000621565b90600052602060002090601f01602090048101928262000107576000855562000153565b82601f106200012257805160ff191683800117855562000153565b8280016001018555821562000153579182015b828111156200015257825182559160200191906001019062000135565b5b509050620001629190620001cd565b5090565b828054828255906000526020600020908101928215620001ba579160200282015b82811115620001b9578251829080519060200190620001a8929190620000d5565b509160200191906001019062000187565b5b509050620001c99190620001ec565b5090565b5b80821115620001e8576000816000905550600101620001ce565b5090565b5b8082111562000210576000818162000206919062000214565b50600101620001ed565b5090565b508054620002229062000621565b6000825580601f1062000236575062000257565b601f016020900490600052602060002090810190620002569190620001cd565b5b50565b6000604051905090565b600080fd5b600080fd5b600073ffffffffffffffffffffffffffffffffffffffff82169050919050565b60006200029b826200026e565b9050919050565b620002ad816200028e565b8114620002b957600080fd5b50565b600081519050620002cd81620002a2565b92915050565b600080fd5b600080fd5b6000601f19601f8301169050919050565b7f4e487b7100000000000000000000000000000000000000000000000000000000600052604160045260246000fd5b6200032882620002dd565b810181811067ffffffffffffffff821117156200034a5762000349620002ee565b5b80604052505050565b60006200035f6200025a565b90506200036d82826200031d565b919050565b600067ffffffffffffffff82111562000390576200038f620002ee565b5b6200039b82620002dd565b9050602081019050919050565b60005b83811015620003c8578082015181840152602081019050620003ab565b83811115620003d8576000848401525b50505050565b6000620003f5620003ef8462000372565b62000353565b905082815260208101848484011115620004145762000413620002d8565b5b62000421848285620003a8565b509392505050565b600082601f830112620004415762000440620002d3565b5b815162000453848260208601620003de565b91505092915050565b600067ffffffffffffffff8211156200047a5762000479620002ee565b5b602082029050602081019050919050565b600080fd5b6000620004a7620004a1846200045c565b62000353565b90508083825260208201905060208402830185811115620004cd57620004cc6200048b565b5b835b818110156200051b57805167ffffffffffffffff811115620004f657620004f5620002d3565b5b80860162000505898262000429565b85526020850194505050602081019050620004cf565b5050509392505050565b600082601f8301126200053d576200053c620002d3565b5b81516200054f84826020860162000490565b91505092915050565b60008060006060848603121562000574576200057362000264565b5b60006200058486828701620002bc565b935050602084015167ffffffffffffffff811115620005a857620005a762000269565b5b620005b68682870162000429565b925050604084015167ffffffffffffffff811115620005da57620005d962000269565b5b620005e88682870162000525565b9150509250925092565b7f4e487b7100000000000000000000000000000000000000000000000000000000600052602260045260246000fd5b600060028204905060018216806200063a57607f821691505b60208210810362000650576200064f620005f2565b5b50919050565b610f7e80620006666000396000f3fe608060405234801561001057600080fd5b50600436106100a95760003560e01c8063cc2ee19611610071578063cc2ee19614610156578063cca7a11c14610174578063de29278914610192578063f3cdcd1e146101b0578063fd4a77f1146101ba578063ff3c1a8f146101d6576100a9565b806319f41a40146100ae578063409e2205146100cc5780634e69d560146100fc578063711e6eed1461011a578063893d20e814610138575b600080fd5b6100b66101f4565b6040516100c39190610882565b60405180910390f35b6100e660048036038101906100e191906108d8565b610207565b6040516100f3919061099e565b60405180910390f35b6101046102b3565b6040516101119190610882565b60405180910390f35b6101226102ca565b60405161012f919061099e565b60405180910390f35b610140610358565b60405161014d9190610a01565b60405180910390f35b61015e610382565b60405161016b9190610b28565b60405180910390f35b61017c61045b565b6040516101899190610b59565b60405180910390f35b61019a610468565b6040516101a79190610c70565b60405180910390f35b6101b8610527565b005b6101d460048036038101906101cf91906108d8565b61062a565b005b6101de6107d5565b6040516101eb919061099e565b60405180910390f35b600660009054906101000a900460ff1681565b6005818154811061021757600080fd5b90600052602060002001600091509050805461023290610cc1565b80601f016020809104026020016040519081016040528092919081815260200182805461025e90610cc1565b80156102ab5780601f10610280576101008083540402835291602001916102ab565b820191906000526020600020905b81548152906001019060200180831161028e57829003601f168201915b505050505081565b6000600660009054906101000a900460ff16905090565b600480546102d790610cc1565b80601f016020809104026020016040519081016040528092919081815260200182805461030390610cc1565b80156103505780601f1061032557610100808354040283529160200191610350565b820191906000526020600020905b81548152906001019060200180831161033357829003601f168201915b505050505081565b6000600260009054906101000a900473ffffffffffffffffffffffffffffffffffffffff16905090565b60606005805480602002602001604051908101604052809291908181526020016000905b828210156104525783829060005260206000200180546103c590610cc1565b80601f01602080910402602001604051908101604052809291908181526020018280546103f190610cc1565b801561043e5780601f106104135761010080835404028352916020019161043e565b820191906000526020600020905b81548152906001019060200180831161042157829003601f168201915b5050505050815260200190600101906103a6565b50505050905090565b6000600580549050905090565b60606003805480602002602001604051908101604052809291908181526020016000905b8282101561051e57838290600052602060002090600202016040518060400160405290816000820160009054906101000a900473ffffffffffffffffffffffffffffffffffffffff1673ffffffffffffffffffffffffffffffffffffffff1673ffffffffffffffffffffffffffffffffffffffff1681526020016001820154815250508152602001906001019061048c565b50505050905090565b600260009054906101000a900473ffffffffffffffffffffffffffffffffffffffff1673ffffffffffffffffffffffffffffffffffffffff163373ffffffffffffffffffffffffffffffffffffffff16146105b7576040517f08c379a00000000000000000000000000000000000000000000000000000000081526004016105ae90610d3e565b60405180910390fd5b60011515600660009054906101000a900460ff1615151461060d576040517f08c379a000000000000000000000000000000000000000000000000000000000815260040161060490610daa565b60405180910390fd5b6000600660006101000a81548160ff021916908315150217905550565b6000600160003373ffffffffffffffffffffffffffffffffffffffff1673ffffffffffffffffffffffffffffffffffffffff16815260200190815260200160002054146106ac576040517f08c379a00000000000000000000000000000000000000000000000000000000081526004016106a390610e16565b60405180910390fd5b60011515600660009054906101000a900460ff16151514610702576040517f08c379a00000000000000000000000000000000000000000000000000000000081526004016106f990610e82565b60405180910390fd5b80600160003373ffffffffffffffffffffffffffffffffffffffff1673ffffffffffffffffffffffffffffffffffffffff16815260200190815260200160002081905550600060036000548154811061075e5761075d610ea2565b5b90600052602060002090600202019050338160000160006101000a81548173ffffffffffffffffffffffffffffffffffffffff021916908373ffffffffffffffffffffffffffffffffffffffff1602179055508181600101819055506000808154809291906107cc90610f00565b91905055505050565b6060600480546107e490610cc1565b80601f016020809104026020016040519081016040528092919081815260200182805461081090610cc1565b801561085d5780601f106108325761010080835404028352916020019161085d565b820191906000526020600020905b81548152906001019060200180831161084057829003601f168201915b5050505050905090565b60008115159050919050565b61087c81610867565b82525050565b60006020820190506108976000830184610873565b92915050565b600080fd5b6000819050919050565b6108b5816108a2565b81146108c057600080fd5b50565b6000813590506108d2816108ac565b92915050565b6000602082840312156108ee576108ed61089d565b5b60006108fc848285016108c3565b91505092915050565b600081519050919050565b600082825260208201905092915050565b60005b8381101561093f578082015181840152602081019050610924565b8381111561094e576000848401525b50505050565b6000601f19601f8301169050919050565b600061097082610905565b61097a8185610910565b935061098a818560208601610921565b61099381610954565b840191505092915050565b600060208201905081810360008301526109b88184610965565b905092915050565b600073ffffffffffffffffffffffffffffffffffffffff82169050919050565b60006109eb826109c0565b9050919050565b6109fb816109e0565b82525050565b6000602082019050610a1660008301846109f2565b92915050565b600081519050919050565b600082825260208201905092915050565b6000819050602082019050919050565b600082825260208201905092915050565b6000610a6482610905565b610a6e8185610a48565b9350610a7e818560208601610921565b610a8781610954565b840191505092915050565b6000610a9e8383610a59565b905092915050565b6000602082019050919050565b6000610abe82610a1c565b610ac88185610a27565b935083602082028501610ada85610a38565b8060005b85811015610b165784840389528151610af78582610a92565b9450610b0283610aa6565b925060208a01995050600181019050610ade565b50829750879550505050505092915050565b60006020820190508181036000830152610b428184610ab3565b905092915050565b610b53816108a2565b82525050565b6000602082019050610b6e6000830184610b4a565b92915050565b600081519050919050565b600082825260208201905092915050565b6000819050602082019050919050565b610ba9816109e0565b82525050565b610bb8816108a2565b82525050565b604082016000820151610bd46000850182610ba0565b506020820151610be76020850182610baf565b50505050565b6000610bf98383610bbe565b60408301905092915050565b6000602082019050919050565b6000610c1d82610b74565b610c278185610b7f565b9350610c3283610b90565b8060005b83811015610c63578151610c4a8882610bed565b9750610c5583610c05565b925050600181019050610c36565b5085935050505092915050565b60006020820190508181036000830152610c8a8184610c12565b905092915050565b7f4e487b7100000000000000000000000000000000000000000000000000000000600052602260045260246000fd5b60006002820490506001821680610cd957607f821691505b602082108103610cec57610ceb610c92565b5b50919050565b7f596f75277265206e6f74206f776e657221000000000000000000000000000000600082015250565b6000610d28601183610910565b9150610d3382610cf2565b602082019050919050565b60006020820190508181036000830152610d5781610d1b565b9050919050565b7f5468697320766f74696e67207761732066696e6973686564206265666f72652e600082015250565b6000610d94602083610910565b9150610d9f82610d5e565b602082019050919050565b60006020820190508181036000830152610dc381610d87565b9050919050565b7f43616e2774206a6f696e20747769636520696e206f6e6520706f6c6c00000000600082015250565b6000610e00601c83610910565b9150610e0b82610dca565b602082019050919050565b60006020820190508181036000830152610e2f81610df3565b9050919050565b7f5468697320766f746520697320616c72656164792066696e69736865642e0000600082015250565b6000610e6c601e83610910565b9150610e7782610e36565b602082019050919050565b60006020820190508181036000830152610e9b81610e5f565b9050919050565b7f4e487b7100000000000000000000000000000000000000000000000000000000600052603260045260246000fd5b7f4e487b7100000000000000000000000000000000000000000000000000000000600052601160045260246000fd5b6000610f0b826108a2565b91507fffffffffffffffffffffffffffffffffffffffffffffffffffffffffffffffff8203610f3d57610f3c610ed1565b5b60018201905091905056fea264697066735822122044b1b31693205e4f649fd427379e4a32eec0be673f9c2aff8c8609d2d8c4c56364736f6c634300080e0033",
  "immutableReferences": {},
  "source": "// SPDX-License-Identifier: MIT\n\npragma solidity ^0.8.4;\npragma experimental ABIEncoderV2;\n\nimport \"./VotingFactory.sol\";\n\ncontract VotingPoll {\n\n    struct vote {\n        address joiner;\n        uint result;\n    }\n    uint256 joiners;\n    mapping(address => uint) multipleCheck;\n    address private owner;\n    vote[] voteResult;\n    string public votingTitle;\n    string[] public options;\n    bool public votingStatus;\n\n    constructor (address _creater, string memory _title, string[] memory _options) {\n        joiners = 0;\n        owner = _creater;\n        votingTitle = _title;\n        options = _options;\n        votingStatus = true;\n    }\n\n    function getOwner() external view returns(address) {\n        return owner;\n    }\n\n    function getTitle() external view returns(string memory) {\n        return votingTitle;\n    }\n\n    function getOptions() external view returns(string[] memory) {\n        return options;\n    }\n    \n    function getStatus() external view returns(bool) {\n        return votingStatus;\n    }\n\n    function getOptionCounts() external view returns(uint) {\n        return options.length;\n    }\n\n    function getResult() external view returns(vote[] memory) {\n        return voteResult;\n    }\n\n    function pauseVoting () external {\n        require(msg.sender == owner, \"You're not owner!\");\n        require(votingStatus == true, \"This voting was finished before.\");\n        votingStatus = false;\n    }\n\n    function voting(uint _value) external {\n        require(multipleCheck[msg.sender] == 0 , \"Can't join twice in one poll\");\n        require(votingStatus == true, \"This vote is already finished.\");\n        multipleCheck[msg.sender] = _value;\n        vote storage temp = voteResult[joiners];\n        temp.joiner = msg.sender;\n        temp.result = _value;\n        joiners++;\n    }\n}",
  "sourcePath": "E:\\git\\sugarlandContracts\\contracts-old\\contracts\\VotingPoll.sol",
  "compiler": {
    "name": "solc",
    "version": "0.8.14+commit.80d49f37.Emscripten.clang"
  },
  "schemaVersion": "3.4.4",
  "updatedAt": "2022-06-10T14:45:43.352Z",
  "devdoc": {
    "kind": "dev",
    "methods": {},
    "version": 1
  },
  "userdoc": {
    "kind": "user",
    "methods": {},
    "version": 1
  }
}